{
    "_format": "hh-sol-artifact-1",
    "contractName": "packPlayers",
    "sourceName": "contracts/PackPlayers.sol",
    "abi": [
        {
            "inputs": [
                {
                    "internalType": "address",
                    "name": "vrfCoordinator",
                    "type": "address"
                },
                {
                    "internalType": "address",
                    "name": "link",
                    "type": "address"
                },
                {
                    "internalType": "bytes32",
                    "name": "keyHash",
                    "type": "bytes32"
                },
                {
                    "internalType": "uint256",
                    "name": "fee",
                    "type": "uint256"
                }
            ],
            "stateMutability": "nonpayable",
            "type": "constructor"
        },
        {
            "anonymous": false,
            "inputs": [
                {
                    "indexed": true,
                    "internalType": "bytes32",
                    "name": "requestId",
                    "type": "bytes32"
                },
                {
                    "indexed": true,
                    "internalType": "uint256",
                    "name": "result",
                    "type": "uint256"
                }
            ],
            "name": "DiceLanded",
            "type": "event"
        },
        {
            "anonymous": false,
            "inputs": [
                {
                    "indexed": true,
                    "internalType": "bytes32",
                    "name": "requestId",
                    "type": "bytes32"
                },
                {
                    "indexed": true,
                    "internalType": "address",
                    "name": "roller",
                    "type": "address"
                }
            ],
            "name": "DiceRolled",
            "type": "event"
        },
        {
            "anonymous": false,
            "inputs": [
                {
                    "indexed": true,
                    "internalType": "address",
                    "name": "from",
                    "type": "address"
                },
                {
                    "indexed": true,
                    "internalType": "address",
                    "name": "to",
                    "type": "address"
                }
            ],
            "name": "OwnershipTransferRequested",
            "type": "event"
        },
        {
            "anonymous": false,
            "inputs": [
                {
                    "indexed": true,
                    "internalType": "address",
                    "name": "from",
                    "type": "address"
                },
                {
                    "indexed": true,
                    "internalType": "address",
                    "name": "to",
                    "type": "address"
                }
            ],
            "name": "OwnershipTransferred",
            "type": "event"
        },
        {
            "inputs": [],
            "name": "acceptOwnership",
            "outputs": [],
            "stateMutability": "nonpayable",
            "type": "function"
        },
        {
            "inputs": [
                {
                    "internalType": "address",
                    "name": "roller",
                    "type": "address"
                }
            ],
            "name": "buy",
            "outputs": [],
            "stateMutability": "payable",
            "type": "function"
        },
        {
            "inputs": [],
            "name": "owner",
            "outputs": [
                {
                    "internalType": "address",
                    "name": "",
                    "type": "address"
                }
            ],
            "stateMutability": "view",
            "type": "function"
        },
        {
            "inputs": [
                {
                    "internalType": "address",
                    "name": "owner",
                    "type": "address"
                }
            ],
            "name": "player",
            "outputs": [
                {
                    "internalType": "string",
                    "name": "",
                    "type": "string"
                }
            ],
            "stateMutability": "view",
            "type": "function"
        },
        {
            "inputs": [
                {
                    "internalType": "bytes32",
                    "name": "requestId",
                    "type": "bytes32"
                },
                {
                    "internalType": "uint256",
                    "name": "randomness",
                    "type": "uint256"
                }
            ],
            "name": "rawFulfillRandomness",
            "outputs": [],
            "stateMutability": "nonpayable",
            "type": "function"
        },
        {
            "inputs": [
                {
                    "internalType": "address",
                    "name": "to",
                    "type": "address"
                }
            ],
            "name": "transferOwnership",
            "outputs": [],
            "stateMutability": "nonpayable",
            "type": "function"
        },
        {
            "inputs": [],
            "name": "value",
            "outputs": [
                {
                    "internalType": "uint256",
                    "name": "",
                    "type": "uint256"
                }
            ],
            "stateMutability": "view",
            "type": "function"
        }
    ],
    "bytecode": "0x60c06040523480156200001157600080fd5b5060405162001bf538038062001bf583398181016040528101906200003791906200033a565b3380600086868173ffffffffffffffffffffffffffffffffffffffff1660a08173ffffffffffffffffffffffffffffffffffffffff1660601b815250508073ffffffffffffffffffffffffffffffffffffffff1660808173ffffffffffffffffffffffffffffffffffffffff1660601b815250505050600073ffffffffffffffffffffffffffffffffffffffff168273ffffffffffffffffffffffffffffffffffffffff16141562000120576040517f08c379a000000000000000000000000000000000000000000000000000000000815260040162000117906200042a565b60405180910390fd5b81600160006101000a81548173ffffffffffffffffffffffffffffffffffffffff021916908373ffffffffffffffffffffffffffffffffffffffff160217905550600073ffffffffffffffffffffffffffffffffffffffff168173ffffffffffffffffffffffffffffffffffffffff1614620001a857620001a781620001c360201b60201c565b5b50505081600381905550806004819055505050505062000515565b3373ffffffffffffffffffffffffffffffffffffffff168173ffffffffffffffffffffffffffffffffffffffff16141562000235576040517f08c379a00000000000000000000000000000000000000000000000000000000081526004016200022c906200044c565b60405180910390fd5b80600260006101000a81548173ffffffffffffffffffffffffffffffffffffffff021916908373ffffffffffffffffffffffffffffffffffffffff1602179055508073ffffffffffffffffffffffffffffffffffffffff16600160009054906101000a900473ffffffffffffffffffffffffffffffffffffffff1673ffffffffffffffffffffffffffffffffffffffff167fed8889f560326eb138920d842192f0eb3dd22b4f139c87a2c57538e05bae127860405160405180910390a350565b6000815190506200030681620004c7565b92915050565b6000815190506200031d81620004e1565b92915050565b6000815190506200033481620004fb565b92915050565b600080600080608085870312156200035157600080fd5b60006200036187828801620002f5565b94505060206200037487828801620002f5565b935050604062000387878288016200030c565b92505060606200039a8782880162000323565b91505092959194509250565b6000620003b56018836200046e565b91507f43616e6e6f7420736574206f776e657220746f207a65726f00000000000000006000830152602082019050919050565b6000620003f76017836200046e565b91507f43616e6e6f74207472616e7366657220746f2073656c660000000000000000006000830152602082019050919050565b600060208201905081810360008301526200044581620003a6565b9050919050565b600060208201905081810360008301526200046781620003e8565b9050919050565b600082825260208201905092915050565b60006200048c826200049d565b9050919050565b6000819050919050565b600073ffffffffffffffffffffffffffffffffffffffff82169050919050565b6000819050919050565b620004d2816200047f565b8114620004de57600080fd5b50565b620004ec8162000493565b8114620004f857600080fd5b50565b6200050681620004bd565b81146200051257600080fd5b50565b60805160601c60a05160601c6116a66200054f600039600081816104ad0152610cce0152600081816108f50152610c9201526116a66000f3fe6080604052600436106100705760003560e01c80638da5cb5b1161004e5780638da5cb5b146100f457806394985ddd1461011f578063f088d54714610148578063f2fde38b1461016457610070565b80633fa4f245146100755780634c54e1b5146100a057806379ba5097146100dd575b600080fd5b34801561008157600080fd5b5061008a61018d565b60405161009791906113fe565b60405180910390f35b3480156100ac57600080fd5b506100c760048036038101906100c29190610ec5565b610193565b6040516100d491906112fc565b60405180910390f35b3480156100e957600080fd5b506100f26102ea565b005b34801561010057600080fd5b50610109610481565b6040516101169190611235565b60405180910390f35b34801561012b57600080fd5b5061014660048036038101906101419190610f17565b6104ab565b005b610162600480360381019061015d9190610ec5565b610547565b005b34801561017057600080fd5b5061018b60048036038101906101869190610ec5565b61055b565b005b60075481565b60606000600660008473ffffffffffffffffffffffffffffffffffffffff1673ffffffffffffffffffffffffffffffffffffffff168152602001908152602001600020541415610218576040517f08c379a000000000000000000000000000000000000000000000000000000000815260040161020f9061137e565b60405180910390fd5b602a600660008473ffffffffffffffffffffffffffffffffffffffff1673ffffffffffffffffffffffffffffffffffffffff16815260200190815260200160002054141561029b576040517f08c379a00000000000000000000000000000000000000000000000000000000081526004016102929061135e565b60405180910390fd5b6102e3600660008473ffffffffffffffffffffffffffffffffffffffff1673ffffffffffffffffffffffffffffffffffffffff1681526020019081526020016000205461056f565b9050919050565b600260009054906101000a900473ffffffffffffffffffffffffffffffffffffffff1673ffffffffffffffffffffffffffffffffffffffff163373ffffffffffffffffffffffffffffffffffffffff161461037a576040517f08c379a00000000000000000000000000000000000000000000000000000000081526004016103719061131e565b60405180910390fd5b6000600160009054906101000a900473ffffffffffffffffffffffffffffffffffffffff16905033600160006101000a81548173ffffffffffffffffffffffffffffffffffffffff021916908373ffffffffffffffffffffffffffffffffffffffff1602179055506000600260006101000a81548173ffffffffffffffffffffffffffffffffffffffff021916908373ffffffffffffffffffffffffffffffffffffffff1602179055503373ffffffffffffffffffffffffffffffffffffffff168173ffffffffffffffffffffffffffffffffffffffff167f8be0079c531659141344cd1fd0a4f28419497f9722a3daafe3b4186f6b6457e060405160405180910390a350565b6000600160009054906101000a900473ffffffffffffffffffffffffffffffffffffffff16905090565b7f000000000000000000000000000000000000000000000000000000000000000073ffffffffffffffffffffffffffffffffffffffff163373ffffffffffffffffffffffffffffffffffffffff1614610539576040517f08c379a00000000000000000000000000000000000000000000000000000000081526004016105309061139e565b60405180910390fd5b610543828261081f565b5050565b34600781905550610557816108e6565b5050565b610563610acd565b61056c81610b5f565b50565b606060006040518061014001604052806040518060400160405280600c81526020017f4c6542726f6e204a616d6573000000000000000000000000000000000000000081525081526020016040518060400160405280600c81526020017f4b6576696e20447572616e74000000000000000000000000000000000000000081525081526020016040518060400160405280600d81526020017f4b61776869204c656f6e6172640000000000000000000000000000000000000081525081526020016040518060400160405280600b81526020017f42656e2053696d6d6f6e7300000000000000000000000000000000000000000081525081526020016040518060400160405280600e81526020017f416c706572656e2053656e67756e00000000000000000000000000000000000081525081526020016040518060400160405280600b81526020017f4a6f656c20456d6269696400000000000000000000000000000000000000000081525081526020016040518060400160405280600c81526020017f547972657365204d61786579000000000000000000000000000000000000000081525081526020016040518060400160405280600a81526020017f4c6f6e7a6f2042616c6c0000000000000000000000000000000000000000000081525081526020016040518060400160405280600b81526020017f4c616d656c6f2042616c6c00000000000000000000000000000000000000000081525081526020016040518060400160405280600a81526020017f4c615661722042616c6c000000000000000000000000000000000000000000008152508152509050806001846107db91906114a7565b600a8110610812577f4e487b7100000000000000000000000000000000000000000000000000000000600052603260045260246000fd5b6020020151915050919050565b60006001600a836108309190611574565b61083a9190611451565b905080600660006005600087815260200190815260200160002060009054906101000a900473ffffffffffffffffffffffffffffffffffffffff1673ffffffffffffffffffffffffffffffffffffffff1673ffffffffffffffffffffffffffffffffffffffff1681526020019081526020016000208190555080837f909dd726737b7ffa4ae9d137e9edebe8a74a9c2910a4b60e8112f93ab217083760405160405180910390a3505050565b60006108f0610acd565b6004547f000000000000000000000000000000000000000000000000000000000000000073ffffffffffffffffffffffffffffffffffffffff166370a08231306040518263ffffffff1660e01b815260040161094c9190611235565b60206040518083038186803b15801561096457600080fd5b505afa158015610978573d6000803e3d6000fd5b505050506040513d601f19601f8201168201806040525081019061099c9190610f53565b10156109dd576040517f08c379a00000000000000000000000000000000000000000000000000000000081526004016109d4906113be565b60405180910390fd5b6109eb600354600454610c8e565b9050816005600083815260200190815260200160002060006101000a81548173ffffffffffffffffffffffffffffffffffffffff021916908373ffffffffffffffffffffffffffffffffffffffff160217905550602a600660008473ffffffffffffffffffffffffffffffffffffffff1673ffffffffffffffffffffffffffffffffffffffff168152602001908152602001600020819055508173ffffffffffffffffffffffffffffffffffffffff16817f923de4fc4aece24a78a9e4ca3009c571a742f81ac2c004a229224b0fd1883bdd60405160405180910390a3919050565b600160009054906101000a900473ffffffffffffffffffffffffffffffffffffffff1673ffffffffffffffffffffffffffffffffffffffff163373ffffffffffffffffffffffffffffffffffffffff1614610b5d576040517f08c379a0000000000000000000000000000000000000000000000000000000008152600401610b549061133e565b60405180910390fd5b565b3373ffffffffffffffffffffffffffffffffffffffff168173ffffffffffffffffffffffffffffffffffffffff161415610bce576040517f08c379a0000000000000000000000000000000000000000000000000000000008152600401610bc5906113de565b60405180910390fd5b80600260006101000a81548173ffffffffffffffffffffffffffffffffffffffff021916908373ffffffffffffffffffffffffffffffffffffffff1602179055508073ffffffffffffffffffffffffffffffffffffffff16600160009054906101000a900473ffffffffffffffffffffffffffffffffffffffff1673ffffffffffffffffffffffffffffffffffffffff167fed8889f560326eb138920d842192f0eb3dd22b4f139c87a2c57538e05bae127860405160405180910390a350565b60007f000000000000000000000000000000000000000000000000000000000000000073ffffffffffffffffffffffffffffffffffffffff16634000aea07f000000000000000000000000000000000000000000000000000000000000000084866000604051602001610d0292919061128e565b6040516020818303038152906040526040518463ffffffff1660e01b8152600401610d2f93929190611250565b602060405180830381600087803b158015610d4957600080fd5b505af1158015610d5d573d6000803e3d6000fd5b505050506040513d601f19601f82011682018060405250810190610d819190610eee565b506000610da38460003060008089815260200190815260200160002054610ded565b9050600160008086815260200190815260200160002054610dc49190611451565b60008086815260200190815260200160002081905550610de48482610e29565b91505092915050565b600084848484604051602001610e0694939291906112b7565b6040516020818303038152906040528051906020012060001c9050949350505050565b60008282604051602001610e3e929190611209565b60405160208183030381529060405280519060200120905092915050565b600081359050610e6b81611614565b92915050565b600081519050610e808161162b565b92915050565b600081359050610e9581611642565b92915050565b600081359050610eaa81611659565b92915050565b600081519050610ebf81611659565b92915050565b600060208284031215610ed757600080fd5b6000610ee584828501610e5c565b91505092915050565b600060208284031215610f0057600080fd5b6000610f0e84828501610e71565b91505092915050565b60008060408385031215610f2a57600080fd5b6000610f3885828601610e86565b9250506020610f4985828601610e9b565b9150509250929050565b600060208284031215610f6557600080fd5b6000610f7384828501610eb0565b91505092915050565b610f85816114db565b82525050565b610f94816114f9565b82525050565b610fab610fa6826114f9565b611560565b82525050565b6000610fbc82611419565b610fc6818561142f565b9350610fd681856020860161152d565b610fdf81611603565b840191505092915050565b6000610ff582611424565b610fff8185611440565b935061100f81856020860161152d565b61101881611603565b840191505092915050565b6000611030601683611440565b91507f4d7573742062652070726f706f736564206f776e6572000000000000000000006000830152602082019050919050565b6000611070601683611440565b91507f4f6e6c792063616c6c61626c65206279206f776e6572000000000000000000006000830152602082019050919050565b60006110b0601083611440565b91507f526f6c6c20696e2070726f6772657373000000000000000000000000000000006000830152602082019050919050565b60006110f0600f83611440565b91507f44696365206e6f7420726f6c6c656400000000000000000000000000000000006000830152602082019050919050565b6000611130601f83611440565b91507f4f6e6c7920565246436f6f7264696e61746f722063616e2066756c66696c6c006000830152602082019050919050565b6000611170601a83611440565b91507f4e6f7420656e6f756768204c494e4b20746f20706179206665650000000000006000830152602082019050919050565b60006111b0601783611440565b91507f43616e6e6f74207472616e7366657220746f2073656c660000000000000000006000830152602082019050919050565b6111ec81611523565b82525050565b6112036111fe82611523565b61156a565b82525050565b60006112158285610f9a565b60208201915061122582846111f2565b6020820191508190509392505050565b600060208201905061124a6000830184610f7c565b92915050565b60006060820190506112656000830186610f7c565b61127260208301856111e3565b81810360408301526112848184610fb1565b9050949350505050565b60006040820190506112a36000830185610f8b565b6112b060208301846111e3565b9392505050565b60006080820190506112cc6000830187610f8b565b6112d960208301866111e3565b6112e66040830185610f7c565b6112f360608301846111e3565b95945050505050565b600060208201905081810360008301526113168184610fea565b905092915050565b6000602082019050818103600083015261133781611023565b9050919050565b6000602082019050818103600083015261135781611063565b9050919050565b60006020820190508181036000830152611377816110a3565b9050919050565b60006020820190508181036000830152611397816110e3565b9050919050565b600060208201905081810360008301526113b781611123565b9050919050565b600060208201905081810360008301526113d781611163565b9050919050565b600060208201905081810360008301526113f7816111a3565b9050919050565b600060208201905061141360008301846111e3565b92915050565b600081519050919050565b600081519050919050565b600082825260208201905092915050565b600082825260208201905092915050565b600061145c82611523565b915061146783611523565b9250827fffffffffffffffffffffffffffffffffffffffffffffffffffffffffffffffff0382111561149c5761149b6115a5565b5b828201905092915050565b60006114b282611523565b91506114bd83611523565b9250828210156114d0576114cf6115a5565b5b828203905092915050565b60006114e682611503565b9050919050565b60008115159050919050565b6000819050919050565b600073ffffffffffffffffffffffffffffffffffffffff82169050919050565b6000819050919050565b60005b8381101561154b578082015181840152602081019050611530565b8381111561155a576000848401525b50505050565b6000819050919050565b6000819050919050565b600061157f82611523565b915061158a83611523565b92508261159a576115996115d4565b5b828206905092915050565b7f4e487b7100000000000000000000000000000000000000000000000000000000600052601160045260246000fd5b7f4e487b7100000000000000000000000000000000000000000000000000000000600052601260045260246000fd5b6000601f19601f8301169050919050565b61161d816114db565b811461162857600080fd5b50565b611634816114ed565b811461163f57600080fd5b50565b61164b816114f9565b811461165657600080fd5b50565b61166281611523565b811461166d57600080fd5b5056fea2646970667358221220f1d99918c4331769c1ccbc8da59143cd61fd09753c72c82e81458a8d8a98964664736f6c63430008000033",
    "linkReferences": {},
    "deployedLinkReferences": {}
}