{
	"_format": "hh-sol-artifact-1",
	"contractName": "packPlayers",
	"sourceName": "contracts/PackPlayers.sol",
	"abi": [
		{
			"inputs": [],
			"stateMutability": "nonpayable",
			"type": "constructor"
		},
		{
			"anonymous": false,
			"inputs": [
				{
					"indexed": true,
					"internalType": "address",
					"name": "account",
					"type": "address"
				},
				{
					"indexed": true,
					"internalType": "address",
					"name": "operator",
					"type": "address"
				},
				{
					"indexed": false,
					"internalType": "bool",
					"name": "approved",
					"type": "bool"
				}
			],
			"name": "ApprovalForAll",
			"type": "event"
		},
		{
			"anonymous": false,
			"inputs": [
				{
					"indexed": true,
					"internalType": "bytes32",
					"name": "requestId",
					"type": "bytes32"
				},
				{
					"indexed": true,
					"internalType": "uint256",
					"name": "result",
					"type": "uint256"
				}
			],
			"name": "DiceLanded",
			"type": "event"
		},
		{
			"anonymous": false,
			"inputs": [
				{
					"indexed": true,
					"internalType": "bytes32",
					"name": "requestId",
					"type": "bytes32"
				},
				{
					"indexed": true,
					"internalType": "address",
					"name": "roller",
					"type": "address"
				}
			],
			"name": "DiceRolled",
			"type": "event"
		},
		{
			"anonymous": false,
			"inputs": [
				{
					"indexed": true,
					"internalType": "address",
					"name": "from",
					"type": "address"
				},
				{
					"indexed": true,
					"internalType": "address",
					"name": "to",
					"type": "address"
				}
			],
			"name": "OwnershipTransferRequested",
			"type": "event"
		},
		{
			"anonymous": false,
			"inputs": [
				{
					"indexed": true,
					"internalType": "address",
					"name": "from",
					"type": "address"
				},
				{
					"indexed": true,
					"internalType": "address",
					"name": "to",
					"type": "address"
				}
			],
			"name": "OwnershipTransferred",
			"type": "event"
		},
		{
			"anonymous": false,
			"inputs": [
				{
					"indexed": false,
					"internalType": "address",
					"name": "owner",
					"type": "address"
				}
			],
			"name": "Packed",
			"type": "event"
		},
		{
			"anonymous": false,
			"inputs": [
				{
					"indexed": true,
					"internalType": "address",
					"name": "operator",
					"type": "address"
				},
				{
					"indexed": true,
					"internalType": "address",
					"name": "from",
					"type": "address"
				},
				{
					"indexed": true,
					"internalType": "address",
					"name": "to",
					"type": "address"
				},
				{
					"indexed": false,
					"internalType": "uint256[]",
					"name": "ids",
					"type": "uint256[]"
				},
				{
					"indexed": false,
					"internalType": "uint256[]",
					"name": "values",
					"type": "uint256[]"
				}
			],
			"name": "TransferBatch",
			"type": "event"
		},
		{
			"anonymous": false,
			"inputs": [
				{
					"indexed": true,
					"internalType": "address",
					"name": "operator",
					"type": "address"
				},
				{
					"indexed": true,
					"internalType": "address",
					"name": "from",
					"type": "address"
				},
				{
					"indexed": true,
					"internalType": "address",
					"name": "to",
					"type": "address"
				},
				{
					"indexed": false,
					"internalType": "uint256",
					"name": "id",
					"type": "uint256"
				},
				{
					"indexed": false,
					"internalType": "uint256",
					"name": "value",
					"type": "uint256"
				}
			],
			"name": "TransferSingle",
			"type": "event"
		},
		{
			"anonymous": false,
			"inputs": [
				{
					"indexed": false,
					"internalType": "string",
					"name": "value",
					"type": "string"
				},
				{
					"indexed": true,
					"internalType": "uint256",
					"name": "id",
					"type": "uint256"
				}
			],
			"name": "URI",
			"type": "event"
		},
		{
			"inputs": [],
			"name": "acceptOwnership",
			"outputs": [],
			"stateMutability": "nonpayable",
			"type": "function"
		},
		{
			"inputs": [
				{
					"internalType": "address",
					"name": "account",
					"type": "address"
				},
				{
					"internalType": "uint256",
					"name": "id",
					"type": "uint256"
				}
			],
			"name": "balanceOf",
			"outputs": [
				{
					"internalType": "uint256",
					"name": "",
					"type": "uint256"
				}
			],
			"stateMutability": "view",
			"type": "function"
		},
		{
			"inputs": [
				{
					"internalType": "address[]",
					"name": "accounts",
					"type": "address[]"
				},
				{
					"internalType": "uint256[]",
					"name": "ids",
					"type": "uint256[]"
				}
			],
			"name": "balanceOfBatch",
			"outputs": [
				{
					"internalType": "uint256[]",
					"name": "",
					"type": "uint256[]"
				}
			],
			"stateMutability": "view",
			"type": "function"
		},
		{
			"inputs": [
				{
					"internalType": "address",
					"name": "roller",
					"type": "address"
				}
			],
			"name": "buy",
			"outputs": [],
			"stateMutability": "payable",
			"type": "function"
		},
		{
			"inputs": [
				{
					"internalType": "address",
					"name": "owner",
					"type": "address"
				}
			],
			"name": "clearPackedPlayers",
			"outputs": [],
			"stateMutability": "nonpayable",
			"type": "function"
		},
		{
			"inputs": [
				{
					"internalType": "address",
					"name": "owner",
					"type": "address"
				}
			],
			"name": "getPlayers",
			"outputs": [
				{
					"internalType": "string[]",
					"name": "",
					"type": "string[]"
				}
			],
			"stateMutability": "view",
			"type": "function"
		},
		{
			"inputs": [
				{
					"internalType": "address",
					"name": "",
					"type": "address"
				},
				{
					"internalType": "uint256",
					"name": "",
					"type": "uint256"
				}
			],
			"name": "holdings",
			"outputs": [
				{
					"internalType": "string",
					"name": "",
					"type": "string"
				}
			],
			"stateMutability": "view",
			"type": "function"
		},
		{
			"inputs": [
				{
					"internalType": "uint256",
					"name": "",
					"type": "uint256"
				}
			],
			"name": "id_to_player",
			"outputs": [
				{
					"internalType": "string",
					"name": "",
					"type": "string"
				}
			],
			"stateMutability": "view",
			"type": "function"
		},
		{
			"inputs": [
				{
					"internalType": "address",
					"name": "account",
					"type": "address"
				},
				{
					"internalType": "address",
					"name": "operator",
					"type": "address"
				}
			],
			"name": "isApprovedForAll",
			"outputs": [
				{
					"internalType": "bool",
					"name": "",
					"type": "bool"
				}
			],
			"stateMutability": "view",
			"type": "function"
		},
		{
			"inputs": [],
			"name": "owner",
			"outputs": [
				{
					"internalType": "address",
					"name": "",
					"type": "address"
				}
			],
			"stateMutability": "view",
			"type": "function"
		},
		{
			"inputs": [
				{
					"internalType": "address",
					"name": "owner",
					"type": "address"
				}
			],
			"name": "player",
			"outputs": [
				{
					"internalType": "string[]",
					"name": "",
					"type": "string[]"
				}
			],
			"stateMutability": "nonpayable",
			"type": "function"
		},
		{
			"inputs": [
				{
					"internalType": "bytes32",
					"name": "requestId",
					"type": "bytes32"
				},
				{
					"internalType": "uint256",
					"name": "randomness",
					"type": "uint256"
				}
			],
			"name": "rawFulfillRandomness",
			"outputs": [],
			"stateMutability": "nonpayable",
			"type": "function"
		},
		{
			"inputs": [
				{
					"internalType": "address",
					"name": "from",
					"type": "address"
				},
				{
					"internalType": "address",
					"name": "to",
					"type": "address"
				},
				{
					"internalType": "uint256[]",
					"name": "ids",
					"type": "uint256[]"
				},
				{
					"internalType": "uint256[]",
					"name": "amounts",
					"type": "uint256[]"
				},
				{
					"internalType": "bytes",
					"name": "data",
					"type": "bytes"
				}
			],
			"name": "safeBatchTransferFrom",
			"outputs": [],
			"stateMutability": "nonpayable",
			"type": "function"
		},
		{
			"inputs": [
				{
					"internalType": "address",
					"name": "from",
					"type": "address"
				},
				{
					"internalType": "address",
					"name": "to",
					"type": "address"
				},
				{
					"internalType": "uint256",
					"name": "id",
					"type": "uint256"
				},
				{
					"internalType": "uint256",
					"name": "amount",
					"type": "uint256"
				},
				{
					"internalType": "bytes",
					"name": "data",
					"type": "bytes"
				}
			],
			"name": "safeTransferFrom",
			"outputs": [],
			"stateMutability": "nonpayable",
			"type": "function"
		},
		{
			"inputs": [
				{
					"internalType": "address",
					"name": "operator",
					"type": "address"
				},
				{
					"internalType": "bool",
					"name": "approved",
					"type": "bool"
				}
			],
			"name": "setApprovalForAll",
			"outputs": [],
			"stateMutability": "nonpayable",
			"type": "function"
		},
		{
			"inputs": [
				{
					"internalType": "bytes4",
					"name": "interfaceId",
					"type": "bytes4"
				}
			],
			"name": "supportsInterface",
			"outputs": [
				{
					"internalType": "bool",
					"name": "",
					"type": "bool"
				}
			],
			"stateMutability": "view",
			"type": "function"
		},
		{
			"inputs": [
				{
					"internalType": "address",
					"name": "to",
					"type": "address"
				}
			],
			"name": "transferOwnership",
			"outputs": [],
			"stateMutability": "nonpayable",
			"type": "function"
		},
		{
			"inputs": [
				{
					"internalType": "uint256",
					"name": "",
					"type": "uint256"
				}
			],
			"name": "uri",
			"outputs": [
				{
					"internalType": "string",
					"name": "",
					"type": "string"
				}
			],
			"stateMutability": "view",
			"type": "function"
		},
		{
			"inputs": [],
			"name": "value",
			"outputs": [
				{
					"internalType": "uint256",
					"name": "",
					"type": "uint256"
				}
			],
			"stateMutability": "view",
			"type": "function"
		}
	],
	"bytecode": "0x60c06040526040518061028001604052806040518060400160405280600c81526020017f4c6542726f6e204a616d6573000000000000000000000000000000000000000081525081526020016040518060400160405280600c81526020017f4b6576696e20447572616e74000000000000000000000000000000000000000081525081526020016040518060400160405280600d81526020017f4b61776869204c656f6e6172640000000000000000000000000000000000000081525081526020016040518060400160405280600b81526020017f42656e2053696d6d6f6e7300000000000000000000000000000000000000000081525081526020016040518060400160405280600e81526020017f416c706572656e2053656e67756e00000000000000000000000000000000000081525081526020016040518060400160405280600b81526020017f4a6f656c20456d6269696400000000000000000000000000000000000000000081525081526020016040518060400160405280600c81526020017f547972657365204d61786579000000000000000000000000000000000000000081525081526020016040518060400160405280600a81526020017f4c6f6e7a6f2042616c6c0000000000000000000000000000000000000000000081525081526020016040518060400160405280600b81526020017f4c616d656c6f2042616c6c00000000000000000000000000000000000000000081525081526020016040518060400160405280600a81526020017f4c615661722042616c6c0000000000000000000000000000000000000000000081525081526020016040518060400160405280601181526020017f5479726573652048616c69627572746f6e00000000000000000000000000000081525081526020016040518060400160405280601381526020017f526f626572742057696c6c69616d73204949490000000000000000000000000081525081526020016040518060400160405280601081526020017f4b6576696e20506f72746572204a722e0000000000000000000000000000000081525081526020016040518060400160405280601181526020017f4a6172656e204a61636b736f6e204a722e00000000000000000000000000000081525081526020016040518060400160405280600b81526020017f4576616e204d6f626c657900000000000000000000000000000000000000000081525081526020016040518060400160405280600f81526020017f436164652043756e6e696e6768616d000000000000000000000000000000000081525081526020016040518060400160405280600b81526020017f4a616c656e20477265656e00000000000000000000000000000000000000000081525081526020016040518060400160405280600e81526020017f53636f74746965204261726e657300000000000000000000000000000000000081525081526020016040518060400160405280600f81526020017f416e74686f6e792045647761726473000000000000000000000000000000000081525081526020016040518060400160405280600b81526020017f4a616c656e205375676773000000000000000000000000000000000000000000815250815250600d906014620004bc929190620008af565b50348015620004ca57600080fd5b503380600073dd3782915140c8f3b190b5d67eac6dc5760c46e973a36085f69e2889c224210f603d836748e7dc0088604051806060016040528060278152602001620055346027913962000524816200076160201b60201c565b508173ffffffffffffffffffffffffffffffffffffffff1660a08173ffffffffffffffffffffffffffffffffffffffff1660601b815250508073ffffffffffffffffffffffffffffffffffffffff1660808173ffffffffffffffffffffffffffffffffffffffff1660601b815250505050600073ffffffffffffffffffffffffffffffffffffffff168273ffffffffffffffffffffffffffffffffffffffff16141562000608576040517f08c379a0000000000000000000000000000000000000000000000000000000008152600401620005ff9062000b43565b60405180910390fd5b81600460006101000a81548173ffffffffffffffffffffffffffffffffffffffff021916908373ffffffffffffffffffffffffffffffffffffffff160217905550600073ffffffffffffffffffffffffffffffffffffffff168173ffffffffffffffffffffffffffffffffffffffff161462000690576200068f816200077d60201b60201c565b5b50505060005b60148110156200072157600d8160148110620006db577f4e487b7100000000000000000000000000000000000000000000000000000000600052603260045260246000fd5b0160216000838152602001908152602001600020908054620006fd9062000ba2565b6200070a92919062000909565b508080620007189062000bd8565b91505062000696565b507f6c3699283bda56ad74f6b855546325b68d482e983852a7a82979cc4807b641f460001b60068190555067016345785d8a000060078190555062000c84565b806002908051906020019062000779929190620009a1565b5050565b3373ffffffffffffffffffffffffffffffffffffffff168173ffffffffffffffffffffffffffffffffffffffff161415620007ef576040517f08c379a0000000000000000000000000000000000000000000000000000000008152600401620007e69062000b65565b60405180910390fd5b80600560006101000a81548173ffffffffffffffffffffffffffffffffffffffff021916908373ffffffffffffffffffffffffffffffffffffffff1602179055508073ffffffffffffffffffffffffffffffffffffffff16600460009054906101000a900473ffffffffffffffffffffffffffffffffffffffff1673ffffffffffffffffffffffffffffffffffffffff167fed8889f560326eb138920d842192f0eb3dd22b4f139c87a2c57538e05bae127860405160405180910390a350565b8260148101928215620008f6579160200282015b82811115620008f5578251829080519060200190620008e4929190620009a1565b5091602001919060010190620008c3565b5b50905062000905919062000a32565b5090565b828054620009179062000ba2565b90600052602060002090601f0160209004810192826200093b57600085556200098e565b82601f106200094e57805485556200098e565b828001600101855582156200098e57600052602060002091601f016020900482015b828111156200098d57825482559160010191906001019062000970565b5b5090506200099d919062000a5a565b5090565b828054620009af9062000ba2565b90600052602060002090601f016020900481019282620009d3576000855562000a1f565b82601f10620009ee57805160ff191683800117855562000a1f565b8280016001018555821562000a1f579182015b8281111562000a1e57825182559160200191906001019062000a01565b5b50905062000a2e919062000a5a565b5090565b5b8082111562000a56576000818162000a4c919062000a79565b5060010162000a33565b5090565b5b8082111562000a7557600081600090555060010162000a5b565b5090565b50805462000a879062000ba2565b6000825580601f1062000a9b575062000abc565b601f01602090049060005260206000209081019062000abb919062000a5a565b5b50565b600062000ace60188362000b87565b91507f43616e6e6f7420736574206f776e657220746f207a65726f00000000000000006000830152602082019050919050565b600062000b1060178362000b87565b91507f43616e6e6f74207472616e7366657220746f2073656c660000000000000000006000830152602082019050919050565b6000602082019050818103600083015262000b5e8162000abf565b9050919050565b6000602082019050818103600083015262000b808162000b01565b9050919050565b600082825260208201905092915050565b6000819050919050565b6000600282049050600182168062000bbb57607f821691505b6020821081141562000bd25762000bd162000c55565b5b50919050565b600062000be58262000b98565b91507fffffffffffffffffffffffffffffffffffffffffffffffffffffffffffffffff82141562000c1b5762000c1a62000c26565b5b600182019050919050565b7f4e487b7100000000000000000000000000000000000000000000000000000000600052601160045260246000fd5b7f4e487b7100000000000000000000000000000000000000000000000000000000600052602260045260246000fd5b60805160601c60a05160601c61487662000cbe60003960008181610f300152612987015260008181611ecf015261294b01526148766000f3fe6080604052600436106101135760003560e01c80637a80b6b4116100a0578063a22cb46511610064578063a22cb465146103e8578063e985e9c514610411578063f088d5471461044e578063f242432a1461046a578063f2fde38b1461049357610113565b80637a80b6b4146102dd57806383a9bb821461031a5780638da5cb5b1461035757806391b46a911461038257806394985ddd146103bf57610113565b80633fa4f245116100e75780633fa4f245146101f85780634c54e1b5146102235780634e1273f41461026057806356dbf7ae1461029d57806379ba5097146102c657610113565b8062fdd58e1461011857806301ffc9a7146101555780630e89341c146101925780632eb2c2d6146101cf575b600080fd5b34801561012457600080fd5b5061013f600480360381019061013a91906133d8565b6104bc565b60405161014c919061427b565b60405180910390f35b34801561016157600080fd5b5061017c600480360381019061017791906134e5565b610585565b6040516101899190613f90565b60405180910390f35b34801561019e57600080fd5b506101b960048036038101906101b49190613537565b610667565b6040516101c69190614019565b60405180910390f35b3480156101db57600080fd5b506101f660048036038101906101f1919061324e565b6106fb565b005b34801561020457600080fd5b5061020d61079c565b60405161021a919061427b565b60405180910390f35b34801561022f57600080fd5b5061024a600480360381019061024591906131e9565b6107a2565b6040516102579190613f15565b60405180910390f35b34801561026c57600080fd5b5061028760048036038101906102829190613414565b6108fd565b6040516102949190613f37565b60405180910390f35b3480156102a957600080fd5b506102c460048036038101906102bf91906131e9565b610aae565b005b3480156102d257600080fd5b506102db610afc565b005b3480156102e957600080fd5b5061030460048036038101906102ff91906131e9565b610c93565b6040516103119190613f15565b60405180910390f35b34801561032657600080fd5b50610341600480360381019061033c9190613537565b610dab565b60405161034e9190614019565b60405180910390f35b34801561036357600080fd5b5061036c610e4b565b6040516103799190613dfa565b60405180910390f35b34801561038e57600080fd5b506103a960048036038101906103a491906133d8565b610e75565b6040516103b69190614019565b60405180910390f35b3480156103cb57600080fd5b506103e660048036038101906103e191906134a9565b610f2e565b005b3480156103f457600080fd5b5061040f600480360381019061040a919061339c565b610fca565b005b34801561041d57600080fd5b5061043860048036038101906104339190613212565b610fe0565b6040516104459190613f90565b60405180910390f35b610468600480360381019061046391906131e9565b611074565b005b34801561047657600080fd5b50610491600480360381019061048c919061330d565b611088565b005b34801561049f57600080fd5b506104ba60048036038101906104b591906131e9565b611129565b005b60008073ffffffffffffffffffffffffffffffffffffffff168373ffffffffffffffffffffffffffffffffffffffff16141561052d576040517f08c379a00000000000000000000000000000000000000000000000000000000081526004016105249061409b565b60405180910390fd5b60008083815260200190815260200160002060008473ffffffffffffffffffffffffffffffffffffffff1673ffffffffffffffffffffffffffffffffffffffff16815260200190815260200160002054905092915050565b60007fd9b67a26000000000000000000000000000000000000000000000000000000007bffffffffffffffffffffffffffffffffffffffffffffffffffffffff1916827bffffffffffffffffffffffffffffffffffffffffffffffffffffffff1916148061065057507f0e89341c000000000000000000000000000000000000000000000000000000007bffffffffffffffffffffffffffffffffffffffffffffffffffffffff1916827bffffffffffffffffffffffffffffffffffffffffffffffffffffffff1916145b80610660575061065f8261113d565b5b9050919050565b6060600280546106769061457d565b80601f01602080910402602001604051908101604052809291908181526020018280546106a29061457d565b80156106ef5780601f106106c4576101008083540402835291602001916106ef565b820191906000526020600020905b8154815290600101906020018083116106d257829003601f168201915b50505050509050919050565b6107036111a7565b73ffffffffffffffffffffffffffffffffffffffff168573ffffffffffffffffffffffffffffffffffffffff1614806107495750610748856107436111a7565b610fe0565b5b610788576040517f08c379a000000000000000000000000000000000000000000000000000000000815260040161077f9061415b565b60405180910390fd5b61079585858585856111af565b5050505050565b600c5481565b60606000600960008473ffffffffffffffffffffffffffffffffffffffff1673ffffffffffffffffffffffffffffffffffffffff168152602001908152602001600020541415610827576040517f08c379a000000000000000000000000000000000000000000000000000000000815260040161081e9061411b565b60405180910390fd5b63499602d2600960008473ffffffffffffffffffffffffffffffffffffffff1673ffffffffffffffffffffffffffffffffffffffff1681526020019081526020016000205414156108ad576040517f08c379a00000000000000000000000000000000000000000000000000000000081526004016108a4906140fb565b60405180910390fd5b6108f6600960008473ffffffffffffffffffffffffffffffffffffffff1673ffffffffffffffffffffffffffffffffffffffff168152602001908152602001600020548361150f565b9050919050565b60608151835114610943576040517f08c379a000000000000000000000000000000000000000000000000000000000815260040161093a9061421b565b60405180910390fd5b6000835167ffffffffffffffff811115610986577f4e487b7100000000000000000000000000000000000000000000000000000000600052604160045260246000fd5b6040519080825280602002602001820160405280156109b45781602001602082028036833780820191505090505b50905060005b8451811015610aa357610a4d8582815181106109ff577f4e487b7100000000000000000000000000000000000000000000000000000000600052603260045260246000fd5b6020026020010151858381518110610a40577f4e487b7100000000000000000000000000000000000000000000000000000000600052603260045260246000fd5b60200260200101516104bc565b828281518110610a86577f4e487b7100000000000000000000000000000000000000000000000000000000600052603260045260246000fd5b60200260200101818152505080610a9c906145af565b90506109ba565b508091505092915050565b600a60008273ffffffffffffffffffffffffffffffffffffffff1673ffffffffffffffffffffffffffffffffffffffff1681526020019081526020016000206000610af99190612e85565b50565b600560009054906101000a900473ffffffffffffffffffffffffffffffffffffffff1673ffffffffffffffffffffffffffffffffffffffff163373ffffffffffffffffffffffffffffffffffffffff1614610b8c576040517f08c379a0000000000000000000000000000000000000000000000000000000008152600401610b839061407b565b60405180910390fd5b6000600460009054906101000a900473ffffffffffffffffffffffffffffffffffffffff16905033600460006101000a81548173ffffffffffffffffffffffffffffffffffffffff021916908373ffffffffffffffffffffffffffffffffffffffff1602179055506000600560006101000a81548173ffffffffffffffffffffffffffffffffffffffff021916908373ffffffffffffffffffffffffffffffffffffffff1602179055503373ffffffffffffffffffffffffffffffffffffffff168173ffffffffffffffffffffffffffffffffffffffff167f8be0079c531659141344cd1fd0a4f28419497f9722a3daafe3b4186f6b6457e060405160405180910390a350565b6060600a60008373ffffffffffffffffffffffffffffffffffffffff1673ffffffffffffffffffffffffffffffffffffffff168152602001908152602001600020805480602002602001604051908101604052809291908181526020016000905b82821015610da0578382906000526020600020018054610d139061457d565b80601f0160208091040260200160405190810160405280929190818152602001828054610d3f9061457d565b8015610d8c5780601f10610d6157610100808354040283529160200191610d8c565b820191906000526020600020905b815481529060010190602001808311610d6f57829003601f168201915b505050505081526020019060010190610cf4565b505050509050919050565b60216020528060005260406000206000915090508054610dca9061457d565b80601f0160208091040260200160405190810160405280929190818152602001828054610df69061457d565b8015610e435780601f10610e1857610100808354040283529160200191610e43565b820191906000526020600020905b815481529060010190602001808311610e2657829003601f168201915b505050505081565b6000600460009054906101000a900473ffffffffffffffffffffffffffffffffffffffff16905090565b600a6020528160005260406000208181548110610e9157600080fd5b90600052602060002001600091509150508054610ead9061457d565b80601f0160208091040260200160405190810160405280929190818152602001828054610ed99061457d565b8015610f265780601f10610efb57610100808354040283529160200191610f26565b820191906000526020600020905b815481529060010190602001808311610f0957829003601f168201915b505050505081565b7f000000000000000000000000000000000000000000000000000000000000000073ffffffffffffffffffffffffffffffffffffffff163373ffffffffffffffffffffffffffffffffffffffff1614610fbc576040517f08c379a0000000000000000000000000000000000000000000000000000000008152600401610fb39061419b565b60405180910390fd5b610fc68282611c98565b5050565b610fdc610fd56111a7565b8383611d53565b5050565b6000600160008473ffffffffffffffffffffffffffffffffffffffff1673ffffffffffffffffffffffffffffffffffffffff16815260200190815260200160002060008373ffffffffffffffffffffffffffffffffffffffff1673ffffffffffffffffffffffffffffffffffffffff16815260200190815260200160002060009054906101000a900460ff16905092915050565b34600c8190555061108481611ec0565b5050565b6110906111a7565b73ffffffffffffffffffffffffffffffffffffffff168573ffffffffffffffffffffffffffffffffffffffff1614806110d657506110d5856110d06111a7565b610fe0565b5b611115576040517f08c379a000000000000000000000000000000000000000000000000000000000815260040161110c906140bb565b60405180910390fd5b61112285858585856120aa565b5050505050565b61113161232c565b61113a816123be565b50565b60007f01ffc9a7000000000000000000000000000000000000000000000000000000007bffffffffffffffffffffffffffffffffffffffffffffffffffffffff1916827bffffffffffffffffffffffffffffffffffffffffffffffffffffffff1916149050919050565b600033905090565b81518351146111f3576040517f08c379a00000000000000000000000000000000000000000000000000000000081526004016111ea9061423b565b60405180910390fd5b600073ffffffffffffffffffffffffffffffffffffffff168473ffffffffffffffffffffffffffffffffffffffff161415611263576040517f08c379a000000000000000000000000000000000000000000000000000000000815260040161125a9061413b565b60405180910390fd5b600061126d6111a7565b905061127d8187878787876124ed565b60005b845181101561147a5760008582815181106112c4577f4e487b7100000000000000000000000000000000000000000000000000000000600052603260045260246000fd5b602002602001015190506000858381518110611309577f4e487b7100000000000000000000000000000000000000000000000000000000600052603260045260246000fd5b60200260200101519050600080600084815260200190815260200160002060008b73ffffffffffffffffffffffffffffffffffffffff1673ffffffffffffffffffffffffffffffffffffffff168152602001908152602001600020549050818110156113aa576040517f08c379a00000000000000000000000000000000000000000000000000000000081526004016113a19061417b565b60405180910390fd5b81810360008085815260200190815260200160002060008c73ffffffffffffffffffffffffffffffffffffffff1673ffffffffffffffffffffffffffffffffffffffff168152602001908152602001600020819055508160008085815260200190815260200160002060008b73ffffffffffffffffffffffffffffffffffffffff1673ffffffffffffffffffffffffffffffffffffffff168152602001908152602001600020600082825461145f9190614433565b9250508190555050505080611473906145af565b9050611280565b508473ffffffffffffffffffffffffffffffffffffffff168673ffffffffffffffffffffffffffffffffffffffff168273ffffffffffffffffffffffffffffffffffffffff167f4a39dc06d4c0dbc64b70af90fd698a233a518aa5d07e595d983b8c0526c8f7fb87876040516114f1929190613f59565b60405180910390a46115078187878787876124f5565b505050505050565b606060006040518061028001604052806040518060400160405280600c81526020017f4c6542726f6e204a616d6573000000000000000000000000000000000000000081525081526020016040518060400160405280600c81526020017f4b6576696e20447572616e74000000000000000000000000000000000000000081525081526020016040518060400160405280600d81526020017f4b61776869204c656f6e6172640000000000000000000000000000000000000081525081526020016040518060400160405280600b81526020017f42656e2053696d6d6f6e7300000000000000000000000000000000000000000081525081526020016040518060400160405280600e81526020017f416c706572656e2053656e67756e00000000000000000000000000000000000081525081526020016040518060400160405280600b81526020017f4a6f656c20456d6269696400000000000000000000000000000000000000000081525081526020016040518060400160405280600c81526020017f547972657365204d61786579000000000000000000000000000000000000000081525081526020016040518060400160405280600a81526020017f4c6f6e7a6f2042616c6c0000000000000000000000000000000000000000000081525081526020016040518060400160405280600b81526020017f4c616d656c6f2042616c6c00000000000000000000000000000000000000000081525081526020016040518060400160405280600a81526020017f4c615661722042616c6c0000000000000000000000000000000000000000000081525081526020016040518060400160405280601181526020017f5479726573652048616c69627572746f6e00000000000000000000000000000081525081526020016040518060400160405280601381526020017f526f626572742057696c6c69616d73204949490000000000000000000000000081525081526020016040518060400160405280601081526020017f4b6576696e20506f72746572204a722e0000000000000000000000000000000081525081526020016040518060400160405280601181526020017f4a6172656e204a61636b736f6e204a722e00000000000000000000000000000081525081526020016040518060400160405280600b81526020017f4576616e204d6f626c657900000000000000000000000000000000000000000081525081526020016040518060400160405280600f81526020017f436164652043756e6e696e6768616d000000000000000000000000000000000081525081526020016040518060400160405280600b81526020017f4a616c656e20477265656e00000000000000000000000000000000000000000081525081526020016040518060400160405280600e81526020017f53636f74746965204261726e657300000000000000000000000000000000000081525081526020016040518060400160405280600f81526020017f416e74686f6e792045647761726473000000000000000000000000000000000081525081526020016040518060400160405280600b81526020017f4a616c656e205375676773000000000000000000000000000000000000000000815250815250905060006119c88560056126c5565b905060005b8151811015611b4757600a60008673ffffffffffffffffffffffffffffffffffffffff1673ffffffffffffffffffffffffffffffffffffffff168152602001908152602001600020836001848481518110611a51577f4e487b7100000000000000000000000000000000000000000000000000000000600052603260045260246000fd5b6020026020010151611a639190614489565b60148110611a9a577f4e487b7100000000000000000000000000000000000000000000000000000000600052603260045260246000fd5b6020020151908060018154018082558091505060019003906000526020600020016000909190919091509080519060200190611ad7929190612ea6565b50611b3433838381518110611b15577f4e487b7100000000000000000000000000000000000000000000000000000000600052603260045260246000fd5b60200260200101516001604051806020016040528060008152506127b1565b8080611b3f906145af565b9150506119cd565b507fa340c216784d506dea61b22b7290b63d4aabbec0d7132930e22fcbc94153d2f784604051611b779190613dfa565b60405180910390a1600a60008573ffffffffffffffffffffffffffffffffffffffff1673ffffffffffffffffffffffffffffffffffffffff168152602001908152602001600020805480602002602001604051908101604052809291908181526020016000905b82821015611c8a578382906000526020600020018054611bfd9061457d565b80601f0160208091040260200160405190810160405280929190818152602001828054611c299061457d565b8015611c765780601f10611c4b57610100808354040283529160200191611c76565b820191906000526020600020905b815481529060010190602001808311611c5957829003601f168201915b505050505081526020019060010190611bde565b505050509250505092915050565b6000601482611ca7919061460c565b905080600960006008600087815260200190815260200160002060009054906101000a900473ffffffffffffffffffffffffffffffffffffffff1673ffffffffffffffffffffffffffffffffffffffff1673ffffffffffffffffffffffffffffffffffffffff1681526020019081526020016000208190555080837f909dd726737b7ffa4ae9d137e9edebe8a74a9c2910a4b60e8112f93ab217083760405160405180910390a3505050565b8173ffffffffffffffffffffffffffffffffffffffff168373ffffffffffffffffffffffffffffffffffffffff161415611dc2576040517f08c379a0000000000000000000000000000000000000000000000000000000008152600401611db9906141fb565b60405180910390fd5b80600160008573ffffffffffffffffffffffffffffffffffffffff1673ffffffffffffffffffffffffffffffffffffffff16815260200190815260200160002060008473ffffffffffffffffffffffffffffffffffffffff1673ffffffffffffffffffffffffffffffffffffffff16815260200190815260200160002060006101000a81548160ff0219169083151502179055508173ffffffffffffffffffffffffffffffffffffffff168373ffffffffffffffffffffffffffffffffffffffff167f17307eab39ab6107e8899845ad3d59bd9653f200f220920489ca2b5937696c3183604051611eb39190613f90565b60405180910390a3505050565b6000611eca61232c565b6007547f000000000000000000000000000000000000000000000000000000000000000073ffffffffffffffffffffffffffffffffffffffff166370a08231306040518263ffffffff1660e01b8152600401611f269190613dfa565b60206040518083038186803b158015611f3e57600080fd5b505afa158015611f52573d6000803e3d6000fd5b505050506040513d601f19601f82011682018060405250810190611f769190613560565b1015611fb7576040517f08c379a0000000000000000000000000000000000000000000000000000000008152600401611fae906141bb565b60405180910390fd5b611fc5600654600754612947565b9050816008600083815260200190815260200160002060006101000a81548173ffffffffffffffffffffffffffffffffffffffff021916908373ffffffffffffffffffffffffffffffffffffffff16021790555063499602d2600960008473ffffffffffffffffffffffffffffffffffffffff1673ffffffffffffffffffffffffffffffffffffffff168152602001908152602001600020819055508173ffffffffffffffffffffffffffffffffffffffff16817f923de4fc4aece24a78a9e4ca3009c571a742f81ac2c004a229224b0fd1883bdd60405160405180910390a3919050565b600073ffffffffffffffffffffffffffffffffffffffff168473ffffffffffffffffffffffffffffffffffffffff16141561211a576040517f08c379a00000000000000000000000000000000000000000000000000000000081526004016121119061413b565b60405180910390fd5b60006121246111a7565b905061214481878761213588612aa9565b61213e88612aa9565b876124ed565b600080600086815260200190815260200160002060008873ffffffffffffffffffffffffffffffffffffffff1673ffffffffffffffffffffffffffffffffffffffff168152602001908152602001600020549050838110156121db576040517f08c379a00000000000000000000000000000000000000000000000000000000081526004016121d29061417b565b60405180910390fd5b83810360008087815260200190815260200160002060008973ffffffffffffffffffffffffffffffffffffffff1673ffffffffffffffffffffffffffffffffffffffff168152602001908152602001600020819055508360008087815260200190815260200160002060008873ffffffffffffffffffffffffffffffffffffffff1673ffffffffffffffffffffffffffffffffffffffff16815260200190815260200160002060008282546122909190614433565b925050819055508573ffffffffffffffffffffffffffffffffffffffff168773ffffffffffffffffffffffffffffffffffffffff168373ffffffffffffffffffffffffffffffffffffffff167fc3d58168c5ae7397731d063d5bbf3d657854427343f4c083240f7aacaa2d0f62888860405161230d929190614296565b60405180910390a4612323828888888888612b6f565b50505050505050565b600460009054906101000a900473ffffffffffffffffffffffffffffffffffffffff1673ffffffffffffffffffffffffffffffffffffffff163373ffffffffffffffffffffffffffffffffffffffff16146123bc576040517f08c379a00000000000000000000000000000000000000000000000000000000081526004016123b3906140db565b60405180910390fd5b565b3373ffffffffffffffffffffffffffffffffffffffff168173ffffffffffffffffffffffffffffffffffffffff16141561242d576040517f08c379a0000000000000000000000000000000000000000000000000000000008152600401612424906141db565b60405180910390fd5b80600560006101000a81548173ffffffffffffffffffffffffffffffffffffffff021916908373ffffffffffffffffffffffffffffffffffffffff1602179055508073ffffffffffffffffffffffffffffffffffffffff16600460009054906101000a900473ffffffffffffffffffffffffffffffffffffffff1673ffffffffffffffffffffffffffffffffffffffff167fed8889f560326eb138920d842192f0eb3dd22b4f139c87a2c57538e05bae127860405160405180910390a350565b505050505050565b6125148473ffffffffffffffffffffffffffffffffffffffff16612d3f565b156126bd578373ffffffffffffffffffffffffffffffffffffffff1663bc197c8187878686866040518663ffffffff1660e01b815260040161255a959493929190613e15565b602060405180830381600087803b15801561257457600080fd5b505af19250505080156125a557506040513d601f19601f820116820180604052508101906125a2919061350e565b60015b612634576125b1614717565b806125bc57506125f9565b806040517f08c379a00000000000000000000000000000000000000000000000000000000081526004016125f09190614019565b60405180910390fd5b6040517f08c379a000000000000000000000000000000000000000000000000000000000815260040161262b9061403b565b60405180910390fd5b63bc197c8160e01b7bffffffffffffffffffffffffffffffffffffffffffffffffffffffff1916817bffffffffffffffffffffffffffffffffffffffffffffffffffffffff1916146126bb576040517f08c379a00000000000000000000000000000000000000000000000000000000081526004016126b29061405b565b60405180910390fd5b505b505050505050565b60608167ffffffffffffffff811115612707577f4e487b7100000000000000000000000000000000000000000000000000000000600052604160045260246000fd5b6040519080825280602002602001820160405280156127355781602001602082028036833780820191505090505b50905060005b828110156127aa57600060016014868460405160200161275c929190614296565b6040516020818303038152906040528051906020012060001c61277f919061460c565b6127899190614433565b9050612796818484612d52565b5080806127a2906145af565b91505061273b565b5092915050565b600073ffffffffffffffffffffffffffffffffffffffff168473ffffffffffffffffffffffffffffffffffffffff161415612821576040517f08c379a00000000000000000000000000000000000000000000000000000000081526004016128189061425b565b60405180910390fd5b600061282b6111a7565b905061284c8160008761283d88612aa9565b61284688612aa9565b876124ed565b8260008086815260200190815260200160002060008773ffffffffffffffffffffffffffffffffffffffff1673ffffffffffffffffffffffffffffffffffffffff16815260200190815260200160002060008282546128ab9190614433565b925050819055508473ffffffffffffffffffffffffffffffffffffffff16600073ffffffffffffffffffffffffffffffffffffffff168273ffffffffffffffffffffffffffffffffffffffff167fc3d58168c5ae7397731d063d5bbf3d657854427343f4c083240f7aacaa2d0f628787604051612929929190614296565b60405180910390a461294081600087878787612b6f565b5050505050565b60007f000000000000000000000000000000000000000000000000000000000000000073ffffffffffffffffffffffffffffffffffffffff16634000aea07f0000000000000000000000000000000000000000000000000000000000000000848660006040516020016129bb929190613fab565b6040516020818303038152906040526040518463ffffffff1660e01b81526004016129e893929190613ed7565b602060405180830381600087803b158015612a0257600080fd5b505af1158015612a16573d6000803e3d6000fd5b505050506040513d601f19601f82011682018060405250810190612a3a9190613480565b506000612a5d846000306003600089815260200190815260200160002054612e16565b905060016003600086815260200190815260200160002054612a7f9190614433565b6003600086815260200190815260200160002081905550612aa08482612e52565b91505092915050565b60606000600167ffffffffffffffff811115612aee577f4e487b7100000000000000000000000000000000000000000000000000000000600052604160045260246000fd5b604051908082528060200260200182016040528015612b1c5781602001602082028036833780820191505090505b5090508281600081518110612b5a577f4e487b7100000000000000000000000000000000000000000000000000000000600052603260045260246000fd5b60200260200101818152505080915050919050565b612b8e8473ffffffffffffffffffffffffffffffffffffffff16612d3f565b15612d37578373ffffffffffffffffffffffffffffffffffffffff1663f23a6e6187878686866040518663ffffffff1660e01b8152600401612bd4959493929190613e7d565b602060405180830381600087803b158015612bee57600080fd5b505af1925050508015612c1f57506040513d601f19601f82011682018060405250810190612c1c919061350e565b60015b612cae57612c2b614717565b80612c365750612c73565b806040517f08c379a0000000000000000000000000000000000000000000000000000000008152600401612c6a9190614019565b60405180910390fd5b6040517f08c379a0000000000000000000000000000000000000000000000000000000008152600401612ca59061403b565b60405180910390fd5b63f23a6e6160e01b7bffffffffffffffffffffffffffffffffffffffffffffffffffffffff1916817bffffffffffffffffffffffffffffffffffffffffffffffffffffffff191614612d35576040517f08c379a0000000000000000000000000000000000000000000000000000000008152600401612d2c9061405b565b60405180910390fd5b505b505050505050565b600080823b905060008111915050919050565b60001515600b600085815260200190815260200160002060009054906101000a900460ff1615151415612df65782828281518110612db9577f4e487b7100000000000000000000000000000000000000000000000000000000600052603260045260246000fd5b6020026020010181815250506001600b600085815260200190815260200160002060006101000a81548160ff021916908315150217905550612e11565b600183612e039190614433565b9250612e10838383612d52565b5b505050565b600084848484604051602001612e2f9493929190613fd4565b6040516020818303038152906040528051906020012060001c9050949350505050565b60008282604051602001612e67929190613dce565b60405160208183030381529060405280519060200120905092915050565b5080546000825590600052602060002090810190612ea39190612f2c565b50565b828054612eb29061457d565b90600052602060002090601f016020900481019282612ed45760008555612f1b565b82601f10612eed57805160ff1916838001178555612f1b565b82800160010185558215612f1b579182015b82811115612f1a578251825591602001919060010190612eff565b5b509050612f289190612f50565b5090565b5b80821115612f4c5760008181612f439190612f6d565b50600101612f2d565b5090565b5b80821115612f69576000816000905550600101612f51565b5090565b508054612f799061457d565b6000825580601f10612f8b5750612faa565b601f016020900490600052602060002090810190612fa99190612f50565b5b50565b6000612fc0612fbb846142f0565b6142bf565b90508083825260208201905082856020860282011115612fdf57600080fd5b60005b8581101561300f5781612ff588826130c3565b845260208401935060208301925050600181019050612fe2565b5050509392505050565b600061302c6130278461431c565b6142bf565b9050808382526020820190508285602086028201111561304b57600080fd5b60005b8581101561307b578161306188826131bf565b84526020840193506020830192505060018101905061304e565b5050509392505050565b600061309861309384614348565b6142bf565b9050828152602081018484840111156130b057600080fd5b6130bb84828561453b565b509392505050565b6000813590506130d2816147cd565b92915050565b600082601f8301126130e957600080fd5b81356130f9848260208601612fad565b91505092915050565b600082601f83011261311357600080fd5b8135613123848260208601613019565b91505092915050565b60008135905061313b816147e4565b92915050565b600081519050613150816147e4565b92915050565b600081359050613165816147fb565b92915050565b60008135905061317a81614812565b92915050565b60008151905061318f81614812565b92915050565b600082601f8301126131a657600080fd5b81356131b6848260208601613085565b91505092915050565b6000813590506131ce81614829565b92915050565b6000815190506131e381614829565b92915050565b6000602082840312156131fb57600080fd5b6000613209848285016130c3565b91505092915050565b6000806040838503121561322557600080fd5b6000613233858286016130c3565b9250506020613244858286016130c3565b9150509250929050565b600080600080600060a0868803121561326657600080fd5b6000613274888289016130c3565b9550506020613285888289016130c3565b945050604086013567ffffffffffffffff8111156132a257600080fd5b6132ae88828901613102565b935050606086013567ffffffffffffffff8111156132cb57600080fd5b6132d788828901613102565b925050608086013567ffffffffffffffff8111156132f457600080fd5b61330088828901613195565b9150509295509295909350565b600080600080600060a0868803121561332557600080fd5b6000613333888289016130c3565b9550506020613344888289016130c3565b9450506040613355888289016131bf565b9350506060613366888289016131bf565b925050608086013567ffffffffffffffff81111561338357600080fd5b61338f88828901613195565b9150509295509295909350565b600080604083850312156133af57600080fd5b60006133bd858286016130c3565b92505060206133ce8582860161312c565b9150509250929050565b600080604083850312156133eb57600080fd5b60006133f9858286016130c3565b925050602061340a858286016131bf565b9150509250929050565b6000806040838503121561342757600080fd5b600083013567ffffffffffffffff81111561344157600080fd5b61344d858286016130d8565b925050602083013567ffffffffffffffff81111561346a57600080fd5b61347685828601613102565b9150509250929050565b60006020828403121561349257600080fd5b60006134a084828501613141565b91505092915050565b600080604083850312156134bc57600080fd5b60006134ca85828601613156565b92505060206134db858286016131bf565b9150509250929050565b6000602082840312156134f757600080fd5b60006135058482850161316b565b91505092915050565b60006020828403121561352057600080fd5b600061352e84828501613180565b91505092915050565b60006020828403121561354957600080fd5b6000613557848285016131bf565b91505092915050565b60006020828403121561357257600080fd5b6000613580848285016131d4565b91505092915050565b60006135958383613705565b905092915050565b60006135a98383613d99565b60208301905092915050565b6135be816144bd565b82525050565b60006135cf82614398565b6135d981856143de565b9350836020820285016135eb85614378565b8060005b8581101561362757848403895281516136088582613589565b9450613613836143c4565b925060208a019950506001810190506135ef565b50829750879550505050505092915050565b6000613644826143a3565b61364e81856143ef565b935061365983614388565b8060005b8381101561368a578151613671888261359d565b975061367c836143d1565b92505060018101905061365d565b5085935050505092915050565b6136a0816144cf565b82525050565b6136af816144db565b82525050565b6136c66136c1826144db565b6145f8565b82525050565b60006136d7826143ae565b6136e18185614400565b93506136f181856020860161454a565b6136fa816146f9565b840191505092915050565b6000613710826143b9565b61371a8185614411565b935061372a81856020860161454a565b613733816146f9565b840191505092915050565b6000613749826143b9565b6137538185614422565b935061376381856020860161454a565b61376c816146f9565b840191505092915050565b6000613784603483614422565b91507f455243313135353a207472616e7366657220746f206e6f6e204552433131353560008301527f526563656976657220696d706c656d656e7465720000000000000000000000006020830152604082019050919050565b60006137ea602883614422565b91507f455243313135353a204552433131353552656365697665722072656a6563746560008301527f6420746f6b656e730000000000000000000000000000000000000000000000006020830152604082019050919050565b6000613850601683614422565b91507f4d7573742062652070726f706f736564206f776e6572000000000000000000006000830152602082019050919050565b6000613890602b83614422565b91507f455243313135353a2062616c616e636520717565727920666f7220746865207a60008301527f65726f20616464726573730000000000000000000000000000000000000000006020830152604082019050919050565b60006138f6602983614422565b91507f455243313135353a2063616c6c6572206973206e6f74206f776e6572206e6f7260008301527f20617070726f76656400000000000000000000000000000000000000000000006020830152604082019050919050565b600061395c601683614422565b91507f4f6e6c792063616c6c61626c65206279206f776e6572000000000000000000006000830152602082019050919050565b600061399c601083614422565b91507f526f6c6c20696e2070726f6772657373000000000000000000000000000000006000830152602082019050919050565b60006139dc600f83614422565b91507f44696365206e6f7420726f6c6c656400000000000000000000000000000000006000830152602082019050919050565b6000613a1c602583614422565b91507f455243313135353a207472616e7366657220746f20746865207a65726f20616460008301527f64726573730000000000000000000000000000000000000000000000000000006020830152604082019050919050565b6000613a82603283614422565b91507f455243313135353a207472616e736665722063616c6c6572206973206e6f742060008301527f6f776e6572206e6f7220617070726f76656400000000000000000000000000006020830152604082019050919050565b6000613ae8602a83614422565b91507f455243313135353a20696e73756666696369656e742062616c616e636520666f60008301527f72207472616e73666572000000000000000000000000000000000000000000006020830152604082019050919050565b6000613b4e601f83614422565b91507f4f6e6c7920565246436f6f7264696e61746f722063616e2066756c66696c6c006000830152602082019050919050565b6000613b8e601a83614422565b91507f4e6f7420656e6f756768204c494e4b20746f20706179206665650000000000006000830152602082019050919050565b6000613bce601783614422565b91507f43616e6e6f74207472616e7366657220746f2073656c660000000000000000006000830152602082019050919050565b6000613c0e602983614422565b91507f455243313135353a2073657474696e6720617070726f76616c2073746174757360008301527f20666f722073656c6600000000000000000000000000000000000000000000006020830152604082019050919050565b6000613c74602983614422565b91507f455243313135353a206163636f756e747320616e6420696473206c656e67746860008301527f206d69736d6174636800000000000000000000000000000000000000000000006020830152604082019050919050565b6000613cda602883614422565b91507f455243313135353a2069647320616e6420616d6f756e7473206c656e6774682060008301527f6d69736d617463680000000000000000000000000000000000000000000000006020830152604082019050919050565b6000613d40602183614422565b91507f455243313135353a206d696e7420746f20746865207a65726f2061646472657360008301527f73000000000000000000000000000000000000000000000000000000000000006020830152604082019050919050565b613da281614531565b82525050565b613db181614531565b82525050565b613dc8613dc382614531565b614602565b82525050565b6000613dda82856136b5565b602082019150613dea8284613db7565b6020820191508190509392505050565b6000602082019050613e0f60008301846135b5565b92915050565b600060a082019050613e2a60008301886135b5565b613e3760208301876135b5565b8181036040830152613e498186613639565b90508181036060830152613e5d8185613639565b90508181036080830152613e7181846136cc565b90509695505050505050565b600060a082019050613e9260008301886135b5565b613e9f60208301876135b5565b613eac6040830186613da8565b613eb96060830185613da8565b8181036080830152613ecb81846136cc565b90509695505050505050565b6000606082019050613eec60008301866135b5565b613ef96020830185613da8565b8181036040830152613f0b81846136cc565b9050949350505050565b60006020820190508181036000830152613f2f81846135c4565b905092915050565b60006020820190508181036000830152613f518184613639565b905092915050565b60006040820190508181036000830152613f738185613639565b90508181036020830152613f878184613639565b90509392505050565b6000602082019050613fa56000830184613697565b92915050565b6000604082019050613fc060008301856136a6565b613fcd6020830184613da8565b9392505050565b6000608082019050613fe960008301876136a6565b613ff66020830186613da8565b61400360408301856135b5565b6140106060830184613da8565b95945050505050565b60006020820190508181036000830152614033818461373e565b905092915050565b6000602082019050818103600083015261405481613777565b9050919050565b60006020820190508181036000830152614074816137dd565b9050919050565b6000602082019050818103600083015261409481613843565b9050919050565b600060208201905081810360008301526140b481613883565b9050919050565b600060208201905081810360008301526140d4816138e9565b9050919050565b600060208201905081810360008301526140f48161394f565b9050919050565b600060208201905081810360008301526141148161398f565b9050919050565b60006020820190508181036000830152614134816139cf565b9050919050565b6000602082019050818103600083015261415481613a0f565b9050919050565b6000602082019050818103600083015261417481613a75565b9050919050565b6000602082019050818103600083015261419481613adb565b9050919050565b600060208201905081810360008301526141b481613b41565b9050919050565b600060208201905081810360008301526141d481613b81565b9050919050565b600060208201905081810360008301526141f481613bc1565b9050919050565b6000602082019050818103600083015261421481613c01565b9050919050565b6000602082019050818103600083015261423481613c67565b9050919050565b6000602082019050818103600083015261425481613ccd565b9050919050565b6000602082019050818103600083015261427481613d33565b9050919050565b60006020820190506142906000830184613da8565b92915050565b60006040820190506142ab6000830185613da8565b6142b86020830184613da8565b9392505050565b6000604051905081810181811067ffffffffffffffff821117156142e6576142e56146ca565b5b8060405250919050565b600067ffffffffffffffff82111561430b5761430a6146ca565b5b602082029050602081019050919050565b600067ffffffffffffffff821115614337576143366146ca565b5b602082029050602081019050919050565b600067ffffffffffffffff821115614363576143626146ca565b5b601f19601f8301169050602081019050919050565b6000819050602082019050919050565b6000819050602082019050919050565b600081519050919050565b600081519050919050565b600081519050919050565b600081519050919050565b6000602082019050919050565b6000602082019050919050565b600082825260208201905092915050565b600082825260208201905092915050565b600082825260208201905092915050565b600082825260208201905092915050565b600082825260208201905092915050565b600061443e82614531565b915061444983614531565b9250827fffffffffffffffffffffffffffffffffffffffffffffffffffffffffffffffff0382111561447e5761447d61463d565b5b828201905092915050565b600061449482614531565b915061449f83614531565b9250828210156144b2576144b161463d565b5b828203905092915050565b60006144c882614511565b9050919050565b60008115159050919050565b6000819050919050565b60007fffffffff0000000000000000000000000000000000000000000000000000000082169050919050565b600073ffffffffffffffffffffffffffffffffffffffff82169050919050565b6000819050919050565b82818337600083830152505050565b60005b8381101561456857808201518184015260208101905061454d565b83811115614577576000848401525b50505050565b6000600282049050600182168061459557607f821691505b602082108114156145a9576145a861469b565b5b50919050565b60006145ba82614531565b91507fffffffffffffffffffffffffffffffffffffffffffffffffffffffffffffffff8214156145ed576145ec61463d565b5b600182019050919050565b6000819050919050565b6000819050919050565b600061461782614531565b915061462283614531565b9250826146325761463161466c565b5b828206905092915050565b7f4e487b7100000000000000000000000000000000000000000000000000000000600052601160045260246000fd5b7f4e487b7100000000000000000000000000000000000000000000000000000000600052601260045260246000fd5b7f4e487b7100000000000000000000000000000000000000000000000000000000600052602260045260246000fd5b7f4e487b7100000000000000000000000000000000000000000000000000000000600052604160045260246000fd5b6000601f19601f8301169050919050565b60008160e01c9050919050565b600060443d1015614727576147ca565b60046000803e61473860005161470a565b6308c379a0811461474957506147ca565b60405160043d036004823e80513d602482011167ffffffffffffffff82111715614775575050506147ca565b808201805167ffffffffffffffff8111156147945750505050506147ca565b8060208301013d85018111156147af575050505050506147ca565b6147b8826146f9565b60208401016040528296505050505050505b90565b6147d6816144bd565b81146147e157600080fd5b50565b6147ed816144cf565b81146147f857600080fd5b50565b614804816144db565b811461480f57600080fd5b50565b61481b816144e5565b811461482657600080fd5b50565b61483281614531565b811461483d57600080fd5b5056fea26469706673582212203e40d23069689eb99023dc137542b51fd961e984a1c91222e9e16c8258709d0264736f6c6343000800003368747470733a2f2f67616d652e6578616d706c652f6170692f6974656d2f7b69647d2e6a736f6e",
	"linkReferences": {},
	"deployedLinkReferences": {}
}