{
	"_format": "hh-sol-artifact-1",
	"contractName": "packPlayers",
	"sourceName": "contracts/PackPlayers.sol",
	"abi": [
		{
			"inputs": [],
			"stateMutability": "nonpayable",
			"type": "constructor"
		},
		{
			"anonymous": false,
			"inputs": [
				{
					"indexed": true,
					"internalType": "address",
					"name": "account",
					"type": "address"
				},
				{
					"indexed": true,
					"internalType": "address",
					"name": "operator",
					"type": "address"
				},
				{
					"indexed": false,
					"internalType": "bool",
					"name": "approved",
					"type": "bool"
				}
			],
			"name": "ApprovalForAll",
			"type": "event"
		},
		{
			"anonymous": false,
			"inputs": [
				{
					"indexed": true,
					"internalType": "bytes32",
					"name": "requestId",
					"type": "bytes32"
				},
				{
					"indexed": true,
					"internalType": "uint256",
					"name": "result",
					"type": "uint256"
				}
			],
			"name": "DiceLanded",
			"type": "event"
		},
		{
			"anonymous": false,
			"inputs": [
				{
					"indexed": true,
					"internalType": "bytes32",
					"name": "requestId",
					"type": "bytes32"
				},
				{
					"indexed": true,
					"internalType": "address",
					"name": "roller",
					"type": "address"
				}
			],
			"name": "DiceRolled",
			"type": "event"
		},
		{
			"anonymous": false,
			"inputs": [
				{
					"indexed": true,
					"internalType": "address",
					"name": "from",
					"type": "address"
				},
				{
					"indexed": true,
					"internalType": "address",
					"name": "to",
					"type": "address"
				}
			],
			"name": "OwnershipTransferRequested",
			"type": "event"
		},
		{
			"anonymous": false,
			"inputs": [
				{
					"indexed": true,
					"internalType": "address",
					"name": "from",
					"type": "address"
				},
				{
					"indexed": true,
					"internalType": "address",
					"name": "to",
					"type": "address"
				}
			],
			"name": "OwnershipTransferred",
			"type": "event"
		},
		{
			"anonymous": false,
			"inputs": [
				{
					"indexed": false,
					"internalType": "address",
					"name": "owner",
					"type": "address"
				}
			],
			"name": "Packed",
			"type": "event"
		},
		{
			"anonymous": false,
			"inputs": [
				{
					"indexed": true,
					"internalType": "address",
					"name": "operator",
					"type": "address"
				},
				{
					"indexed": true,
					"internalType": "address",
					"name": "from",
					"type": "address"
				},
				{
					"indexed": true,
					"internalType": "address",
					"name": "to",
					"type": "address"
				},
				{
					"indexed": false,
					"internalType": "uint256[]",
					"name": "ids",
					"type": "uint256[]"
				},
				{
					"indexed": false,
					"internalType": "uint256[]",
					"name": "values",
					"type": "uint256[]"
				}
			],
			"name": "TransferBatch",
			"type": "event"
		},
		{
			"anonymous": false,
			"inputs": [
				{
					"indexed": true,
					"internalType": "address",
					"name": "operator",
					"type": "address"
				},
				{
					"indexed": true,
					"internalType": "address",
					"name": "from",
					"type": "address"
				},
				{
					"indexed": true,
					"internalType": "address",
					"name": "to",
					"type": "address"
				},
				{
					"indexed": false,
					"internalType": "uint256",
					"name": "id",
					"type": "uint256"
				},
				{
					"indexed": false,
					"internalType": "uint256",
					"name": "value",
					"type": "uint256"
				}
			],
			"name": "TransferSingle",
			"type": "event"
		},
		{
			"anonymous": false,
			"inputs": [
				{
					"indexed": false,
					"internalType": "string",
					"name": "value",
					"type": "string"
				},
				{
					"indexed": true,
					"internalType": "uint256",
					"name": "id",
					"type": "uint256"
				}
			],
			"name": "URI",
			"type": "event"
		},
		{
			"inputs": [],
			"name": "acceptOwnership",
			"outputs": [],
			"stateMutability": "nonpayable",
			"type": "function"
		},
		{
			"inputs": [
				{
					"internalType": "address",
					"name": "account",
					"type": "address"
				},
				{
					"internalType": "uint256",
					"name": "id",
					"type": "uint256"
				}
			],
			"name": "balanceOf",
			"outputs": [
				{
					"internalType": "uint256",
					"name": "",
					"type": "uint256"
				}
			],
			"stateMutability": "view",
			"type": "function"
		},
		{
			"inputs": [
				{
					"internalType": "address[]",
					"name": "accounts",
					"type": "address[]"
				},
				{
					"internalType": "uint256[]",
					"name": "ids",
					"type": "uint256[]"
				}
			],
			"name": "balanceOfBatch",
			"outputs": [
				{
					"internalType": "uint256[]",
					"name": "",
					"type": "uint256[]"
				}
			],
			"stateMutability": "view",
			"type": "function"
		},
		{
			"inputs": [
				{
					"internalType": "address",
					"name": "",
					"type": "address"
				},
				{
					"internalType": "uint256",
					"name": "",
					"type": "uint256"
				}
			],
			"name": "balances",
			"outputs": [
				{
					"internalType": "uint256",
					"name": "",
					"type": "uint256"
				}
			],
			"stateMutability": "view",
			"type": "function"
		},
		{
			"inputs": [
				{
					"internalType": "address",
					"name": "roller",
					"type": "address"
				}
			],
			"name": "buy",
			"outputs": [],
			"stateMutability": "payable",
			"type": "function"
		},
		{
			"inputs": [
				{
					"internalType": "address",
					"name": "owner",
					"type": "address"
				}
			],
			"name": "clearPackedPlayers",
			"outputs": [],
			"stateMutability": "nonpayable",
			"type": "function"
		},
		{
			"inputs": [
				{
					"internalType": "uint256",
					"name": "id",
					"type": "uint256"
				}
			],
			"name": "getIDToPlayer",
			"outputs": [
				{
					"internalType": "string",
					"name": "",
					"type": "string"
				}
			],
			"stateMutability": "view",
			"type": "function"
		},
		{
			"inputs": [
				{
					"internalType": "string",
					"name": "guy",
					"type": "string"
				}
			],
			"name": "getPlayerToID",
			"outputs": [
				{
					"internalType": "uint256",
					"name": "",
					"type": "uint256"
				}
			],
			"stateMutability": "view",
			"type": "function"
		},
		{
			"inputs": [
				{
					"internalType": "address",
					"name": "owner",
					"type": "address"
				}
			],
			"name": "getPlayers",
			"outputs": [
				{
					"internalType": "string[]",
					"name": "",
					"type": "string[]"
				}
			],
			"stateMutability": "view",
			"type": "function"
		},
		{
			"inputs": [
				{
					"internalType": "address",
					"name": "",
					"type": "address"
				},
				{
					"internalType": "uint256",
					"name": "",
					"type": "uint256"
				}
			],
			"name": "holdings",
			"outputs": [
				{
					"internalType": "string",
					"name": "",
					"type": "string"
				}
			],
			"stateMutability": "view",
			"type": "function"
		},
		{
			"inputs": [
				{
					"internalType": "address",
					"name": "account",
					"type": "address"
				},
				{
					"internalType": "address",
					"name": "operator",
					"type": "address"
				}
			],
			"name": "isApprovedForAll",
			"outputs": [
				{
					"internalType": "bool",
					"name": "",
					"type": "bool"
				}
			],
			"stateMutability": "view",
			"type": "function"
		},
		{
			"inputs": [],
			"name": "owner",
			"outputs": [
				{
					"internalType": "address",
					"name": "",
					"type": "address"
				}
			],
			"stateMutability": "view",
			"type": "function"
		},
		{
			"inputs": [
				{
					"internalType": "address",
					"name": "owner",
					"type": "address"
				}
			],
			"name": "player",
			"outputs": [
				{
					"internalType": "string[]",
					"name": "",
					"type": "string[]"
				}
			],
			"stateMutability": "nonpayable",
			"type": "function"
		},
		{
			"inputs": [
				{
					"internalType": "bytes32",
					"name": "requestId",
					"type": "bytes32"
				},
				{
					"internalType": "uint256",
					"name": "randomness",
					"type": "uint256"
				}
			],
			"name": "rawFulfillRandomness",
			"outputs": [],
			"stateMutability": "nonpayable",
			"type": "function"
		},
		{
			"inputs": [
				{
					"internalType": "address",
					"name": "from",
					"type": "address"
				},
				{
					"internalType": "address",
					"name": "to",
					"type": "address"
				},
				{
					"internalType": "uint256[]",
					"name": "ids",
					"type": "uint256[]"
				},
				{
					"internalType": "uint256[]",
					"name": "amounts",
					"type": "uint256[]"
				},
				{
					"internalType": "bytes",
					"name": "data",
					"type": "bytes"
				}
			],
			"name": "safeBatchTransferFrom",
			"outputs": [],
			"stateMutability": "nonpayable",
			"type": "function"
		},
		{
			"inputs": [
				{
					"internalType": "address",
					"name": "from",
					"type": "address"
				},
				{
					"internalType": "address",
					"name": "to",
					"type": "address"
				},
				{
					"internalType": "uint256",
					"name": "id",
					"type": "uint256"
				},
				{
					"internalType": "uint256",
					"name": "amount",
					"type": "uint256"
				},
				{
					"internalType": "bytes",
					"name": "data",
					"type": "bytes"
				}
			],
			"name": "safeTransferFrom",
			"outputs": [],
			"stateMutability": "nonpayable",
			"type": "function"
		},
		{
			"inputs": [
				{
					"internalType": "address",
					"name": "operator",
					"type": "address"
				},
				{
					"internalType": "bool",
					"name": "approved",
					"type": "bool"
				}
			],
			"name": "setApprovalForAll",
			"outputs": [],
			"stateMutability": "nonpayable",
			"type": "function"
		},
		{
			"inputs": [
				{
					"internalType": "bytes4",
					"name": "interfaceId",
					"type": "bytes4"
				}
			],
			"name": "supportsInterface",
			"outputs": [
				{
					"internalType": "bool",
					"name": "",
					"type": "bool"
				}
			],
			"stateMutability": "view",
			"type": "function"
		},
		{
			"inputs": [
				{
					"internalType": "address",
					"name": "to",
					"type": "address"
				}
			],
			"name": "transferOwnership",
			"outputs": [],
			"stateMutability": "nonpayable",
			"type": "function"
		},
		{
			"inputs": [
				{
					"internalType": "uint256",
					"name": "",
					"type": "uint256"
				}
			],
			"name": "uri",
			"outputs": [
				{
					"internalType": "string",
					"name": "",
					"type": "string"
				}
			],
			"stateMutability": "view",
			"type": "function"
		},
		{
			"inputs": [],
			"name": "value",
			"outputs": [
				{
					"internalType": "uint256",
					"name": "",
					"type": "uint256"
				}
			],
			"stateMutability": "view",
			"type": "function"
		}
	],
	"bytecode": "0x60c06040526040518061028001604052806040518060400160405280600c81526020017f4c6542726f6e204a616d6573000000000000000000000000000000000000000081525081526020016040518060400160405280600c81526020017f4b6576696e20447572616e74000000000000000000000000000000000000000081525081526020016040518060400160405280600d81526020017f4b61776869204c656f6e6172640000000000000000000000000000000000000081525081526020016040518060400160405280600b81526020017f42656e2053696d6d6f6e7300000000000000000000000000000000000000000081525081526020016040518060400160405280600e81526020017f416c706572656e2053656e67756e00000000000000000000000000000000000081525081526020016040518060400160405280600b81526020017f4a6f656c20456d6269696400000000000000000000000000000000000000000081525081526020016040518060400160405280600c81526020017f547972657365204d61786579000000000000000000000000000000000000000081525081526020016040518060400160405280600a81526020017f4c6f6e7a6f2042616c6c0000000000000000000000000000000000000000000081525081526020016040518060400160405280600b81526020017f4c614d656c6f2042616c6c00000000000000000000000000000000000000000081525081526020016040518060400160405280600c81526020017f4a616d65732048617264656e000000000000000000000000000000000000000081525081526020016040518060400160405280601181526020017f5479726573652048616c69627572746f6e00000000000000000000000000000081525081526020016040518060400160405280601381526020017f526f626572742057696c6c69616d73204949490000000000000000000000000081525081526020016040518060400160405280601081526020017f4b6576696e20506f72746572204a722e0000000000000000000000000000000081525081526020016040518060400160405280601181526020017f4a6172656e204a61636b736f6e204a722e00000000000000000000000000000081525081526020016040518060400160405280600b81526020017f4576616e204d6f626c657900000000000000000000000000000000000000000081525081526020016040518060400160405280600f81526020017f436164652043756e6e696e6768616d000000000000000000000000000000000081525081526020016040518060400160405280600b81526020017f4a616c656e20477265656e00000000000000000000000000000000000000000081525081526020016040518060400160405280600e81526020017f53636f74746965204261726e657300000000000000000000000000000000000081525081526020016040518060400160405280600f81526020017f416e74686f6e792045647761726473000000000000000000000000000000000081525081526020016040518060400160405280600b81526020017f4a616c656e205375676773000000000000000000000000000000000000000000815250815250600e906014620004bc92919062000933565b50348015620004ca57600080fd5b503380600073dd3782915140c8f3b190b5d67eac6dc5760c46e973a36085f69e2889c224210f603d836748e7dc00886040518060600160405280602781526020016200592f602791396200052481620007e560201b60201c565b508173ffffffffffffffffffffffffffffffffffffffff1660a08173ffffffffffffffffffffffffffffffffffffffff1660601b815250508073ffffffffffffffffffffffffffffffffffffffff1660808173ffffffffffffffffffffffffffffffffffffffff1660601b815250505050600073ffffffffffffffffffffffffffffffffffffffff168273ffffffffffffffffffffffffffffffffffffffff16141562000608576040517f08c379a0000000000000000000000000000000000000000000000000000000008152600401620005ff9062000c6b565b60405180910390fd5b81600460006101000a81548173ffffffffffffffffffffffffffffffffffffffff021916908373ffffffffffffffffffffffffffffffffffffffff160217905550600073ffffffffffffffffffffffffffffffffffffffff168173ffffffffffffffffffffffffffffffffffffffff161462000690576200068f816200080160201b60201c565b5b50505060005b60148110156200071657806022600e8360148110620006de577f4e487b7100000000000000000000000000000000000000000000000000000000600052603260045260246000fd5b01604051620006ee919062000c52565b90815260200160405180910390208190555080806200070d9062000d20565b91505062000696565b5060005b6014811015620007a557600e81601481106200075f577f4e487b7100000000000000000000000000000000000000000000000000000000600052603260045260246000fd5b0160236000838152602001908152602001600020908054620007819062000cea565b6200078e9291906200098d565b5080806200079c9062000d20565b9150506200071a565b507f6c3699283bda56ad74f6b855546325b68d482e983852a7a82979cc4807b641f460001b60068190555067016345785d8a000060078190555062000dcc565b8060029080519060200190620007fd92919062000a25565b5050565b3373ffffffffffffffffffffffffffffffffffffffff168173ffffffffffffffffffffffffffffffffffffffff16141562000873576040517f08c379a00000000000000000000000000000000000000000000000000000000081526004016200086a9062000c8d565b60405180910390fd5b80600560006101000a81548173ffffffffffffffffffffffffffffffffffffffff021916908373ffffffffffffffffffffffffffffffffffffffff1602179055508073ffffffffffffffffffffffffffffffffffffffff16600460009054906101000a900473ffffffffffffffffffffffffffffffffffffffff1673ffffffffffffffffffffffffffffffffffffffff167fed8889f560326eb138920d842192f0eb3dd22b4f139c87a2c57538e05bae127860405160405180910390a350565b82601481019282156200097a579160200282015b82811115620009795782518290805190602001906200096892919062000a25565b509160200191906001019062000947565b5b50905062000989919062000ab6565b5090565b8280546200099b9062000cea565b90600052602060002090601f016020900481019282620009bf576000855562000a12565b82601f10620009d2578054855562000a12565b8280016001018555821562000a1257600052602060002091601f016020900482015b8281111562000a11578254825591600101919060010190620009f4565b5b50905062000a21919062000ade565b5090565b82805462000a339062000cea565b90600052602060002090601f01602090048101928262000a57576000855562000aa3565b82601f1062000a7257805160ff191683800117855562000aa3565b8280016001018555821562000aa3579182015b8281111562000aa257825182559160200191906001019062000a85565b5b50905062000ab2919062000ade565b5090565b5b8082111562000ada576000818162000ad0919062000afd565b5060010162000ab7565b5090565b5b8082111562000af957600081600090555060010162000adf565b5090565b50805462000b0b9062000cea565b6000825580601f1062000b1f575062000b40565b601f01602090049060005260206000209081019062000b3f919062000ade565b5b50565b6000815462000b528162000cea565b62000b5e818662000cd5565b9450600182166000811462000b7c576001811462000b8e5762000bc5565b60ff1983168652818601935062000bc5565b62000b998562000caf565b60005b8381101562000bbd5781548189015260018201915060208101905062000b9c565b838801955050505b50505092915050565b600062000bdd60188362000cc4565b91507f43616e6e6f7420736574206f776e657220746f207a65726f00000000000000006000830152602082019050919050565b600062000c1f60178362000cc4565b91507f43616e6e6f74207472616e7366657220746f2073656c660000000000000000006000830152602082019050919050565b600062000c60828462000b43565b915081905092915050565b6000602082019050818103600083015262000c868162000bce565b9050919050565b6000602082019050818103600083015262000ca88162000c10565b9050919050565b60008190508160005260206000209050919050565b600082825260208201905092915050565b600081905092915050565b6000819050919050565b6000600282049050600182168062000d0357607f821691505b6020821081141562000d1a5762000d1962000d9d565b5b50919050565b600062000d2d8262000ce0565b91507fffffffffffffffffffffffffffffffffffffffffffffffffffffffffffffffff82141562000d635762000d6262000d6e565b5b600182019050919050565b7f4e487b7100000000000000000000000000000000000000000000000000000000600052601160045260246000fd5b7f4e487b7100000000000000000000000000000000000000000000000000000000600052602260045260246000fd5b60805160601c60a05160601c614b2962000e0660003960008181610fed0152612b420152600081816120960152612b060152614b296000f3fe6080604052600436106101295760003560e01c806379ba5097116100ab578063a22cb4651161006f578063a22cb4651461043b578063cbf1304d14610464578063e985e9c5146104a1578063f088d547146104de578063f242432a146104fa578063f2fde38b1461052357610129565b806379ba5097146103565780637a80b6b41461036d5780638da5cb5b146103aa57806391b46a91146103d557806394985ddd1461041257610129565b80634c54e1b5116100f25780634c54e1b5146102395780634e1273f41461027657806356dbf7ae146102b35780635d858fa6146102dc57806375aedf2b1461031957610129565b8062fdd58e1461012e57806301ffc9a71461016b5780630e89341c146101a85780632eb2c2d6146101e55780633fa4f2451461020e575b600080fd5b34801561013a57600080fd5b50610155600480360381019061015091906135fb565b61054c565b6040516101629190614527565b60405180910390f35b34801561017757600080fd5b50610192600480360381019061018d9190613708565b610615565b60405161019f919061423c565b60405180910390f35b3480156101b457600080fd5b506101cf60048036038101906101ca919061379b565b6106f7565b6040516101dc91906142c5565b60405180910390f35b3480156101f157600080fd5b5061020c60048036038101906102079190613471565b61078b565b005b34801561021a57600080fd5b5061022361082c565b6040516102309190614527565b60405180910390f35b34801561024557600080fd5b50610260600480360381019061025b919061340c565b610832565b60405161026d91906141c1565b60405180910390f35b34801561028257600080fd5b5061029d60048036038101906102989190613637565b61098d565b6040516102aa91906141e3565b60405180910390f35b3480156102bf57600080fd5b506102da60048036038101906102d5919061340c565b610b3e565b005b3480156102e857600080fd5b5061030360048036038101906102fe919061375a565b610b8c565b6040516103109190614527565b60405180910390f35b34801561032557600080fd5b50610340600480360381019061033b919061379b565b610bb4565b60405161034d91906142c5565b60405180910390f35b34801561036257600080fd5b5061036b610c59565b005b34801561037957600080fd5b50610394600480360381019061038f919061340c565b610df0565b6040516103a191906141c1565b60405180910390f35b3480156103b657600080fd5b506103bf610f08565b6040516103cc91906140a6565b60405180910390f35b3480156103e157600080fd5b506103fc60048036038101906103f791906135fb565b610f32565b60405161040991906142c5565b60405180910390f35b34801561041e57600080fd5b50610439600480360381019061043491906136cc565b610feb565b005b34801561044757600080fd5b50610462600480360381019061045d91906135bf565b611087565b005b34801561047057600080fd5b5061048b600480360381019061048691906135fb565b61109d565b6040516104989190614527565b60405180910390f35b3480156104ad57600080fd5b506104c860048036038101906104c39190613435565b6110c2565b6040516104d5919061423c565b60405180910390f35b6104f860048036038101906104f3919061340c565b611156565b005b34801561050657600080fd5b50610521600480360381019061051c9190613530565b61116a565b005b34801561052f57600080fd5b5061054a6004803603810190610545919061340c565b61120b565b005b60008073ffffffffffffffffffffffffffffffffffffffff168373ffffffffffffffffffffffffffffffffffffffff1614156105bd576040517f08c379a00000000000000000000000000000000000000000000000000000000081526004016105b490614347565b60405180910390fd5b60008083815260200190815260200160002060008473ffffffffffffffffffffffffffffffffffffffff1673ffffffffffffffffffffffffffffffffffffffff16815260200190815260200160002054905092915050565b60007fd9b67a26000000000000000000000000000000000000000000000000000000007bffffffffffffffffffffffffffffffffffffffffffffffffffffffff1916827bffffffffffffffffffffffffffffffffffffffffffffffffffffffff191614806106e057507f0e89341c000000000000000000000000000000000000000000000000000000007bffffffffffffffffffffffffffffffffffffffffffffffffffffffff1916827bffffffffffffffffffffffffffffffffffffffffffffffffffffffff1916145b806106f057506106ef8261121f565b5b9050919050565b60606002805461070690614830565b80601f016020809104026020016040519081016040528092919081815260200182805461073290614830565b801561077f5780601f106107545761010080835404028352916020019161077f565b820191906000526020600020905b81548152906001019060200180831161076257829003601f168201915b50505050509050919050565b610793611289565b73ffffffffffffffffffffffffffffffffffffffff168573ffffffffffffffffffffffffffffffffffffffff1614806107d957506107d8856107d3611289565b6110c2565b5b610818576040517f08c379a000000000000000000000000000000000000000000000000000000000815260040161080f90614407565b60405180910390fd5b6108258585858585611291565b5050505050565b600d5481565b60606000600960008473ffffffffffffffffffffffffffffffffffffffff1673ffffffffffffffffffffffffffffffffffffffff1681526020019081526020016000205414156108b7576040517f08c379a00000000000000000000000000000000000000000000000000000000081526004016108ae906143c7565b60405180910390fd5b63499602d2600960008473ffffffffffffffffffffffffffffffffffffffff1673ffffffffffffffffffffffffffffffffffffffff16815260200190815260200160002054141561093d576040517f08c379a0000000000000000000000000000000000000000000000000000000008152600401610934906143a7565b60405180910390fd5b610986600960008473ffffffffffffffffffffffffffffffffffffffff1673ffffffffffffffffffffffffffffffffffffffff16815260200190815260200160002054836115f1565b9050919050565b606081518351146109d3576040517f08c379a00000000000000000000000000000000000000000000000000000000081526004016109ca906144c7565b60405180910390fd5b6000835167ffffffffffffffff811115610a16577f4e487b7100000000000000000000000000000000000000000000000000000000600052604160045260246000fd5b604051908082528060200260200182016040528015610a445781602001602082028036833780820191505090505b50905060005b8451811015610b3357610add858281518110610a8f577f4e487b7100000000000000000000000000000000000000000000000000000000600052603260045260246000fd5b6020026020010151858381518110610ad0577f4e487b7100000000000000000000000000000000000000000000000000000000600052603260045260246000fd5b602002602001015161054c565b828281518110610b16577f4e487b7100000000000000000000000000000000000000000000000000000000600052603260045260246000fd5b60200260200101818152505080610b2c90614862565b9050610a4a565b508091505092915050565b600a60008273ffffffffffffffffffffffffffffffffffffffff1673ffffffffffffffffffffffffffffffffffffffff1681526020019081526020016000206000610b899190613040565b50565b6000602282604051610b9e919061408f565b9081526020016040518091039020549050919050565b6060602360008381526020019081526020016000208054610bd490614830565b80601f0160208091040260200160405190810160405280929190818152602001828054610c0090614830565b8015610c4d5780601f10610c2257610100808354040283529160200191610c4d565b820191906000526020600020905b815481529060010190602001808311610c3057829003601f168201915b50505050509050919050565b600560009054906101000a900473ffffffffffffffffffffffffffffffffffffffff1673ffffffffffffffffffffffffffffffffffffffff163373ffffffffffffffffffffffffffffffffffffffff1614610ce9576040517f08c379a0000000000000000000000000000000000000000000000000000000008152600401610ce090614327565b60405180910390fd5b6000600460009054906101000a900473ffffffffffffffffffffffffffffffffffffffff16905033600460006101000a81548173ffffffffffffffffffffffffffffffffffffffff021916908373ffffffffffffffffffffffffffffffffffffffff1602179055506000600560006101000a81548173ffffffffffffffffffffffffffffffffffffffff021916908373ffffffffffffffffffffffffffffffffffffffff1602179055503373ffffffffffffffffffffffffffffffffffffffff168173ffffffffffffffffffffffffffffffffffffffff167f8be0079c531659141344cd1fd0a4f28419497f9722a3daafe3b4186f6b6457e060405160405180910390a350565b6060600a60008373ffffffffffffffffffffffffffffffffffffffff1673ffffffffffffffffffffffffffffffffffffffff168152602001908152602001600020805480602002602001604051908101604052809291908181526020016000905b82821015610efd578382906000526020600020018054610e7090614830565b80601f0160208091040260200160405190810160405280929190818152602001828054610e9c90614830565b8015610ee95780601f10610ebe57610100808354040283529160200191610ee9565b820191906000526020600020905b815481529060010190602001808311610ecc57829003601f168201915b505050505081526020019060010190610e51565b505050509050919050565b6000600460009054906101000a900473ffffffffffffffffffffffffffffffffffffffff16905090565b600a6020528160005260406000208181548110610f4e57600080fd5b90600052602060002001600091509150508054610f6a90614830565b80601f0160208091040260200160405190810160405280929190818152602001828054610f9690614830565b8015610fe35780601f10610fb857610100808354040283529160200191610fe3565b820191906000526020600020905b815481529060010190602001808311610fc657829003601f168201915b505050505081565b7f000000000000000000000000000000000000000000000000000000000000000073ffffffffffffffffffffffffffffffffffffffff163373ffffffffffffffffffffffffffffffffffffffff1614611079576040517f08c379a000000000000000000000000000000000000000000000000000000000815260040161107090614447565b60405180910390fd5b6110838282611e5f565b5050565b611099611092611289565b8383611f1a565b5050565b600b602052816000526040600020602052806000526040600020600091509150505481565b6000600160008473ffffffffffffffffffffffffffffffffffffffff1673ffffffffffffffffffffffffffffffffffffffff16815260200190815260200160002060008373ffffffffffffffffffffffffffffffffffffffff1673ffffffffffffffffffffffffffffffffffffffff16815260200190815260200160002060009054906101000a900460ff16905092915050565b34600d8190555061116681612087565b5050565b611172611289565b73ffffffffffffffffffffffffffffffffffffffff168573ffffffffffffffffffffffffffffffffffffffff1614806111b857506111b7856111b2611289565b6110c2565b5b6111f7576040517f08c379a00000000000000000000000000000000000000000000000000000000081526004016111ee90614367565b60405180910390fd5b6112048585858585612271565b5050505050565b6112136124f3565b61121c81612585565b50565b60007f01ffc9a7000000000000000000000000000000000000000000000000000000007bffffffffffffffffffffffffffffffffffffffffffffffffffffffff1916827bffffffffffffffffffffffffffffffffffffffffffffffffffffffff1916149050919050565b600033905090565b81518351146112d5576040517f08c379a00000000000000000000000000000000000000000000000000000000081526004016112cc906144e7565b60405180910390fd5b600073ffffffffffffffffffffffffffffffffffffffff168473ffffffffffffffffffffffffffffffffffffffff161415611345576040517f08c379a000000000000000000000000000000000000000000000000000000000815260040161133c906143e7565b60405180910390fd5b600061134f611289565b905061135f8187878787876126b4565b60005b845181101561155c5760008582815181106113a6577f4e487b7100000000000000000000000000000000000000000000000000000000600052603260045260246000fd5b6020026020010151905060008583815181106113eb577f4e487b7100000000000000000000000000000000000000000000000000000000600052603260045260246000fd5b60200260200101519050600080600084815260200190815260200160002060008b73ffffffffffffffffffffffffffffffffffffffff1673ffffffffffffffffffffffffffffffffffffffff1681526020019081526020016000205490508181101561148c576040517f08c379a000000000000000000000000000000000000000000000000000000000815260040161148390614427565b60405180910390fd5b81810360008085815260200190815260200160002060008c73ffffffffffffffffffffffffffffffffffffffff1673ffffffffffffffffffffffffffffffffffffffff168152602001908152602001600020819055508160008085815260200190815260200160002060008b73ffffffffffffffffffffffffffffffffffffffff1673ffffffffffffffffffffffffffffffffffffffff1681526020019081526020016000206000828254611541919061471a565b925050819055505050508061155590614862565b9050611362565b508473ffffffffffffffffffffffffffffffffffffffff168673ffffffffffffffffffffffffffffffffffffffff168273ffffffffffffffffffffffffffffffffffffffff167f4a39dc06d4c0dbc64b70af90fd698a233a518aa5d07e595d983b8c0526c8f7fb87876040516115d3929190614205565b60405180910390a46115e98187878787876126bc565b505050505050565b606060006040518061028001604052806040518060400160405280600c81526020017f4c6542726f6e204a616d6573000000000000000000000000000000000000000081525081526020016040518060400160405280600c81526020017f4b6576696e20447572616e74000000000000000000000000000000000000000081525081526020016040518060400160405280600d81526020017f4b61776869204c656f6e6172640000000000000000000000000000000000000081525081526020016040518060400160405280600b81526020017f42656e2053696d6d6f6e7300000000000000000000000000000000000000000081525081526020016040518060400160405280600e81526020017f416c706572656e2053656e67756e00000000000000000000000000000000000081525081526020016040518060400160405280600b81526020017f4a6f656c20456d6269696400000000000000000000000000000000000000000081525081526020016040518060400160405280600c81526020017f547972657365204d61786579000000000000000000000000000000000000000081525081526020016040518060400160405280600a81526020017f4c6f6e7a6f2042616c6c0000000000000000000000000000000000000000000081525081526020016040518060400160405280600b81526020017f4c614d656c6f2042616c6c00000000000000000000000000000000000000000081525081526020016040518060400160405280600c81526020017f4a616d65732048617264656e000000000000000000000000000000000000000081525081526020016040518060400160405280601181526020017f5479726573652048616c69627572746f6e00000000000000000000000000000081525081526020016040518060400160405280601381526020017f526f626572742057696c6c69616d73204949490000000000000000000000000081525081526020016040518060400160405280601081526020017f4b6576696e20506f72746572204a722e0000000000000000000000000000000081525081526020016040518060400160405280601181526020017f4a6172656e204a61636b736f6e204a722e00000000000000000000000000000081525081526020016040518060400160405280600b81526020017f4576616e204d6f626c657900000000000000000000000000000000000000000081525081526020016040518060400160405280600f81526020017f436164652043756e6e696e6768616d000000000000000000000000000000000081525081526020016040518060400160405280600b81526020017f4a616c656e20477265656e00000000000000000000000000000000000000000081525081526020016040518060400160405280600e81526020017f53636f74746965204261726e657300000000000000000000000000000000000081525081526020016040518060400160405280600f81526020017f416e74686f6e792045647761726473000000000000000000000000000000000081525081526020016040518060400160405280600b81526020017f4a616c656e20537567677300000000000000000000000000000000000000000081525081525090506000611aaa85600561288c565b905060005b8151811015611d0e57600a60008673ffffffffffffffffffffffffffffffffffffffff1673ffffffffffffffffffffffffffffffffffffffff16815260200190815260200160002083838381518110611b31577f4e487b7100000000000000000000000000000000000000000000000000000000600052603260045260246000fd5b602002602001015160148110611b70577f4e487b7100000000000000000000000000000000000000000000000000000000600052603260045260246000fd5b6020020151908060018154018082558091505060019003906000526020600020016000909190919091509080519060200190611bad929190613061565b50611c0a33838381518110611beb577f4e487b7100000000000000000000000000000000000000000000000000000000600052603260045260246000fd5b602002602001015160016040518060200160405280600081525061296c565b6001600b60008773ffffffffffffffffffffffffffffffffffffffff1673ffffffffffffffffffffffffffffffffffffffff1681526020019081526020016000206000602286868681518110611c89577f4e487b7100000000000000000000000000000000000000000000000000000000600052603260045260246000fd5b602002602001015160148110611cc8577f4e487b7100000000000000000000000000000000000000000000000000000000600052603260045260246000fd5b6020020151604051611cda919061408f565b9081526020016040518091039020548152602001908152602001600020819055508080611d0690614862565b915050611aaf565b507fa340c216784d506dea61b22b7290b63d4aabbec0d7132930e22fcbc94153d2f784604051611d3e91906140a6565b60405180910390a1600a60008573ffffffffffffffffffffffffffffffffffffffff1673ffffffffffffffffffffffffffffffffffffffff168152602001908152602001600020805480602002602001604051908101604052809291908181526020016000905b82821015611e51578382906000526020600020018054611dc490614830565b80601f0160208091040260200160405190810160405280929190818152602001828054611df090614830565b8015611e3d5780601f10611e1257610100808354040283529160200191611e3d565b820191906000526020600020905b815481529060010190602001808311611e2057829003601f168201915b505050505081526020019060010190611da5565b505050509250505092915050565b6000601482611e6e91906148bf565b905080600960006008600087815260200190815260200160002060009054906101000a900473ffffffffffffffffffffffffffffffffffffffff1673ffffffffffffffffffffffffffffffffffffffff1673ffffffffffffffffffffffffffffffffffffffff1681526020019081526020016000208190555080837f909dd726737b7ffa4ae9d137e9edebe8a74a9c2910a4b60e8112f93ab217083760405160405180910390a3505050565b8173ffffffffffffffffffffffffffffffffffffffff168373ffffffffffffffffffffffffffffffffffffffff161415611f89576040517f08c379a0000000000000000000000000000000000000000000000000000000008152600401611f80906144a7565b60405180910390fd5b80600160008573ffffffffffffffffffffffffffffffffffffffff1673ffffffffffffffffffffffffffffffffffffffff16815260200190815260200160002060008473ffffffffffffffffffffffffffffffffffffffff1673ffffffffffffffffffffffffffffffffffffffff16815260200190815260200160002060006101000a81548160ff0219169083151502179055508173ffffffffffffffffffffffffffffffffffffffff168373ffffffffffffffffffffffffffffffffffffffff167f17307eab39ab6107e8899845ad3d59bd9653f200f220920489ca2b5937696c318360405161207a919061423c565b60405180910390a3505050565b60006120916124f3565b6007547f000000000000000000000000000000000000000000000000000000000000000073ffffffffffffffffffffffffffffffffffffffff166370a08231306040518263ffffffff1660e01b81526004016120ed91906140a6565b60206040518083038186803b15801561210557600080fd5b505afa158015612119573d6000803e3d6000fd5b505050506040513d601f19601f8201168201806040525081019061213d91906137c4565b101561217e576040517f08c379a000000000000000000000000000000000000000000000000000000000815260040161217590614467565b60405180910390fd5b61218c600654600754612b02565b9050816008600083815260200190815260200160002060006101000a81548173ffffffffffffffffffffffffffffffffffffffff021916908373ffffffffffffffffffffffffffffffffffffffff16021790555063499602d2600960008473ffffffffffffffffffffffffffffffffffffffff1673ffffffffffffffffffffffffffffffffffffffff168152602001908152602001600020819055508173ffffffffffffffffffffffffffffffffffffffff16817f923de4fc4aece24a78a9e4ca3009c571a742f81ac2c004a229224b0fd1883bdd60405160405180910390a3919050565b600073ffffffffffffffffffffffffffffffffffffffff168473ffffffffffffffffffffffffffffffffffffffff1614156122e1576040517f08c379a00000000000000000000000000000000000000000000000000000000081526004016122d8906143e7565b60405180910390fd5b60006122eb611289565b905061230b8187876122fc88612c64565b61230588612c64565b876126b4565b600080600086815260200190815260200160002060008873ffffffffffffffffffffffffffffffffffffffff1673ffffffffffffffffffffffffffffffffffffffff168152602001908152602001600020549050838110156123a2576040517f08c379a000000000000000000000000000000000000000000000000000000000815260040161239990614427565b60405180910390fd5b83810360008087815260200190815260200160002060008973ffffffffffffffffffffffffffffffffffffffff1673ffffffffffffffffffffffffffffffffffffffff168152602001908152602001600020819055508360008087815260200190815260200160002060008873ffffffffffffffffffffffffffffffffffffffff1673ffffffffffffffffffffffffffffffffffffffff1681526020019081526020016000206000828254612457919061471a565b925050819055508573ffffffffffffffffffffffffffffffffffffffff168773ffffffffffffffffffffffffffffffffffffffff168373ffffffffffffffffffffffffffffffffffffffff167fc3d58168c5ae7397731d063d5bbf3d657854427343f4c083240f7aacaa2d0f6288886040516124d4929190614542565b60405180910390a46124ea828888888888612d2a565b50505050505050565b600460009054906101000a900473ffffffffffffffffffffffffffffffffffffffff1673ffffffffffffffffffffffffffffffffffffffff163373ffffffffffffffffffffffffffffffffffffffff1614612583576040517f08c379a000000000000000000000000000000000000000000000000000000000815260040161257a90614387565b60405180910390fd5b565b3373ffffffffffffffffffffffffffffffffffffffff168173ffffffffffffffffffffffffffffffffffffffff1614156125f4576040517f08c379a00000000000000000000000000000000000000000000000000000000081526004016125eb90614487565b60405180910390fd5b80600560006101000a81548173ffffffffffffffffffffffffffffffffffffffff021916908373ffffffffffffffffffffffffffffffffffffffff1602179055508073ffffffffffffffffffffffffffffffffffffffff16600460009054906101000a900473ffffffffffffffffffffffffffffffffffffffff1673ffffffffffffffffffffffffffffffffffffffff167fed8889f560326eb138920d842192f0eb3dd22b4f139c87a2c57538e05bae127860405160405180910390a350565b505050505050565b6126db8473ffffffffffffffffffffffffffffffffffffffff16612efa565b15612884578373ffffffffffffffffffffffffffffffffffffffff1663bc197c8187878686866040518663ffffffff1660e01b81526004016127219594939291906140c1565b602060405180830381600087803b15801561273b57600080fd5b505af192505050801561276c57506040513d601f19601f820116820180604052508101906127699190613731565b60015b6127fb576127786149ca565b8061278357506127c0565b806040517f08c379a00000000000000000000000000000000000000000000000000000000081526004016127b791906142c5565b60405180910390fd5b6040517f08c379a00000000000000000000000000000000000000000000000000000000081526004016127f2906142e7565b60405180910390fd5b63bc197c8160e01b7bffffffffffffffffffffffffffffffffffffffffffffffffffffffff1916817bffffffffffffffffffffffffffffffffffffffffffffffffffffffff191614612882576040517f08c379a000000000000000000000000000000000000000000000000000000000815260040161287990614307565b60405180910390fd5b505b505050505050565b60608167ffffffffffffffff8111156128ce577f4e487b7100000000000000000000000000000000000000000000000000000000600052604160045260246000fd5b6040519080825280602002602001820160405280156128fc5781602001602082028036833780820191505090505b50905060005b8281101561296557600060148583604051602001612921929190614542565b6040516020818303038152906040528051906020012060001c61294491906148bf565b9050612951818484612f0d565b50808061295d90614862565b915050612902565b5092915050565b600073ffffffffffffffffffffffffffffffffffffffff168473ffffffffffffffffffffffffffffffffffffffff1614156129dc576040517f08c379a00000000000000000000000000000000000000000000000000000000081526004016129d390614507565b60405180910390fd5b60006129e6611289565b9050612a07816000876129f888612c64565b612a0188612c64565b876126b4565b8260008086815260200190815260200160002060008773ffffffffffffffffffffffffffffffffffffffff1673ffffffffffffffffffffffffffffffffffffffff1681526020019081526020016000206000828254612a66919061471a565b925050819055508473ffffffffffffffffffffffffffffffffffffffff16600073ffffffffffffffffffffffffffffffffffffffff168273ffffffffffffffffffffffffffffffffffffffff167fc3d58168c5ae7397731d063d5bbf3d657854427343f4c083240f7aacaa2d0f628787604051612ae4929190614542565b60405180910390a4612afb81600087878787612d2a565b5050505050565b60007f000000000000000000000000000000000000000000000000000000000000000073ffffffffffffffffffffffffffffffffffffffff16634000aea07f000000000000000000000000000000000000000000000000000000000000000084866000604051602001612b76929190614257565b6040516020818303038152906040526040518463ffffffff1660e01b8152600401612ba393929190614183565b602060405180830381600087803b158015612bbd57600080fd5b505af1158015612bd1573d6000803e3d6000fd5b505050506040513d601f19601f82011682018060405250810190612bf591906136a3565b506000612c18846000306003600089815260200190815260200160002054612fd1565b905060016003600086815260200190815260200160002054612c3a919061471a565b6003600086815260200190815260200160002081905550612c5b848261300d565b91505092915050565b60606000600167ffffffffffffffff811115612ca9577f4e487b7100000000000000000000000000000000000000000000000000000000600052604160045260246000fd5b604051908082528060200260200182016040528015612cd75781602001602082028036833780820191505090505b5090508281600081518110612d15577f4e487b7100000000000000000000000000000000000000000000000000000000600052603260045260246000fd5b60200260200101818152505080915050919050565b612d498473ffffffffffffffffffffffffffffffffffffffff16612efa565b15612ef2578373ffffffffffffffffffffffffffffffffffffffff1663f23a6e6187878686866040518663ffffffff1660e01b8152600401612d8f959493929190614129565b602060405180830381600087803b158015612da957600080fd5b505af1925050508015612dda57506040513d601f19601f82011682018060405250810190612dd79190613731565b60015b612e6957612de66149ca565b80612df15750612e2e565b806040517f08c379a0000000000000000000000000000000000000000000000000000000008152600401612e2591906142c5565b60405180910390fd5b6040517f08c379a0000000000000000000000000000000000000000000000000000000008152600401612e60906142e7565b60405180910390fd5b63f23a6e6160e01b7bffffffffffffffffffffffffffffffffffffffffffffffffffffffff1916817bffffffffffffffffffffffffffffffffffffffffffffffffffffffff191614612ef0576040517f08c379a0000000000000000000000000000000000000000000000000000000008152600401612ee790614307565b60405180910390fd5b505b505050505050565b600080823b905060008111915050919050565b60001515600c600085815260200190815260200160002060009054906101000a900460ff1615151415612fb15782828281518110612f74577f4e487b7100000000000000000000000000000000000000000000000000000000600052603260045260246000fd5b6020026020010181815250506001600c600085815260200190815260200160002060006101000a81548160ff021916908315150217905550612fcc565b600183612fbe919061471a565b9250612fcb838383612f0d565b5b505050565b600084848484604051602001612fea9493929190614280565b6040516020818303038152906040528051906020012060001c9050949350505050565b60008282604051602001613022929190614063565b60405160208183030381529060405280519060200120905092915050565b508054600082559060005260206000209081019061305e91906130e7565b50565b82805461306d90614830565b90600052602060002090601f01602090048101928261308f57600085556130d6565b82601f106130a857805160ff19168380011785556130d6565b828001600101855582156130d6579182015b828111156130d55782518255916020019190600101906130ba565b5b5090506130e3919061310b565b5090565b5b8082111561310757600081816130fe9190613128565b506001016130e8565b5090565b5b8082111561312457600081600090555060010161310c565b5090565b50805461313490614830565b6000825580601f106131465750613165565b601f016020900490600052602060002090810190613164919061310b565b5b50565b600061317b6131768461459c565b61456b565b9050808382526020820190508285602086028201111561319a57600080fd5b60005b858110156131ca57816131b088826132bc565b84526020840193506020830192505060018101905061319d565b5050509392505050565b60006131e76131e2846145c8565b61456b565b9050808382526020820190508285602086028201111561320657600080fd5b60005b85811015613236578161321c88826133e2565b845260208401935060208301925050600181019050613209565b5050509392505050565b600061325361324e846145f4565b61456b565b90508281526020810184848401111561326b57600080fd5b6132768482856147ee565b509392505050565b600061329161328c84614624565b61456b565b9050828152602081018484840111156132a957600080fd5b6132b48482856147ee565b509392505050565b6000813590506132cb81614a80565b92915050565b600082601f8301126132e257600080fd5b81356132f2848260208601613168565b91505092915050565b600082601f83011261330c57600080fd5b813561331c8482602086016131d4565b91505092915050565b60008135905061333481614a97565b92915050565b60008151905061334981614a97565b92915050565b60008135905061335e81614aae565b92915050565b60008135905061337381614ac5565b92915050565b60008151905061338881614ac5565b92915050565b600082601f83011261339f57600080fd5b81356133af848260208601613240565b91505092915050565b600082601f8301126133c957600080fd5b81356133d984826020860161327e565b91505092915050565b6000813590506133f181614adc565b92915050565b60008151905061340681614adc565b92915050565b60006020828403121561341e57600080fd5b600061342c848285016132bc565b91505092915050565b6000806040838503121561344857600080fd5b6000613456858286016132bc565b9250506020613467858286016132bc565b9150509250929050565b600080600080600060a0868803121561348957600080fd5b6000613497888289016132bc565b95505060206134a8888289016132bc565b945050604086013567ffffffffffffffff8111156134c557600080fd5b6134d1888289016132fb565b935050606086013567ffffffffffffffff8111156134ee57600080fd5b6134fa888289016132fb565b925050608086013567ffffffffffffffff81111561351757600080fd5b6135238882890161338e565b9150509295509295909350565b600080600080600060a0868803121561354857600080fd5b6000613556888289016132bc565b9550506020613567888289016132bc565b9450506040613578888289016133e2565b9350506060613589888289016133e2565b925050608086013567ffffffffffffffff8111156135a657600080fd5b6135b28882890161338e565b9150509295509295909350565b600080604083850312156135d257600080fd5b60006135e0858286016132bc565b92505060206135f185828601613325565b9150509250929050565b6000806040838503121561360e57600080fd5b600061361c858286016132bc565b925050602061362d858286016133e2565b9150509250929050565b6000806040838503121561364a57600080fd5b600083013567ffffffffffffffff81111561366457600080fd5b613670858286016132d1565b925050602083013567ffffffffffffffff81111561368d57600080fd5b613699858286016132fb565b9150509250929050565b6000602082840312156136b557600080fd5b60006136c38482850161333a565b91505092915050565b600080604083850312156136df57600080fd5b60006136ed8582860161334f565b92505060206136fe858286016133e2565b9150509250929050565b60006020828403121561371a57600080fd5b600061372884828501613364565b91505092915050565b60006020828403121561374357600080fd5b600061375184828501613379565b91505092915050565b60006020828403121561376c57600080fd5b600082013567ffffffffffffffff81111561378657600080fd5b613792848285016133b8565b91505092915050565b6000602082840312156137ad57600080fd5b60006137bb848285016133e2565b91505092915050565b6000602082840312156137d657600080fd5b60006137e4848285016133f7565b91505092915050565b60006137f98383613969565b905092915050565b600061380d838361402e565b60208301905092915050565b61382281614770565b82525050565b600061383382614674565b61383d81856146ba565b93508360208202850161384f85614654565b8060005b8581101561388b578484038952815161386c85826137ed565b9450613877836146a0565b925060208a01995050600181019050613853565b50829750879550505050505092915050565b60006138a88261467f565b6138b281856146cb565b93506138bd83614664565b8060005b838110156138ee5781516138d58882613801565b97506138e0836146ad565b9250506001810190506138c1565b5085935050505092915050565b61390481614782565b82525050565b6139138161478e565b82525050565b61392a6139258261478e565b6148ab565b82525050565b600061393b8261468a565b61394581856146dc565b93506139558185602086016147fd565b61395e816149ac565b840191505092915050565b600061397482614695565b61397e81856146ed565b935061398e8185602086016147fd565b613997816149ac565b840191505092915050565b60006139ad82614695565b6139b781856146fe565b93506139c78185602086016147fd565b6139d0816149ac565b840191505092915050565b60006139e682614695565b6139f0818561470f565b9350613a008185602086016147fd565b80840191505092915050565b6000613a196034836146fe565b91507f455243313135353a207472616e7366657220746f206e6f6e204552433131353560008301527f526563656976657220696d706c656d656e7465720000000000000000000000006020830152604082019050919050565b6000613a7f6028836146fe565b91507f455243313135353a204552433131353552656365697665722072656a6563746560008301527f6420746f6b656e730000000000000000000000000000000000000000000000006020830152604082019050919050565b6000613ae56016836146fe565b91507f4d7573742062652070726f706f736564206f776e6572000000000000000000006000830152602082019050919050565b6000613b25602b836146fe565b91507f455243313135353a2062616c616e636520717565727920666f7220746865207a60008301527f65726f20616464726573730000000000000000000000000000000000000000006020830152604082019050919050565b6000613b8b6029836146fe565b91507f455243313135353a2063616c6c6572206973206e6f74206f776e6572206e6f7260008301527f20617070726f76656400000000000000000000000000000000000000000000006020830152604082019050919050565b6000613bf16016836146fe565b91507f4f6e6c792063616c6c61626c65206279206f776e6572000000000000000000006000830152602082019050919050565b6000613c316010836146fe565b91507f526f6c6c20696e2070726f6772657373000000000000000000000000000000006000830152602082019050919050565b6000613c71600f836146fe565b91507f44696365206e6f7420726f6c6c656400000000000000000000000000000000006000830152602082019050919050565b6000613cb16025836146fe565b91507f455243313135353a207472616e7366657220746f20746865207a65726f20616460008301527f64726573730000000000000000000000000000000000000000000000000000006020830152604082019050919050565b6000613d176032836146fe565b91507f455243313135353a207472616e736665722063616c6c6572206973206e6f742060008301527f6f776e6572206e6f7220617070726f76656400000000000000000000000000006020830152604082019050919050565b6000613d7d602a836146fe565b91507f455243313135353a20696e73756666696369656e742062616c616e636520666f60008301527f72207472616e73666572000000000000000000000000000000000000000000006020830152604082019050919050565b6000613de3601f836146fe565b91507f4f6e6c7920565246436f6f7264696e61746f722063616e2066756c66696c6c006000830152602082019050919050565b6000613e23601a836146fe565b91507f4e6f7420656e6f756768204c494e4b20746f20706179206665650000000000006000830152602082019050919050565b6000613e636017836146fe565b91507f43616e6e6f74207472616e7366657220746f2073656c660000000000000000006000830152602082019050919050565b6000613ea36029836146fe565b91507f455243313135353a2073657474696e6720617070726f76616c2073746174757360008301527f20666f722073656c6600000000000000000000000000000000000000000000006020830152604082019050919050565b6000613f096029836146fe565b91507f455243313135353a206163636f756e747320616e6420696473206c656e67746860008301527f206d69736d6174636800000000000000000000000000000000000000000000006020830152604082019050919050565b6000613f6f6028836146fe565b91507f455243313135353a2069647320616e6420616d6f756e7473206c656e6774682060008301527f6d69736d617463680000000000000000000000000000000000000000000000006020830152604082019050919050565b6000613fd56021836146fe565b91507f455243313135353a206d696e7420746f20746865207a65726f2061646472657360008301527f73000000000000000000000000000000000000000000000000000000000000006020830152604082019050919050565b614037816147e4565b82525050565b614046816147e4565b82525050565b61405d614058826147e4565b6148b5565b82525050565b600061406f8285613919565b60208201915061407f828461404c565b6020820191508190509392505050565b600061409b82846139db565b915081905092915050565b60006020820190506140bb6000830184613819565b92915050565b600060a0820190506140d66000830188613819565b6140e36020830187613819565b81810360408301526140f5818661389d565b90508181036060830152614109818561389d565b9050818103608083015261411d8184613930565b90509695505050505050565b600060a08201905061413e6000830188613819565b61414b6020830187613819565b614158604083018661403d565b614165606083018561403d565b81810360808301526141778184613930565b90509695505050505050565b60006060820190506141986000830186613819565b6141a5602083018561403d565b81810360408301526141b78184613930565b9050949350505050565b600060208201905081810360008301526141db8184613828565b905092915050565b600060208201905081810360008301526141fd818461389d565b905092915050565b6000604082019050818103600083015261421f818561389d565b90508181036020830152614233818461389d565b90509392505050565b600060208201905061425160008301846138fb565b92915050565b600060408201905061426c600083018561390a565b614279602083018461403d565b9392505050565b6000608082019050614295600083018761390a565b6142a2602083018661403d565b6142af6040830185613819565b6142bc606083018461403d565b95945050505050565b600060208201905081810360008301526142df81846139a2565b905092915050565b6000602082019050818103600083015261430081613a0c565b9050919050565b6000602082019050818103600083015261432081613a72565b9050919050565b6000602082019050818103600083015261434081613ad8565b9050919050565b6000602082019050818103600083015261436081613b18565b9050919050565b6000602082019050818103600083015261438081613b7e565b9050919050565b600060208201905081810360008301526143a081613be4565b9050919050565b600060208201905081810360008301526143c081613c24565b9050919050565b600060208201905081810360008301526143e081613c64565b9050919050565b6000602082019050818103600083015261440081613ca4565b9050919050565b6000602082019050818103600083015261442081613d0a565b9050919050565b6000602082019050818103600083015261444081613d70565b9050919050565b6000602082019050818103600083015261446081613dd6565b9050919050565b6000602082019050818103600083015261448081613e16565b9050919050565b600060208201905081810360008301526144a081613e56565b9050919050565b600060208201905081810360008301526144c081613e96565b9050919050565b600060208201905081810360008301526144e081613efc565b9050919050565b6000602082019050818103600083015261450081613f62565b9050919050565b6000602082019050818103600083015261452081613fc8565b9050919050565b600060208201905061453c600083018461403d565b92915050565b6000604082019050614557600083018561403d565b614564602083018461403d565b9392505050565b6000604051905081810181811067ffffffffffffffff821117156145925761459161497d565b5b8060405250919050565b600067ffffffffffffffff8211156145b7576145b661497d565b5b602082029050602081019050919050565b600067ffffffffffffffff8211156145e3576145e261497d565b5b602082029050602081019050919050565b600067ffffffffffffffff82111561460f5761460e61497d565b5b601f19601f8301169050602081019050919050565b600067ffffffffffffffff82111561463f5761463e61497d565b5b601f19601f8301169050602081019050919050565b6000819050602082019050919050565b6000819050602082019050919050565b600081519050919050565b600081519050919050565b600081519050919050565b600081519050919050565b6000602082019050919050565b6000602082019050919050565b600082825260208201905092915050565b600082825260208201905092915050565b600082825260208201905092915050565b600082825260208201905092915050565b600082825260208201905092915050565b600081905092915050565b6000614725826147e4565b9150614730836147e4565b9250827fffffffffffffffffffffffffffffffffffffffffffffffffffffffffffffffff03821115614765576147646148f0565b5b828201905092915050565b600061477b826147c4565b9050919050565b60008115159050919050565b6000819050919050565b60007fffffffff0000000000000000000000000000000000000000000000000000000082169050919050565b600073ffffffffffffffffffffffffffffffffffffffff82169050919050565b6000819050919050565b82818337600083830152505050565b60005b8381101561481b578082015181840152602081019050614800565b8381111561482a576000848401525b50505050565b6000600282049050600182168061484857607f821691505b6020821081141561485c5761485b61494e565b5b50919050565b600061486d826147e4565b91507fffffffffffffffffffffffffffffffffffffffffffffffffffffffffffffffff8214156148a05761489f6148f0565b5b600182019050919050565b6000819050919050565b6000819050919050565b60006148ca826147e4565b91506148d5836147e4565b9250826148e5576148e461491f565b5b828206905092915050565b7f4e487b7100000000000000000000000000000000000000000000000000000000600052601160045260246000fd5b7f4e487b7100000000000000000000000000000000000000000000000000000000600052601260045260246000fd5b7f4e487b7100000000000000000000000000000000000000000000000000000000600052602260045260246000fd5b7f4e487b7100000000000000000000000000000000000000000000000000000000600052604160045260246000fd5b6000601f19601f8301169050919050565b60008160e01c9050919050565b600060443d10156149da57614a7d565b60046000803e6149eb6000516149bd565b6308c379a081146149fc5750614a7d565b60405160043d036004823e80513d602482011167ffffffffffffffff82111715614a2857505050614a7d565b808201805167ffffffffffffffff811115614a47575050505050614a7d565b8060208301013d8501811115614a6257505050505050614a7d565b614a6b826149ac565b60208401016040528296505050505050505b90565b614a8981614770565b8114614a9457600080fd5b50565b614aa081614782565b8114614aab57600080fd5b50565b614ab78161478e565b8114614ac257600080fd5b50565b614ace81614798565b8114614ad957600080fd5b50565b614ae5816147e4565b8114614af057600080fd5b5056fea26469706673582212200f14c105bd4045ad2930d237e7112d4912909a90a3d8820cf042a3cdbee4ea5c64736f6c6343000800003368747470733a2f2f67616d652e6578616d706c652f6170692f6974656d2f7b69647d2e6a736f6e",
	"linkReferences": {},
	"deployedLinkReferences": {}
}