{
	"_format": "hh-sol-artifact-1",
	"contractName": "packPlayers",
	"sourceName": "contracts/PackPlayers.sol",
	"abi": [
		{
			"inputs": [],
			"stateMutability": "nonpayable",
			"type": "constructor"
		},
		{
			"anonymous": false,
			"inputs": [
				{
					"indexed": true,
					"internalType": "bytes32",
					"name": "requestId",
					"type": "bytes32"
				},
				{
					"indexed": true,
					"internalType": "uint256",
					"name": "result",
					"type": "uint256"
				}
			],
			"name": "DiceLanded",
			"type": "event"
		},
		{
			"anonymous": false,
			"inputs": [
				{
					"indexed": true,
					"internalType": "bytes32",
					"name": "requestId",
					"type": "bytes32"
				},
				{
					"indexed": true,
					"internalType": "address",
					"name": "roller",
					"type": "address"
				}
			],
			"name": "DiceRolled",
			"type": "event"
		},
		{
			"anonymous": false,
			"inputs": [
				{
					"indexed": true,
					"internalType": "address",
					"name": "from",
					"type": "address"
				},
				{
					"indexed": true,
					"internalType": "address",
					"name": "to",
					"type": "address"
				}
			],
			"name": "OwnershipTransferRequested",
			"type": "event"
		},
		{
			"anonymous": false,
			"inputs": [
				{
					"indexed": true,
					"internalType": "address",
					"name": "from",
					"type": "address"
				},
				{
					"indexed": true,
					"internalType": "address",
					"name": "to",
					"type": "address"
				}
			],
			"name": "OwnershipTransferred",
			"type": "event"
		},
		{
			"anonymous": false,
			"inputs": [
				{
					"indexed": false,
					"internalType": "address",
					"name": "owner",
					"type": "address"
				}
			],
			"name": "Packed",
			"type": "event"
		},
		{
			"inputs": [],
			"name": "acceptOwnership",
			"outputs": [],
			"stateMutability": "nonpayable",
			"type": "function"
		},
		{
			"inputs": [
				{
					"internalType": "address",
					"name": "roller",
					"type": "address"
				}
			],
			"name": "buy",
			"outputs": [],
			"stateMutability": "payable",
			"type": "function"
		},
		{
			"inputs": [
				{
					"internalType": "address",
					"name": "owner",
					"type": "address"
				}
			],
			"name": "clearPackedPlayers",
			"outputs": [],
			"stateMutability": "nonpayable",
			"type": "function"
		},
		{
			"inputs": [
				{
					"internalType": "address",
					"name": "owner",
					"type": "address"
				}
			],
			"name": "getPlayers",
			"outputs": [
				{
					"internalType": "string[]",
					"name": "",
					"type": "string[]"
				}
			],
			"stateMutability": "view",
			"type": "function"
		},
		{
			"inputs": [
				{
					"internalType": "address",
					"name": "",
					"type": "address"
				},
				{
					"internalType": "uint256",
					"name": "",
					"type": "uint256"
				}
			],
			"name": "holdings",
			"outputs": [
				{
					"internalType": "string",
					"name": "",
					"type": "string"
				}
			],
			"stateMutability": "view",
			"type": "function"
		},
		{
			"inputs": [],
			"name": "owner",
			"outputs": [
				{
					"internalType": "address",
					"name": "",
					"type": "address"
				}
			],
			"stateMutability": "view",
			"type": "function"
		},
		{
			"inputs": [
				{
					"internalType": "address",
					"name": "owner",
					"type": "address"
				}
			],
			"name": "player",
			"outputs": [
				{
					"internalType": "string[]",
					"name": "",
					"type": "string[]"
				}
			],
			"stateMutability": "nonpayable",
			"type": "function"
		},
		{
			"inputs": [
				{
					"internalType": "bytes32",
					"name": "requestId",
					"type": "bytes32"
				},
				{
					"internalType": "uint256",
					"name": "randomness",
					"type": "uint256"
				}
			],
			"name": "rawFulfillRandomness",
			"outputs": [],
			"stateMutability": "nonpayable",
			"type": "function"
		},
		{
			"inputs": [
				{
					"internalType": "address",
					"name": "to",
					"type": "address"
				}
			],
			"name": "transferOwnership",
			"outputs": [],
			"stateMutability": "nonpayable",
			"type": "function"
		}
	],
	"bytecode": "0x60c06040523480156200001157600080fd5b503380600073dd3782915140c8f3b190b5d67eac6dc5760c46e973a36085f69e2889c224210f603d836748e7dc00888173ffffffffffffffffffffffffffffffffffffffff1660a08173ffffffffffffffffffffffffffffffffffffffff1660601b815250508073ffffffffffffffffffffffffffffffffffffffff1660808173ffffffffffffffffffffffffffffffffffffffff1660601b815250505050600073ffffffffffffffffffffffffffffffffffffffff168273ffffffffffffffffffffffffffffffffffffffff16141562000123576040517f08c379a00000000000000000000000000000000000000000000000000000000081526004016200011a90620003a3565b60405180910390fd5b81600160006101000a81548173ffffffffffffffffffffffffffffffffffffffff021916908373ffffffffffffffffffffffffffffffffffffffff160217905550600073ffffffffffffffffffffffffffffffffffffffff168173ffffffffffffffffffffffffffffffffffffffff1614620001ab57620001aa81620001ed60201b60201c565b5b5050507f6c3699283bda56ad74f6b855546325b68d482e983852a7a82979cc4807b641f460001b60038190555067016345785d8a0000600481905550620003f8565b3373ffffffffffffffffffffffffffffffffffffffff168173ffffffffffffffffffffffffffffffffffffffff1614156200025f576040517f08c379a00000000000000000000000000000000000000000000000000000000081526004016200025690620003c5565b60405180910390fd5b80600260006101000a81548173ffffffffffffffffffffffffffffffffffffffff021916908373ffffffffffffffffffffffffffffffffffffffff1602179055508073ffffffffffffffffffffffffffffffffffffffff16600160009054906101000a900473ffffffffffffffffffffffffffffffffffffffff1673ffffffffffffffffffffffffffffffffffffffff167fed8889f560326eb138920d842192f0eb3dd22b4f139c87a2c57538e05bae127860405160405180910390a350565b60006200032e601883620003e7565b91507f43616e6e6f7420736574206f776e657220746f207a65726f00000000000000006000830152602082019050919050565b600062000370601783620003e7565b91507f43616e6e6f74207472616e7366657220746f2073656c660000000000000000006000830152602082019050919050565b60006020820190508181036000830152620003be816200031f565b9050919050565b60006020820190508181036000830152620003e08162000361565b9050919050565b600082825260208201905092915050565b60805160601c60a05160601c6122c5620004326000396000818161075501526114df01526000818161101a01526114a301526122c56000f3fe6080604052600436106100865760003560e01c80638da5cb5b116100595780638da5cb5b1461014557806391b46a911461017057806394985ddd146101ad578063f088d547146101d6578063f2fde38b146101f257610086565b80634c54e1b51461008b57806356dbf7ae146100c857806379ba5097146100f15780637a80b6b414610108575b600080fd5b34801561009757600080fd5b506100b260048036038101906100ad91906118c2565b61021b565b6040516100bf9190611d89565b60405180910390f35b3480156100d457600080fd5b506100ef60048036038101906100ea91906118c2565b610373565b005b3480156100fd57600080fd5b506101066103c1565b005b34801561011457600080fd5b5061012f600480360381019061012a91906118c2565b610558565b60405161013c9190611d89565b60405180910390f35b34801561015157600080fd5b5061015a610670565b6040516101679190611d30565b60405180910390f35b34801561017c57600080fd5b50610197600480360381019061019291906118eb565b61069a565b6040516101a49190611e19565b60405180910390f35b3480156101b957600080fd5b506101d460048036038101906101cf9190611950565b610753565b005b6101f060048036038101906101eb91906118c2565b6107ef565b005b3480156101fe57600080fd5b50610219600480360381019061021491906118c2565b610803565b005b60606000600660008473ffffffffffffffffffffffffffffffffffffffff1673ffffffffffffffffffffffffffffffffffffffff1681526020019081526020016000205414156102a0576040517f08c379a000000000000000000000000000000000000000000000000000000000815260040161029790611e9b565b60405180910390fd5b602a600660008473ffffffffffffffffffffffffffffffffffffffff1673ffffffffffffffffffffffffffffffffffffffff168152602001908152602001600020541415610323576040517f08c379a000000000000000000000000000000000000000000000000000000000815260040161031a90611e7b565b60405180910390fd5b61036c600660008473ffffffffffffffffffffffffffffffffffffffff1673ffffffffffffffffffffffffffffffffffffffff1681526020019081526020016000205483610817565b9050919050565b600760008273ffffffffffffffffffffffffffffffffffffffff1673ffffffffffffffffffffffffffffffffffffffff16815260200190815260200160002060006103be9190611731565b50565b600260009054906101000a900473ffffffffffffffffffffffffffffffffffffffff1673ffffffffffffffffffffffffffffffffffffffff163373ffffffffffffffffffffffffffffffffffffffff1614610451576040517f08c379a000000000000000000000000000000000000000000000000000000000815260040161044890611e3b565b60405180910390fd5b6000600160009054906101000a900473ffffffffffffffffffffffffffffffffffffffff16905033600160006101000a81548173ffffffffffffffffffffffffffffffffffffffff021916908373ffffffffffffffffffffffffffffffffffffffff1602179055506000600260006101000a81548173ffffffffffffffffffffffffffffffffffffffff021916908373ffffffffffffffffffffffffffffffffffffffff1602179055503373ffffffffffffffffffffffffffffffffffffffff168173ffffffffffffffffffffffffffffffffffffffff167f8be0079c531659141344cd1fd0a4f28419497f9722a3daafe3b4186f6b6457e060405160405180910390a350565b6060600760008373ffffffffffffffffffffffffffffffffffffffff1673ffffffffffffffffffffffffffffffffffffffff168152602001908152602001600020805480602002602001604051908101604052809291908181526020016000905b828210156106655783829060005260206000200180546105d8906120d5565b80601f0160208091040260200160405190810160405280929190818152602001828054610604906120d5565b80156106515780601f1061062657610100808354040283529160200191610651565b820191906000526020600020905b81548152906001019060200180831161063457829003601f168201915b5050505050815260200190600101906105b9565b505050509050919050565b6000600160009054906101000a900473ffffffffffffffffffffffffffffffffffffffff16905090565b600760205281600052604060002081815481106106b657600080fd5b906000526020600020016000915091505080546106d2906120d5565b80601f01602080910402602001604051908101604052809291908181526020018280546106fe906120d5565b801561074b5780601f106107205761010080835404028352916020019161074b565b820191906000526020600020905b81548152906001019060200180831161072e57829003601f168201915b505050505081565b7f000000000000000000000000000000000000000000000000000000000000000073ffffffffffffffffffffffffffffffffffffffff163373ffffffffffffffffffffffffffffffffffffffff16146107e1576040517f08c379a00000000000000000000000000000000000000000000000000000000081526004016107d890611ebb565b60405180910390fd5b6107eb8282610f44565b5050565b346008819055506107ff8161100b565b5050565b61080b6111f2565b61081481611284565b50565b606060006040518061028001604052806040518060400160405280600c81526020017f4c6542726f6e204a616d6573000000000000000000000000000000000000000081525081526020016040518060400160405280600c81526020017f4b6576696e20447572616e74000000000000000000000000000000000000000081525081526020016040518060400160405280600d81526020017f4b61776869204c656f6e6172640000000000000000000000000000000000000081525081526020016040518060400160405280600b81526020017f42656e2053696d6d6f6e7300000000000000000000000000000000000000000081525081526020016040518060400160405280600e81526020017f416c706572656e2053656e67756e00000000000000000000000000000000000081525081526020016040518060400160405280600b81526020017f4a6f656c20456d6269696400000000000000000000000000000000000000000081525081526020016040518060400160405280600c81526020017f547972657365204d61786579000000000000000000000000000000000000000081525081526020016040518060400160405280600a81526020017f4c6f6e7a6f2042616c6c0000000000000000000000000000000000000000000081525081526020016040518060400160405280600b81526020017f4c616d656c6f2042616c6c00000000000000000000000000000000000000000081525081526020016040518060400160405280600a81526020017f4c615661722042616c6c0000000000000000000000000000000000000000000081525081526020016040518060400160405280601181526020017f5479726573652048616c69627572746f6e00000000000000000000000000000081525081526020016040518060400160405280601381526020017f526f626572742057696c6c69616d73204949490000000000000000000000000081525081526020016040518060400160405280601081526020017f4b6576696e20506f72746572204a722e0000000000000000000000000000000081525081526020016040518060400160405280601181526020017f4a6172656e204a61636b736f6e204a722e00000000000000000000000000000081525081526020016040518060400160405280600b81526020017f4576616e204d6f626c657900000000000000000000000000000000000000000081525081526020016040518060400160405280600f81526020017f436164652043756e6e696e6768616d000000000000000000000000000000000081525081526020016040518060400160405280600b81526020017f4a616c656e20477265656e00000000000000000000000000000000000000000081525081526020016040518060400160405280600e81526020017f53636f74746965204261726e657300000000000000000000000000000000000081525081526020016040518060400160405280600f81526020017f416e74686f6e792045647761726473000000000000000000000000000000000081525081526020016040518060400160405280600b81526020017f4a616c656e20537567677300000000000000000000000000000000000000000081525081525090506000610cd08560056113b3565b905060005b8151811015610df357600760008673ffffffffffffffffffffffffffffffffffffffff1673ffffffffffffffffffffffffffffffffffffffff168152602001908152602001600020836001848481518110610d59577f4e487b7100000000000000000000000000000000000000000000000000000000600052603260045260246000fd5b6020026020010151610d6b919061201c565b60148110610da2577f4e487b7100000000000000000000000000000000000000000000000000000000600052603260045260246000fd5b6020020151908060018154018082558091505060019003906000526020600020016000909190919091509080519060200190610ddf929190611752565b508080610deb90612107565b915050610cd5565b507fa340c216784d506dea61b22b7290b63d4aabbec0d7132930e22fcbc94153d2f784604051610e239190611d30565b60405180910390a1600760008573ffffffffffffffffffffffffffffffffffffffff1673ffffffffffffffffffffffffffffffffffffffff168152602001908152602001600020805480602002602001604051908101604052809291908181526020016000905b82821015610f36578382906000526020600020018054610ea9906120d5565b80601f0160208091040260200160405190810160405280929190818152602001828054610ed5906120d5565b8015610f225780601f10610ef757610100808354040283529160200191610f22565b820191906000526020600020905b815481529060010190602001808311610f0557829003601f168201915b505050505081526020019060010190610e8a565b505050509250505092915050565b60006001601483610f559190612164565b610f5f9190611fc6565b905080600660006005600087815260200190815260200160002060009054906101000a900473ffffffffffffffffffffffffffffffffffffffff1673ffffffffffffffffffffffffffffffffffffffff1673ffffffffffffffffffffffffffffffffffffffff1681526020019081526020016000208190555080837f909dd726737b7ffa4ae9d137e9edebe8a74a9c2910a4b60e8112f93ab217083760405160405180910390a3505050565b60006110156111f2565b6004547f000000000000000000000000000000000000000000000000000000000000000073ffffffffffffffffffffffffffffffffffffffff166370a08231306040518263ffffffff1660e01b81526004016110719190611d30565b60206040518083038186803b15801561108957600080fd5b505afa15801561109d573d6000803e3d6000fd5b505050506040513d601f19601f820116820180604052508101906110c1919061198c565b1015611102576040517f08c379a00000000000000000000000000000000000000000000000000000000081526004016110f990611edb565b60405180910390fd5b61111060035460045461149f565b9050816005600083815260200190815260200160002060006101000a81548173ffffffffffffffffffffffffffffffffffffffff021916908373ffffffffffffffffffffffffffffffffffffffff160217905550602a600660008473ffffffffffffffffffffffffffffffffffffffff1673ffffffffffffffffffffffffffffffffffffffff168152602001908152602001600020819055508173ffffffffffffffffffffffffffffffffffffffff16817f923de4fc4aece24a78a9e4ca3009c571a742f81ac2c004a229224b0fd1883bdd60405160405180910390a3919050565b600160009054906101000a900473ffffffffffffffffffffffffffffffffffffffff1673ffffffffffffffffffffffffffffffffffffffff163373ffffffffffffffffffffffffffffffffffffffff1614611282576040517f08c379a000000000000000000000000000000000000000000000000000000000815260040161127990611e5b565b60405180910390fd5b565b3373ffffffffffffffffffffffffffffffffffffffff168173ffffffffffffffffffffffffffffffffffffffff1614156112f3576040517f08c379a00000000000000000000000000000000000000000000000000000000081526004016112ea90611efb565b60405180910390fd5b80600260006101000a81548173ffffffffffffffffffffffffffffffffffffffff021916908373ffffffffffffffffffffffffffffffffffffffff1602179055508073ffffffffffffffffffffffffffffffffffffffff16600160009054906101000a900473ffffffffffffffffffffffffffffffffffffffff1673ffffffffffffffffffffffffffffffffffffffff167fed8889f560326eb138920d842192f0eb3dd22b4f139c87a2c57538e05bae127860405160405180910390a350565b60608167ffffffffffffffff8111156113f5577f4e487b7100000000000000000000000000000000000000000000000000000000600052604160045260246000fd5b6040519080825280602002602001820160405280156114235781602001602082028036833780820191505090505b50905060005b8281101561149857600060016014868460405160200161144a929190611f1b565b6040516020818303038152906040528051906020012060001c61146d9190612164565b6114779190611fc6565b90506114848184846115fe565b50808061149090612107565b915050611429565b5092915050565b60007f000000000000000000000000000000000000000000000000000000000000000073ffffffffffffffffffffffffffffffffffffffff16634000aea07f000000000000000000000000000000000000000000000000000000000000000084866000604051602001611513929190611dab565b6040516020818303038152906040526040518463ffffffff1660e01b815260040161154093929190611d4b565b602060405180830381600087803b15801561155a57600080fd5b505af115801561156e573d6000803e3d6000fd5b505050506040513d601f19601f820116820180604052508101906115929190611927565b5060006115b484600030600080898152602001908152602001600020546116c2565b90506001600080868152602001908152602001600020546115d59190611fc6565b600080868152602001908152602001600020819055506115f584826116fe565b91505092915050565b600015156009600085815260200190815260200160002060009054906101000a900460ff16151514156116a25782828281518110611665577f4e487b7100000000000000000000000000000000000000000000000000000000600052603260045260246000fd5b60200260200101818152505060016009600085815260200190815260200160002060006101000a81548160ff0219169083151502179055506116bd565b6001836116af9190611fc6565b92506116bc8383836115fe565b5b505050565b6000848484846040516020016116db9493929190611dd4565b6040516020818303038152906040528051906020012060001c9050949350505050565b60008282604051602001611713929190611d04565b60405160208183030381529060405280519060200120905092915050565b508054600082559060005260206000209081019061174f91906117d8565b50565b82805461175e906120d5565b90600052602060002090601f01602090048101928261178057600085556117c7565b82601f1061179957805160ff19168380011785556117c7565b828001600101855582156117c7579182015b828111156117c65782518255916020019190600101906117ab565b5b5090506117d491906117fc565b5090565b5b808211156117f857600081816117ef9190611819565b506001016117d9565b5090565b5b808211156118155760008160009055506001016117fd565b5090565b508054611825906120d5565b6000825580601f106118375750611856565b601f01602090049060005260206000209081019061185591906117fc565b5b50565b60008135905061186881612233565b92915050565b60008151905061187d8161224a565b92915050565b60008135905061189281612261565b92915050565b6000813590506118a781612278565b92915050565b6000815190506118bc81612278565b92915050565b6000602082840312156118d457600080fd5b60006118e284828501611859565b91505092915050565b600080604083850312156118fe57600080fd5b600061190c85828601611859565b925050602061191d85828601611898565b9150509250929050565b60006020828403121561193957600080fd5b60006119478482850161186e565b91505092915050565b6000806040838503121561196357600080fd5b600061197185828601611883565b925050602061198285828601611898565b9150509250929050565b60006020828403121561199e57600080fd5b60006119ac848285016118ad565b91505092915050565b60006119c18383611aac565b905092915050565b6119d281612050565b82525050565b60006119e382611f54565b6119ed8185611f82565b9350836020820285016119ff85611f44565b8060005b85811015611a3b5784840389528151611a1c85826119b5565b9450611a2783611f75565b925060208a01995050600181019050611a03565b50829750879550505050505092915050565b611a568161206e565b82525050565b611a6d611a688261206e565b612150565b82525050565b6000611a7e82611f5f565b611a888185611f93565b9350611a988185602086016120a2565b611aa181612222565b840191505092915050565b6000611ab782611f6a565b611ac18185611fa4565b9350611ad18185602086016120a2565b611ada81612222565b840191505092915050565b6000611af082611f6a565b611afa8185611fb5565b9350611b0a8185602086016120a2565b611b1381612222565b840191505092915050565b6000611b2b601683611fb5565b91507f4d7573742062652070726f706f736564206f776e6572000000000000000000006000830152602082019050919050565b6000611b6b601683611fb5565b91507f4f6e6c792063616c6c61626c65206279206f776e6572000000000000000000006000830152602082019050919050565b6000611bab601083611fb5565b91507f526f6c6c20696e2070726f6772657373000000000000000000000000000000006000830152602082019050919050565b6000611beb600f83611fb5565b91507f44696365206e6f7420726f6c6c656400000000000000000000000000000000006000830152602082019050919050565b6000611c2b601f83611fb5565b91507f4f6e6c7920565246436f6f7264696e61746f722063616e2066756c66696c6c006000830152602082019050919050565b6000611c6b601a83611fb5565b91507f4e6f7420656e6f756768204c494e4b20746f20706179206665650000000000006000830152602082019050919050565b6000611cab601783611fb5565b91507f43616e6e6f74207472616e7366657220746f2073656c660000000000000000006000830152602082019050919050565b611ce781612098565b82525050565b611cfe611cf982612098565b61215a565b82525050565b6000611d108285611a5c565b602082019150611d208284611ced565b6020820191508190509392505050565b6000602082019050611d4560008301846119c9565b92915050565b6000606082019050611d6060008301866119c9565b611d6d6020830185611cde565b8181036040830152611d7f8184611a73565b9050949350505050565b60006020820190508181036000830152611da381846119d8565b905092915050565b6000604082019050611dc06000830185611a4d565b611dcd6020830184611cde565b9392505050565b6000608082019050611de96000830187611a4d565b611df66020830186611cde565b611e0360408301856119c9565b611e106060830184611cde565b95945050505050565b60006020820190508181036000830152611e338184611ae5565b905092915050565b60006020820190508181036000830152611e5481611b1e565b9050919050565b60006020820190508181036000830152611e7481611b5e565b9050919050565b60006020820190508181036000830152611e9481611b9e565b9050919050565b60006020820190508181036000830152611eb481611bde565b9050919050565b60006020820190508181036000830152611ed481611c1e565b9050919050565b60006020820190508181036000830152611ef481611c5e565b9050919050565b60006020820190508181036000830152611f1481611c9e565b9050919050565b6000604082019050611f306000830185611cde565b611f3d6020830184611cde565b9392505050565b6000819050602082019050919050565b600081519050919050565b600081519050919050565b600081519050919050565b6000602082019050919050565b600082825260208201905092915050565b600082825260208201905092915050565b600082825260208201905092915050565b600082825260208201905092915050565b6000611fd182612098565b9150611fdc83612098565b9250827fffffffffffffffffffffffffffffffffffffffffffffffffffffffffffffffff0382111561201157612010612195565b5b828201905092915050565b600061202782612098565b915061203283612098565b92508282101561204557612044612195565b5b828203905092915050565b600061205b82612078565b9050919050565b60008115159050919050565b6000819050919050565b600073ffffffffffffffffffffffffffffffffffffffff82169050919050565b6000819050919050565b60005b838110156120c05780820151818401526020810190506120a5565b838111156120cf576000848401525b50505050565b600060028204905060018216806120ed57607f821691505b60208210811415612101576121006121f3565b5b50919050565b600061211282612098565b91507fffffffffffffffffffffffffffffffffffffffffffffffffffffffffffffffff82141561214557612144612195565b5b600182019050919050565b6000819050919050565b6000819050919050565b600061216f82612098565b915061217a83612098565b92508261218a576121896121c4565b5b828206905092915050565b7f4e487b7100000000000000000000000000000000000000000000000000000000600052601160045260246000fd5b7f4e487b7100000000000000000000000000000000000000000000000000000000600052601260045260246000fd5b7f4e487b7100000000000000000000000000000000000000000000000000000000600052602260045260246000fd5b6000601f19601f8301169050919050565b61223c81612050565b811461224757600080fd5b50565b61225381612062565b811461225e57600080fd5b50565b61226a8161206e565b811461227557600080fd5b50565b61228181612098565b811461228c57600080fd5b5056fea264697066735822122049d8b61424ae169f0007ee5a17b770e0044df7906adf4395a7c9d35878b9295364736f6c63430008000033",
	"linkReferences": {},
	"deployedLinkReferences": {}
}