{
	"_format": "hh-sol-artifact-1",
	"contractName": "packPlayers",
	"sourceName": "contracts/PackPlayers.sol",
	"abi": [
		{
			"inputs": [],
			"stateMutability": "nonpayable",
			"type": "constructor"
		},
		{
			"anonymous": false,
			"inputs": [
				{
					"indexed": true,
					"internalType": "address",
					"name": "account",
					"type": "address"
				},
				{
					"indexed": true,
					"internalType": "address",
					"name": "operator",
					"type": "address"
				},
				{
					"indexed": false,
					"internalType": "bool",
					"name": "approved",
					"type": "bool"
				}
			],
			"name": "ApprovalForAll",
			"type": "event"
		},
		{
			"anonymous": false,
			"inputs": [
				{
					"indexed": true,
					"internalType": "bytes32",
					"name": "requestId",
					"type": "bytes32"
				},
				{
					"indexed": true,
					"internalType": "uint256",
					"name": "result",
					"type": "uint256"
				}
			],
			"name": "DiceLanded",
			"type": "event"
		},
		{
			"anonymous": false,
			"inputs": [
				{
					"indexed": true,
					"internalType": "bytes32",
					"name": "requestId",
					"type": "bytes32"
				},
				{
					"indexed": true,
					"internalType": "address",
					"name": "roller",
					"type": "address"
				}
			],
			"name": "DiceRolled",
			"type": "event"
		},
		{
			"anonymous": false,
			"inputs": [
				{
					"indexed": true,
					"internalType": "address",
					"name": "from",
					"type": "address"
				},
				{
					"indexed": true,
					"internalType": "address",
					"name": "to",
					"type": "address"
				}
			],
			"name": "OwnershipTransferRequested",
			"type": "event"
		},
		{
			"anonymous": false,
			"inputs": [
				{
					"indexed": true,
					"internalType": "address",
					"name": "from",
					"type": "address"
				},
				{
					"indexed": true,
					"internalType": "address",
					"name": "to",
					"type": "address"
				}
			],
			"name": "OwnershipTransferred",
			"type": "event"
		},
		{
			"anonymous": false,
			"inputs": [
				{
					"indexed": false,
					"internalType": "address",
					"name": "owner",
					"type": "address"
				}
			],
			"name": "Packed",
			"type": "event"
		},
		{
			"anonymous": false,
			"inputs": [
				{
					"indexed": true,
					"internalType": "address",
					"name": "operator",
					"type": "address"
				},
				{
					"indexed": true,
					"internalType": "address",
					"name": "from",
					"type": "address"
				},
				{
					"indexed": true,
					"internalType": "address",
					"name": "to",
					"type": "address"
				},
				{
					"indexed": false,
					"internalType": "uint256[]",
					"name": "ids",
					"type": "uint256[]"
				},
				{
					"indexed": false,
					"internalType": "uint256[]",
					"name": "values",
					"type": "uint256[]"
				}
			],
			"name": "TransferBatch",
			"type": "event"
		},
		{
			"anonymous": false,
			"inputs": [
				{
					"indexed": true,
					"internalType": "address",
					"name": "operator",
					"type": "address"
				},
				{
					"indexed": true,
					"internalType": "address",
					"name": "from",
					"type": "address"
				},
				{
					"indexed": true,
					"internalType": "address",
					"name": "to",
					"type": "address"
				},
				{
					"indexed": false,
					"internalType": "uint256",
					"name": "id",
					"type": "uint256"
				},
				{
					"indexed": false,
					"internalType": "uint256",
					"name": "value",
					"type": "uint256"
				}
			],
			"name": "TransferSingle",
			"type": "event"
		},
		{
			"anonymous": false,
			"inputs": [
				{
					"indexed": false,
					"internalType": "string",
					"name": "value",
					"type": "string"
				},
				{
					"indexed": true,
					"internalType": "uint256",
					"name": "id",
					"type": "uint256"
				}
			],
			"name": "URI",
			"type": "event"
		},
		{
			"inputs": [],
			"name": "acceptOwnership",
			"outputs": [],
			"stateMutability": "nonpayable",
			"type": "function"
		},
		{
			"inputs": [
				{
					"internalType": "address",
					"name": "account",
					"type": "address"
				},
				{
					"internalType": "uint256",
					"name": "id",
					"type": "uint256"
				}
			],
			"name": "balanceOf",
			"outputs": [
				{
					"internalType": "uint256",
					"name": "",
					"type": "uint256"
				}
			],
			"stateMutability": "view",
			"type": "function"
		},
		{
			"inputs": [
				{
					"internalType": "address[]",
					"name": "accounts",
					"type": "address[]"
				},
				{
					"internalType": "uint256[]",
					"name": "ids",
					"type": "uint256[]"
				}
			],
			"name": "balanceOfBatch",
			"outputs": [
				{
					"internalType": "uint256[]",
					"name": "",
					"type": "uint256[]"
				}
			],
			"stateMutability": "view",
			"type": "function"
		},
		{
			"inputs": [
				{
					"internalType": "address",
					"name": "roller",
					"type": "address"
				}
			],
			"name": "buy",
			"outputs": [],
			"stateMutability": "payable",
			"type": "function"
		},
		{
			"inputs": [
				{
					"internalType": "address",
					"name": "owner",
					"type": "address"
				}
			],
			"name": "clearPackedPlayers",
			"outputs": [],
			"stateMutability": "nonpayable",
			"type": "function"
		},
		{
			"inputs": [
				{
					"internalType": "address",
					"name": "owner",
					"type": "address"
				}
			],
			"name": "getPlayers",
			"outputs": [
				{
					"internalType": "string[]",
					"name": "",
					"type": "string[]"
				}
			],
			"stateMutability": "view",
			"type": "function"
		},
		{
			"inputs": [
				{
					"internalType": "address",
					"name": "",
					"type": "address"
				},
				{
					"internalType": "uint256",
					"name": "",
					"type": "uint256"
				}
			],
			"name": "holdings",
			"outputs": [
				{
					"internalType": "string",
					"name": "",
					"type": "string"
				}
			],
			"stateMutability": "view",
			"type": "function"
		},
		{
			"inputs": [
				{
					"internalType": "uint256",
					"name": "",
					"type": "uint256"
				}
			],
			"name": "id_to_player",
			"outputs": [
				{
					"internalType": "string",
					"name": "",
					"type": "string"
				}
			],
			"stateMutability": "view",
			"type": "function"
		},
		{
			"inputs": [
				{
					"internalType": "address",
					"name": "account",
					"type": "address"
				},
				{
					"internalType": "address",
					"name": "operator",
					"type": "address"
				}
			],
			"name": "isApprovedForAll",
			"outputs": [
				{
					"internalType": "bool",
					"name": "",
					"type": "bool"
				}
			],
			"stateMutability": "view",
			"type": "function"
		},
		{
			"inputs": [],
			"name": "owner",
			"outputs": [
				{
					"internalType": "address",
					"name": "",
					"type": "address"
				}
			],
			"stateMutability": "view",
			"type": "function"
		},
		{
			"inputs": [
				{
					"internalType": "address",
					"name": "owner",
					"type": "address"
				}
			],
			"name": "player",
			"outputs": [
				{
					"internalType": "string[]",
					"name": "",
					"type": "string[]"
				}
			],
			"stateMutability": "nonpayable",
			"type": "function"
		},
		{
			"inputs": [
				{
					"internalType": "bytes32",
					"name": "requestId",
					"type": "bytes32"
				},
				{
					"internalType": "uint256",
					"name": "randomness",
					"type": "uint256"
				}
			],
			"name": "rawFulfillRandomness",
			"outputs": [],
			"stateMutability": "nonpayable",
			"type": "function"
		},
		{
			"inputs": [
				{
					"internalType": "address",
					"name": "from",
					"type": "address"
				},
				{
					"internalType": "address",
					"name": "to",
					"type": "address"
				},
				{
					"internalType": "uint256[]",
					"name": "ids",
					"type": "uint256[]"
				},
				{
					"internalType": "uint256[]",
					"name": "amounts",
					"type": "uint256[]"
				},
				{
					"internalType": "bytes",
					"name": "data",
					"type": "bytes"
				}
			],
			"name": "safeBatchTransferFrom",
			"outputs": [],
			"stateMutability": "nonpayable",
			"type": "function"
		},
		{
			"inputs": [
				{
					"internalType": "address",
					"name": "from",
					"type": "address"
				},
				{
					"internalType": "address",
					"name": "to",
					"type": "address"
				},
				{
					"internalType": "uint256",
					"name": "id",
					"type": "uint256"
				},
				{
					"internalType": "uint256",
					"name": "amount",
					"type": "uint256"
				},
				{
					"internalType": "bytes",
					"name": "data",
					"type": "bytes"
				}
			],
			"name": "safeTransferFrom",
			"outputs": [],
			"stateMutability": "nonpayable",
			"type": "function"
		},
		{
			"inputs": [
				{
					"internalType": "address",
					"name": "operator",
					"type": "address"
				},
				{
					"internalType": "bool",
					"name": "approved",
					"type": "bool"
				}
			],
			"name": "setApprovalForAll",
			"outputs": [],
			"stateMutability": "nonpayable",
			"type": "function"
		},
		{
			"inputs": [
				{
					"internalType": "bytes4",
					"name": "interfaceId",
					"type": "bytes4"
				}
			],
			"name": "supportsInterface",
			"outputs": [
				{
					"internalType": "bool",
					"name": "",
					"type": "bool"
				}
			],
			"stateMutability": "view",
			"type": "function"
		},
		{
			"inputs": [
				{
					"internalType": "address",
					"name": "to",
					"type": "address"
				}
			],
			"name": "transferOwnership",
			"outputs": [],
			"stateMutability": "nonpayable",
			"type": "function"
		},
		{
			"inputs": [
				{
					"internalType": "uint256",
					"name": "",
					"type": "uint256"
				}
			],
			"name": "uri",
			"outputs": [
				{
					"internalType": "string",
					"name": "",
					"type": "string"
				}
			],
			"stateMutability": "view",
			"type": "function"
		},
		{
			"inputs": [],
			"name": "value",
			"outputs": [
				{
					"internalType": "uint256",
					"name": "",
					"type": "uint256"
				}
			],
			"stateMutability": "view",
			"type": "function"
		}
	],
	"bytecode": "0x60c06040526040518061028001604052806040518060400160405280600c81526020017f4c6542726f6e204a616d6573000000000000000000000000000000000000000081525081526020016040518060400160405280600c81526020017f4b6576696e20447572616e74000000000000000000000000000000000000000081525081526020016040518060400160405280600d81526020017f4b61776869204c656f6e6172640000000000000000000000000000000000000081525081526020016040518060400160405280600b81526020017f42656e2053696d6d6f6e7300000000000000000000000000000000000000000081525081526020016040518060400160405280600e81526020017f416c706572656e2053656e67756e00000000000000000000000000000000000081525081526020016040518060400160405280600b81526020017f4a6f656c20456d6269696400000000000000000000000000000000000000000081525081526020016040518060400160405280600c81526020017f547972657365204d61786579000000000000000000000000000000000000000081525081526020016040518060400160405280600a81526020017f4c6f6e7a6f2042616c6c0000000000000000000000000000000000000000000081525081526020016040518060400160405280600b81526020017f4c616d656c6f2042616c6c00000000000000000000000000000000000000000081525081526020016040518060400160405280600a81526020017f4c615661722042616c6c0000000000000000000000000000000000000000000081525081526020016040518060400160405280601181526020017f5479726573652048616c69627572746f6e00000000000000000000000000000081525081526020016040518060400160405280601381526020017f526f626572742057696c6c69616d73204949490000000000000000000000000081525081526020016040518060400160405280601081526020017f4b6576696e20506f72746572204a722e0000000000000000000000000000000081525081526020016040518060400160405280601181526020017f4a6172656e204a61636b736f6e204a722e00000000000000000000000000000081525081526020016040518060400160405280600b81526020017f4576616e204d6f626c657900000000000000000000000000000000000000000081525081526020016040518060400160405280600f81526020017f436164652043756e6e696e6768616d000000000000000000000000000000000081525081526020016040518060400160405280600b81526020017f4a616c656e20477265656e00000000000000000000000000000000000000000081525081526020016040518060400160405280600e81526020017f53636f74746965204261726e657300000000000000000000000000000000000081525081526020016040518060400160405280600f81526020017f416e74686f6e792045647761726473000000000000000000000000000000000081525081526020016040518060400160405280600b81526020017f4a616c656e205375676773000000000000000000000000000000000000000000815250815250600d906014620004bc92919062000d98565b50348015620004ca57600080fd5b503380600073dd3782915140c8f3b190b5d67eac6dc5760c46e973a36085f69e2889c224210f603d836748e7dc008860405180606001604052806027815260200162005d72602791396200052481620007a960201b60201c565b508173ffffffffffffffffffffffffffffffffffffffff1660a08173ffffffffffffffffffffffffffffffffffffffff1660601b815250508073ffffffffffffffffffffffffffffffffffffffff1660808173ffffffffffffffffffffffffffffffffffffffff1660601b815250505050600073ffffffffffffffffffffffffffffffffffffffff168273ffffffffffffffffffffffffffffffffffffffff16141562000608576040517f08c379a0000000000000000000000000000000000000000000000000000000008152600401620005ff9062001317565b60405180910390fd5b81600460006101000a81548173ffffffffffffffffffffffffffffffffffffffff021916908373ffffffffffffffffffffffffffffffffffffffff160217905550600073ffffffffffffffffffffffffffffffffffffffff168173ffffffffffffffffffffffffffffffffffffffff161462000690576200068f81620007c560201b60201c565b5b50505060005b6014811015620006da57620006c43382606460405180602001604052806000815250620008f760201b60201c565b8080620006d19062001515565b91505062000696565b5060005b60148110156200076957600d816014811062000723577f4e487b7100000000000000000000000000000000000000000000000000000000600052603260045260246000fd5b01602160008381526020019081526020016000209080546200074590620014df565b6200075292919062000df2565b508080620007609062001515565b915050620006de565b507f6c3699283bda56ad74f6b855546325b68d482e983852a7a82979cc4807b641f460001b60068190555067016345785d8a0000600781905550620016bd565b8060029080519060200190620007c192919062000e8a565b5050565b3373ffffffffffffffffffffffffffffffffffffffff168173ffffffffffffffffffffffffffffffffffffffff16141562000837576040517f08c379a00000000000000000000000000000000000000000000000000000000081526004016200082e9062001339565b60405180910390fd5b80600560006101000a81548173ffffffffffffffffffffffffffffffffffffffff021916908373ffffffffffffffffffffffffffffffffffffffff1602179055508073ffffffffffffffffffffffffffffffffffffffff16600460009054906101000a900473ffffffffffffffffffffffffffffffffffffffff1673ffffffffffffffffffffffffffffffffffffffff167fed8889f560326eb138920d842192f0eb3dd22b4f139c87a2c57538e05bae127860405160405180910390a350565b600073ffffffffffffffffffffffffffffffffffffffff168473ffffffffffffffffffffffffffffffffffffffff1614156200096a576040517f08c379a000000000000000000000000000000000000000000000000000000000815260040162000961906200135b565b60405180910390fd5b60006200097c62000abc60201b60201c565b9050620009b581600087620009978862000ac460201b60201c565b620009a88862000ac460201b60201c565b8762000b8d60201b60201c565b8260008086815260200190815260200160002060008773ffffffffffffffffffffffffffffffffffffffff1673ffffffffffffffffffffffffffffffffffffffff168152602001908152602001600020600082825462000a169190620013e2565b925050819055508473ffffffffffffffffffffffffffffffffffffffff16600073ffffffffffffffffffffffffffffffffffffffff168273ffffffffffffffffffffffffffffffffffffffff167fc3d58168c5ae7397731d063d5bbf3d657854427343f4c083240f7aacaa2d0f62878760405162000a969291906200137d565b60405180910390a462000ab58160008787878762000b9560201b60201c565b5050505050565b600033905090565b60606000600167ffffffffffffffff81111562000b0a577f4e487b7100000000000000000000000000000000000000000000000000000000600052604160045260246000fd5b60405190808252806020026020018201604052801562000b395781602001602082028036833780820191505090505b509050828160008151811062000b78577f4e487b7100000000000000000000000000000000000000000000000000000000600052603260045260246000fd5b60200260200101818152505080915050919050565b505050505050565b62000bc18473ffffffffffffffffffffffffffffffffffffffff1662000d8560201b6200113a1760201c565b1562000d7d578373ffffffffffffffffffffffffffffffffffffffff1663f23a6e6187878686866040518663ffffffff1660e01b815260040162000c0a9594939291906200124b565b602060405180830381600087803b15801562000c2557600080fd5b505af192505050801562000c5957506040513d601f19601f8201168201806040525081019062000c56919062000fbf565b60015b62000cf15762000c68620015df565b8062000c75575062000cb4565b806040517f08c379a000000000000000000000000000000000000000000000000000000000815260040162000cab9190620012af565b60405180910390fd5b6040517f08c379a000000000000000000000000000000000000000000000000000000000815260040162000ce890620012d3565b60405180910390fd5b63f23a6e6160e01b7bffffffffffffffffffffffffffffffffffffffffffffffffffffffff1916817bffffffffffffffffffffffffffffffffffffffffffffffffffffffff19161462000d7b576040517f08c379a000000000000000000000000000000000000000000000000000000000815260040162000d7290620012f5565b60405180910390fd5b505b505050505050565b600080823b905060008111915050919050565b826014810192821562000ddf579160200282015b8281111562000dde57825182908051906020019062000dcd92919062000e8a565b509160200191906001019062000dac565b5b50905062000dee919062000f1b565b5090565b82805462000e0090620014df565b90600052602060002090601f01602090048101928262000e24576000855562000e77565b82601f1062000e37578054855562000e77565b8280016001018555821562000e7757600052602060002091601f016020900482015b8281111562000e7657825482559160010191906001019062000e59565b5b50905062000e86919062000f43565b5090565b82805462000e9890620014df565b90600052602060002090601f01602090048101928262000ebc576000855562000f08565b82601f1062000ed757805160ff191683800117855562000f08565b8280016001018555821562000f08579182015b8281111562000f0757825182559160200191906001019062000eea565b5b50905062000f17919062000f43565b5090565b5b8082111562000f3f576000818162000f35919062000f62565b5060010162000f1c565b5090565b5b8082111562000f5e57600081600090555060010162000f44565b5090565b50805462000f7090620014df565b6000825580601f1062000f84575062000fa5565b601f01602090049060005260206000209081019062000fa4919062000f43565b5b50565b60008151905062000fb981620016a3565b92915050565b60006020828403121562000fd257600080fd5b600062000fe28482850162000fa8565b91505092915050565b62000ff6816200143f565b82525050565b60006200100982620013aa565b620010158185620013c0565b935062001027818560208601620014a9565b6200103281620015c1565b840191505092915050565b60006200104a82620013b5565b620010568185620013d1565b935062001068818560208601620014a9565b6200107381620015c1565b840191505092915050565b60006200108d603483620013d1565b91507f455243313135353a207472616e7366657220746f206e6f6e204552433131353560008301527f526563656976657220696d706c656d656e7465720000000000000000000000006020830152604082019050919050565b6000620010f5602883620013d1565b91507f455243313135353a204552433131353552656365697665722072656a6563746560008301527f6420746f6b656e730000000000000000000000000000000000000000000000006020830152604082019050919050565b60006200115d601883620013d1565b91507f43616e6e6f7420736574206f776e657220746f207a65726f00000000000000006000830152602082019050919050565b60006200119f601783620013d1565b91507f43616e6e6f74207472616e7366657220746f2073656c660000000000000000006000830152602082019050919050565b6000620011e1602183620013d1565b91507f455243313135353a206d696e7420746f20746865207a65726f2061646472657360008301527f73000000000000000000000000000000000000000000000000000000000000006020830152604082019050919050565b62001245816200149f565b82525050565b600060a08201905062001262600083018862000feb565b62001271602083018762000feb565b6200128060408301866200123a565b6200128f60608301856200123a565b8181036080830152620012a3818462000ffc565b90509695505050505050565b60006020820190508181036000830152620012cb81846200103d565b905092915050565b60006020820190508181036000830152620012ee816200107e565b9050919050565b600060208201905081810360008301526200131081620010e6565b9050919050565b6000602082019050818103600083015262001332816200114e565b9050919050565b60006020820190508181036000830152620013548162001190565b9050919050565b600060208201905081810360008301526200137681620011d2565b9050919050565b60006040820190506200139460008301856200123a565b620013a360208301846200123a565b9392505050565b600081519050919050565b600081519050919050565b600082825260208201905092915050565b600082825260208201905092915050565b6000620013ef826200149f565b9150620013fc836200149f565b9250827fffffffffffffffffffffffffffffffffffffffffffffffffffffffffffffffff0382111562001434576200143362001563565b5b828201905092915050565b60006200144c826200147f565b9050919050565b60007fffffffff0000000000000000000000000000000000000000000000000000000082169050919050565b600073ffffffffffffffffffffffffffffffffffffffff82169050919050565b6000819050919050565b60005b83811015620014c9578082015181840152602081019050620014ac565b83811115620014d9576000848401525b50505050565b60006002820490506001821680620014f857607f821691505b602082108114156200150f576200150e62001592565b5b50919050565b600062001522826200149f565b91507fffffffffffffffffffffffffffffffffffffffffffffffffffffffffffffffff82141562001558576200155762001563565b5b600182019050919050565b7f4e487b7100000000000000000000000000000000000000000000000000000000600052601160045260246000fd5b7f4e487b7100000000000000000000000000000000000000000000000000000000600052602260045260246000fd5b6000601f19601f8301169050919050565b60008160e01c9050919050565b600060443d1015620015f157620016a0565b60046000803e62001604600051620015d2565b6308c379a08114620016175750620016a0565b60405160043d036004823e80513d602482011167ffffffffffffffff821117156200164557505050620016a0565b808201805167ffffffffffffffff81111562001666575050505050620016a0565b8060208301013d85018111156200168357505050505050620016a0565b6200168e82620015c1565b60208401016040528296505050505050505b90565b620016ae8162001453565b8114620016ba57600080fd5b50565b60805160601c60a05160601c61467b620016f760003960008181610f2d0152612825015260008181611f0601526127e9015261467b6000f3fe6080604052600436106101135760003560e01c80637a80b6b4116100a0578063a22cb46511610064578063a22cb465146103e8578063e985e9c514610411578063f088d5471461044e578063f242432a1461046a578063f2fde38b1461049357610113565b80637a80b6b4146102dd57806383a9bb821461031a5780638da5cb5b1461035757806391b46a911461038257806394985ddd146103bf57610113565b80633fa4f245116100e75780633fa4f245146101f85780634c54e1b5146102235780634e1273f41461026057806356dbf7ae1461029d57806379ba5097146102c657610113565b8062fdd58e1461011857806301ffc9a7146101555780630e89341c146101925780632eb2c2d6146101cf575b600080fd5b34801561012457600080fd5b5061013f600480360381019061013a9190613263565b6104bc565b60405161014c9190614080565b60405180910390f35b34801561016157600080fd5b5061017c60048036038101906101779190613370565b610585565b6040516101899190613db5565b60405180910390f35b34801561019e57600080fd5b506101b960048036038101906101b491906133c2565b610667565b6040516101c69190613e3e565b60405180910390f35b3480156101db57600080fd5b506101f660048036038101906101f191906130d9565b6106fb565b005b34801561020457600080fd5b5061020d61079c565b60405161021a9190614080565b60405180910390f35b34801561022f57600080fd5b5061024a60048036038101906102459190613074565b6107a2565b6040516102579190613d3a565b60405180910390f35b34801561026c57600080fd5b506102876004803603810190610282919061329f565b6108fa565b6040516102949190613d5c565b60405180910390f35b3480156102a957600080fd5b506102c460048036038101906102bf9190613074565b610aab565b005b3480156102d257600080fd5b506102db610af9565b005b3480156102e957600080fd5b5061030460048036038101906102ff9190613074565b610c90565b6040516103119190613d3a565b60405180910390f35b34801561032657600080fd5b50610341600480360381019061033c91906133c2565b610da8565b60405161034e9190613e3e565b60405180910390f35b34801561036357600080fd5b5061036c610e48565b6040516103799190613c1f565b60405180910390f35b34801561038e57600080fd5b506103a960048036038101906103a49190613263565b610e72565b6040516103b69190613e3e565b60405180910390f35b3480156103cb57600080fd5b506103e660048036038101906103e19190613334565b610f2b565b005b3480156103f457600080fd5b5061040f600480360381019061040a9190613227565b610fc7565b005b34801561041d57600080fd5b506104386004803603810190610433919061309d565b610fdd565b6040516104459190613db5565b60405180910390f35b61046860048036038101906104639190613074565b611071565b005b34801561047657600080fd5b50610491600480360381019061048c9190613198565b611085565b005b34801561049f57600080fd5b506104ba60048036038101906104b59190613074565b611126565b005b60008073ffffffffffffffffffffffffffffffffffffffff168373ffffffffffffffffffffffffffffffffffffffff16141561052d576040517f08c379a000000000000000000000000000000000000000000000000000000000815260040161052490613ec0565b60405180910390fd5b60008083815260200190815260200160002060008473ffffffffffffffffffffffffffffffffffffffff1673ffffffffffffffffffffffffffffffffffffffff16815260200190815260200160002054905092915050565b60007fd9b67a26000000000000000000000000000000000000000000000000000000007bffffffffffffffffffffffffffffffffffffffffffffffffffffffff1916827bffffffffffffffffffffffffffffffffffffffffffffffffffffffff1916148061065057507f0e89341c000000000000000000000000000000000000000000000000000000007bffffffffffffffffffffffffffffffffffffffffffffffffffffffff1916827bffffffffffffffffffffffffffffffffffffffffffffffffffffffff1916145b80610660575061065f8261114d565b5b9050919050565b60606002805461067690614382565b80601f01602080910402602001604051908101604052809291908181526020018280546106a290614382565b80156106ef5780601f106106c4576101008083540402835291602001916106ef565b820191906000526020600020905b8154815290600101906020018083116106d257829003601f168201915b50505050509050919050565b6107036111b7565b73ffffffffffffffffffffffffffffffffffffffff168573ffffffffffffffffffffffffffffffffffffffff1614806107495750610748856107436111b7565b610fdd565b5b610788576040517f08c379a000000000000000000000000000000000000000000000000000000000815260040161077f90613f80565b60405180910390fd5b61079585858585856111bf565b5050505050565b600c5481565b60606000600960008473ffffffffffffffffffffffffffffffffffffffff1673ffffffffffffffffffffffffffffffffffffffff168152602001908152602001600020541415610827576040517f08c379a000000000000000000000000000000000000000000000000000000000815260040161081e90613f40565b60405180910390fd5b602a600960008473ffffffffffffffffffffffffffffffffffffffff1673ffffffffffffffffffffffffffffffffffffffff1681526020019081526020016000205414156108aa576040517f08c379a00000000000000000000000000000000000000000000000000000000081526004016108a190613f20565b60405180910390fd5b6108f3600960008473ffffffffffffffffffffffffffffffffffffffff1673ffffffffffffffffffffffffffffffffffffffff168152602001908152602001600020548361151f565b9050919050565b60608151835114610940576040517f08c379a000000000000000000000000000000000000000000000000000000000815260040161093790614040565b60405180910390fd5b6000835167ffffffffffffffff811115610983577f4e487b7100000000000000000000000000000000000000000000000000000000600052604160045260246000fd5b6040519080825280602002602001820160405280156109b15781602001602082028036833780820191505090505b50905060005b8451811015610aa057610a4a8582815181106109fc577f4e487b7100000000000000000000000000000000000000000000000000000000600052603260045260246000fd5b6020026020010151858381518110610a3d577f4e487b7100000000000000000000000000000000000000000000000000000000600052603260045260246000fd5b60200260200101516104bc565b828281518110610a83577f4e487b7100000000000000000000000000000000000000000000000000000000600052603260045260246000fd5b60200260200101818152505080610a99906143b4565b90506109b7565b508091505092915050565b600a60008273ffffffffffffffffffffffffffffffffffffffff1673ffffffffffffffffffffffffffffffffffffffff1681526020019081526020016000206000610af69190612d10565b50565b600560009054906101000a900473ffffffffffffffffffffffffffffffffffffffff1673ffffffffffffffffffffffffffffffffffffffff163373ffffffffffffffffffffffffffffffffffffffff1614610b89576040517f08c379a0000000000000000000000000000000000000000000000000000000008152600401610b8090613ea0565b60405180910390fd5b6000600460009054906101000a900473ffffffffffffffffffffffffffffffffffffffff16905033600460006101000a81548173ffffffffffffffffffffffffffffffffffffffff021916908373ffffffffffffffffffffffffffffffffffffffff1602179055506000600560006101000a81548173ffffffffffffffffffffffffffffffffffffffff021916908373ffffffffffffffffffffffffffffffffffffffff1602179055503373ffffffffffffffffffffffffffffffffffffffff168173ffffffffffffffffffffffffffffffffffffffff167f8be0079c531659141344cd1fd0a4f28419497f9722a3daafe3b4186f6b6457e060405160405180910390a350565b6060600a60008373ffffffffffffffffffffffffffffffffffffffff1673ffffffffffffffffffffffffffffffffffffffff168152602001908152602001600020805480602002602001604051908101604052809291908181526020016000905b82821015610d9d578382906000526020600020018054610d1090614382565b80601f0160208091040260200160405190810160405280929190818152602001828054610d3c90614382565b8015610d895780601f10610d5e57610100808354040283529160200191610d89565b820191906000526020600020905b815481529060010190602001808311610d6c57829003601f168201915b505050505081526020019060010190610cf1565b505050509050919050565b60216020528060005260406000206000915090508054610dc790614382565b80601f0160208091040260200160405190810160405280929190818152602001828054610df390614382565b8015610e405780601f10610e1557610100808354040283529160200191610e40565b820191906000526020600020905b815481529060010190602001808311610e2357829003601f168201915b505050505081565b6000600460009054906101000a900473ffffffffffffffffffffffffffffffffffffffff16905090565b600a6020528160005260406000208181548110610e8e57600080fd5b90600052602060002001600091509150508054610eaa90614382565b80601f0160208091040260200160405190810160405280929190818152602001828054610ed690614382565b8015610f235780601f10610ef857610100808354040283529160200191610f23565b820191906000526020600020905b815481529060010190602001808311610f0657829003601f168201915b505050505081565b7f000000000000000000000000000000000000000000000000000000000000000073ffffffffffffffffffffffffffffffffffffffff163373ffffffffffffffffffffffffffffffffffffffff1614610fb9576040517f08c379a0000000000000000000000000000000000000000000000000000000008152600401610fb090613fc0565b60405180910390fd5b610fc38282611ccf565b5050565b610fd9610fd26111b7565b8383611d8a565b5050565b6000600160008473ffffffffffffffffffffffffffffffffffffffff1673ffffffffffffffffffffffffffffffffffffffff16815260200190815260200160002060008373ffffffffffffffffffffffffffffffffffffffff1673ffffffffffffffffffffffffffffffffffffffff16815260200190815260200160002060009054906101000a900460ff16905092915050565b34600c8190555061108181611ef7565b5050565b61108d6111b7565b73ffffffffffffffffffffffffffffffffffffffff168573ffffffffffffffffffffffffffffffffffffffff1614806110d357506110d2856110cd6111b7565b610fdd565b5b611112576040517f08c379a000000000000000000000000000000000000000000000000000000000815260040161110990613ee0565b60405180910390fd5b61111f85858585856120de565b5050505050565b61112e612360565b611137816123f2565b50565b600080823b905060008111915050919050565b60007f01ffc9a7000000000000000000000000000000000000000000000000000000007bffffffffffffffffffffffffffffffffffffffffffffffffffffffff1916827bffffffffffffffffffffffffffffffffffffffffffffffffffffffff1916149050919050565b600033905090565b8151835114611203576040517f08c379a00000000000000000000000000000000000000000000000000000000081526004016111fa90614060565b60405180910390fd5b600073ffffffffffffffffffffffffffffffffffffffff168473ffffffffffffffffffffffffffffffffffffffff161415611273576040517f08c379a000000000000000000000000000000000000000000000000000000000815260040161126a90613f60565b60405180910390fd5b600061127d6111b7565b905061128d818787878787612521565b60005b845181101561148a5760008582815181106112d4577f4e487b7100000000000000000000000000000000000000000000000000000000600052603260045260246000fd5b602002602001015190506000858381518110611319577f4e487b7100000000000000000000000000000000000000000000000000000000600052603260045260246000fd5b60200260200101519050600080600084815260200190815260200160002060008b73ffffffffffffffffffffffffffffffffffffffff1673ffffffffffffffffffffffffffffffffffffffff168152602001908152602001600020549050818110156113ba576040517f08c379a00000000000000000000000000000000000000000000000000000000081526004016113b190613fa0565b60405180910390fd5b81810360008085815260200190815260200160002060008c73ffffffffffffffffffffffffffffffffffffffff1673ffffffffffffffffffffffffffffffffffffffff168152602001908152602001600020819055508160008085815260200190815260200160002060008b73ffffffffffffffffffffffffffffffffffffffff1673ffffffffffffffffffffffffffffffffffffffff168152602001908152602001600020600082825461146f9190614238565b9250508190555050505080611483906143b4565b9050611290565b508473ffffffffffffffffffffffffffffffffffffffff168673ffffffffffffffffffffffffffffffffffffffff168273ffffffffffffffffffffffffffffffffffffffff167f4a39dc06d4c0dbc64b70af90fd698a233a518aa5d07e595d983b8c0526c8f7fb8787604051611501929190613d7e565b60405180910390a4611517818787878787612529565b505050505050565b606060006040518061028001604052806040518060400160405280600c81526020017f4c6542726f6e204a616d6573000000000000000000000000000000000000000081525081526020016040518060400160405280600c81526020017f4b6576696e20447572616e74000000000000000000000000000000000000000081525081526020016040518060400160405280600d81526020017f4b61776869204c656f6e6172640000000000000000000000000000000000000081525081526020016040518060400160405280600b81526020017f42656e2053696d6d6f6e7300000000000000000000000000000000000000000081525081526020016040518060400160405280600e81526020017f416c706572656e2053656e67756e00000000000000000000000000000000000081525081526020016040518060400160405280600b81526020017f4a6f656c20456d6269696400000000000000000000000000000000000000000081525081526020016040518060400160405280600c81526020017f547972657365204d61786579000000000000000000000000000000000000000081525081526020016040518060400160405280600a81526020017f4c6f6e7a6f2042616c6c0000000000000000000000000000000000000000000081525081526020016040518060400160405280600b81526020017f4c616d656c6f2042616c6c00000000000000000000000000000000000000000081525081526020016040518060400160405280600a81526020017f4c615661722042616c6c0000000000000000000000000000000000000000000081525081526020016040518060400160405280601181526020017f5479726573652048616c69627572746f6e00000000000000000000000000000081525081526020016040518060400160405280601381526020017f526f626572742057696c6c69616d73204949490000000000000000000000000081525081526020016040518060400160405280601081526020017f4b6576696e20506f72746572204a722e0000000000000000000000000000000081525081526020016040518060400160405280601181526020017f4a6172656e204a61636b736f6e204a722e00000000000000000000000000000081525081526020016040518060400160405280600b81526020017f4576616e204d6f626c657900000000000000000000000000000000000000000081525081526020016040518060400160405280600f81526020017f436164652043756e6e696e6768616d000000000000000000000000000000000081525081526020016040518060400160405280600b81526020017f4a616c656e20477265656e00000000000000000000000000000000000000000081525081526020016040518060400160405280600e81526020017f53636f74746965204261726e657300000000000000000000000000000000000081525081526020016040518060400160405280600f81526020017f416e74686f6e792045647761726473000000000000000000000000000000000081525081526020016040518060400160405280600b81526020017f4a616c656e205375676773000000000000000000000000000000000000000000815250815250905060006119d88560056126f9565b905060005b8151811015611b7e57600a60008673ffffffffffffffffffffffffffffffffffffffff1673ffffffffffffffffffffffffffffffffffffffff168152602001908152602001600020836001848481518110611a61577f4e487b7100000000000000000000000000000000000000000000000000000000600052603260045260246000fd5b6020026020010151611a73919061428e565b60148110611aaa577f4e487b7100000000000000000000000000000000000000000000000000000000600052603260045260246000fd5b6020020151908060018154018082558091505060019003906000526020600020016000909190919091509080519060200190611ae7929190612d31565b50611b6b3033848481518110611b26577f4e487b7100000000000000000000000000000000000000000000000000000000600052603260045260246000fd5b602002602001015160016040518060400160405280600381526020017f3078300000000000000000000000000000000000000000000000000000000000815250611085565b8080611b76906143b4565b9150506119dd565b507fa340c216784d506dea61b22b7290b63d4aabbec0d7132930e22fcbc94153d2f784604051611bae9190613c1f565b60405180910390a1600a60008573ffffffffffffffffffffffffffffffffffffffff1673ffffffffffffffffffffffffffffffffffffffff168152602001908152602001600020805480602002602001604051908101604052809291908181526020016000905b82821015611cc1578382906000526020600020018054611c3490614382565b80601f0160208091040260200160405190810160405280929190818152602001828054611c6090614382565b8015611cad5780601f10611c8257610100808354040283529160200191611cad565b820191906000526020600020905b815481529060010190602001808311611c9057829003601f168201915b505050505081526020019060010190611c15565b505050509250505092915050565b6000601482611cde9190614411565b905080600960006008600087815260200190815260200160002060009054906101000a900473ffffffffffffffffffffffffffffffffffffffff1673ffffffffffffffffffffffffffffffffffffffff1673ffffffffffffffffffffffffffffffffffffffff1681526020019081526020016000208190555080837f909dd726737b7ffa4ae9d137e9edebe8a74a9c2910a4b60e8112f93ab217083760405160405180910390a3505050565b8173ffffffffffffffffffffffffffffffffffffffff168373ffffffffffffffffffffffffffffffffffffffff161415611df9576040517f08c379a0000000000000000000000000000000000000000000000000000000008152600401611df090614020565b60405180910390fd5b80600160008573ffffffffffffffffffffffffffffffffffffffff1673ffffffffffffffffffffffffffffffffffffffff16815260200190815260200160002060008473ffffffffffffffffffffffffffffffffffffffff1673ffffffffffffffffffffffffffffffffffffffff16815260200190815260200160002060006101000a81548160ff0219169083151502179055508173ffffffffffffffffffffffffffffffffffffffff168373ffffffffffffffffffffffffffffffffffffffff167f17307eab39ab6107e8899845ad3d59bd9653f200f220920489ca2b5937696c3183604051611eea9190613db5565b60405180910390a3505050565b6000611f01612360565b6007547f000000000000000000000000000000000000000000000000000000000000000073ffffffffffffffffffffffffffffffffffffffff166370a08231306040518263ffffffff1660e01b8152600401611f5d9190613c1f565b60206040518083038186803b158015611f7557600080fd5b505afa158015611f89573d6000803e3d6000fd5b505050506040513d601f19601f82011682018060405250810190611fad91906133eb565b1015611fee576040517f08c379a0000000000000000000000000000000000000000000000000000000008152600401611fe590613fe0565b60405180910390fd5b611ffc6006546007546127e5565b9050816008600083815260200190815260200160002060006101000a81548173ffffffffffffffffffffffffffffffffffffffff021916908373ffffffffffffffffffffffffffffffffffffffff160217905550602a600960008473ffffffffffffffffffffffffffffffffffffffff1673ffffffffffffffffffffffffffffffffffffffff168152602001908152602001600020819055508173ffffffffffffffffffffffffffffffffffffffff16817f923de4fc4aece24a78a9e4ca3009c571a742f81ac2c004a229224b0fd1883bdd60405160405180910390a3919050565b600073ffffffffffffffffffffffffffffffffffffffff168473ffffffffffffffffffffffffffffffffffffffff16141561214e576040517f08c379a000000000000000000000000000000000000000000000000000000000815260040161214590613f60565b60405180910390fd5b60006121586111b7565b905061217881878761216988612947565b61217288612947565b87612521565b600080600086815260200190815260200160002060008873ffffffffffffffffffffffffffffffffffffffff1673ffffffffffffffffffffffffffffffffffffffff1681526020019081526020016000205490508381101561220f576040517f08c379a000000000000000000000000000000000000000000000000000000000815260040161220690613fa0565b60405180910390fd5b83810360008087815260200190815260200160002060008973ffffffffffffffffffffffffffffffffffffffff1673ffffffffffffffffffffffffffffffffffffffff168152602001908152602001600020819055508360008087815260200190815260200160002060008873ffffffffffffffffffffffffffffffffffffffff1673ffffffffffffffffffffffffffffffffffffffff16815260200190815260200160002060008282546122c49190614238565b925050819055508573ffffffffffffffffffffffffffffffffffffffff168773ffffffffffffffffffffffffffffffffffffffff168373ffffffffffffffffffffffffffffffffffffffff167fc3d58168c5ae7397731d063d5bbf3d657854427343f4c083240f7aacaa2d0f62888860405161234192919061409b565b60405180910390a4612357828888888888612a0d565b50505050505050565b600460009054906101000a900473ffffffffffffffffffffffffffffffffffffffff1673ffffffffffffffffffffffffffffffffffffffff163373ffffffffffffffffffffffffffffffffffffffff16146123f0576040517f08c379a00000000000000000000000000000000000000000000000000000000081526004016123e790613f00565b60405180910390fd5b565b3373ffffffffffffffffffffffffffffffffffffffff168173ffffffffffffffffffffffffffffffffffffffff161415612461576040517f08c379a000000000000000000000000000000000000000000000000000000000815260040161245890614000565b60405180910390fd5b80600560006101000a81548173ffffffffffffffffffffffffffffffffffffffff021916908373ffffffffffffffffffffffffffffffffffffffff1602179055508073ffffffffffffffffffffffffffffffffffffffff16600460009054906101000a900473ffffffffffffffffffffffffffffffffffffffff1673ffffffffffffffffffffffffffffffffffffffff167fed8889f560326eb138920d842192f0eb3dd22b4f139c87a2c57538e05bae127860405160405180910390a350565b505050505050565b6125488473ffffffffffffffffffffffffffffffffffffffff1661113a565b156126f1578373ffffffffffffffffffffffffffffffffffffffff1663bc197c8187878686866040518663ffffffff1660e01b815260040161258e959493929190613c3a565b602060405180830381600087803b1580156125a857600080fd5b505af19250505080156125d957506040513d601f19601f820116820180604052508101906125d69190613399565b60015b612668576125e561451c565b806125f0575061262d565b806040517f08c379a00000000000000000000000000000000000000000000000000000000081526004016126249190613e3e565b60405180910390fd5b6040517f08c379a000000000000000000000000000000000000000000000000000000000815260040161265f90613e60565b60405180910390fd5b63bc197c8160e01b7bffffffffffffffffffffffffffffffffffffffffffffffffffffffff1916817bffffffffffffffffffffffffffffffffffffffffffffffffffffffff1916146126ef576040517f08c379a00000000000000000000000000000000000000000000000000000000081526004016126e690613e80565b60405180910390fd5b505b505050505050565b60608167ffffffffffffffff81111561273b577f4e487b7100000000000000000000000000000000000000000000000000000000600052604160045260246000fd5b6040519080825280602002602001820160405280156127695781602001602082028036833780820191505090505b50905060005b828110156127de57600060016014868460405160200161279092919061409b565b6040516020818303038152906040528051906020012060001c6127b39190614411565b6127bd9190614238565b90506127ca818484612bdd565b5080806127d6906143b4565b91505061276f565b5092915050565b60007f000000000000000000000000000000000000000000000000000000000000000073ffffffffffffffffffffffffffffffffffffffff16634000aea07f000000000000000000000000000000000000000000000000000000000000000084866000604051602001612859929190613dd0565b6040516020818303038152906040526040518463ffffffff1660e01b815260040161288693929190613cfc565b602060405180830381600087803b1580156128a057600080fd5b505af11580156128b4573d6000803e3d6000fd5b505050506040513d601f19601f820116820180604052508101906128d8919061330b565b5060006128fb846000306003600089815260200190815260200160002054612ca1565b90506001600360008681526020019081526020016000205461291d9190614238565b600360008681526020019081526020016000208190555061293e8482612cdd565b91505092915050565b60606000600167ffffffffffffffff81111561298c577f4e487b7100000000000000000000000000000000000000000000000000000000600052604160045260246000fd5b6040519080825280602002602001820160405280156129ba5781602001602082028036833780820191505090505b50905082816000815181106129f8577f4e487b7100000000000000000000000000000000000000000000000000000000600052603260045260246000fd5b60200260200101818152505080915050919050565b612a2c8473ffffffffffffffffffffffffffffffffffffffff1661113a565b15612bd5578373ffffffffffffffffffffffffffffffffffffffff1663f23a6e6187878686866040518663ffffffff1660e01b8152600401612a72959493929190613ca2565b602060405180830381600087803b158015612a8c57600080fd5b505af1925050508015612abd57506040513d601f19601f82011682018060405250810190612aba9190613399565b60015b612b4c57612ac961451c565b80612ad45750612b11565b806040517f08c379a0000000000000000000000000000000000000000000000000000000008152600401612b089190613e3e565b60405180910390fd5b6040517f08c379a0000000000000000000000000000000000000000000000000000000008152600401612b4390613e60565b60405180910390fd5b63f23a6e6160e01b7bffffffffffffffffffffffffffffffffffffffffffffffffffffffff1916817bffffffffffffffffffffffffffffffffffffffffffffffffffffffff191614612bd3576040517f08c379a0000000000000000000000000000000000000000000000000000000008152600401612bca90613e80565b60405180910390fd5b505b505050505050565b60001515600b600085815260200190815260200160002060009054906101000a900460ff1615151415612c815782828281518110612c44577f4e487b7100000000000000000000000000000000000000000000000000000000600052603260045260246000fd5b6020026020010181815250506001600b600085815260200190815260200160002060006101000a81548160ff021916908315150217905550612c9c565b600183612c8e9190614238565b9250612c9b838383612bdd565b5b505050565b600084848484604051602001612cba9493929190613df9565b6040516020818303038152906040528051906020012060001c9050949350505050565b60008282604051602001612cf2929190613bf3565b60405160208183030381529060405280519060200120905092915050565b5080546000825590600052602060002090810190612d2e9190612db7565b50565b828054612d3d90614382565b90600052602060002090601f016020900481019282612d5f5760008555612da6565b82601f10612d7857805160ff1916838001178555612da6565b82800160010185558215612da6579182015b82811115612da5578251825591602001919060010190612d8a565b5b509050612db39190612ddb565b5090565b5b80821115612dd75760008181612dce9190612df8565b50600101612db8565b5090565b5b80821115612df4576000816000905550600101612ddc565b5090565b508054612e0490614382565b6000825580601f10612e165750612e35565b601f016020900490600052602060002090810190612e349190612ddb565b5b50565b6000612e4b612e46846140f5565b6140c4565b90508083825260208201905082856020860282011115612e6a57600080fd5b60005b85811015612e9a5781612e808882612f4e565b845260208401935060208301925050600181019050612e6d565b5050509392505050565b6000612eb7612eb284614121565b6140c4565b90508083825260208201905082856020860282011115612ed657600080fd5b60005b85811015612f065781612eec888261304a565b845260208401935060208301925050600181019050612ed9565b5050509392505050565b6000612f23612f1e8461414d565b6140c4565b905082815260208101848484011115612f3b57600080fd5b612f46848285614340565b509392505050565b600081359050612f5d816145d2565b92915050565b600082601f830112612f7457600080fd5b8135612f84848260208601612e38565b91505092915050565b600082601f830112612f9e57600080fd5b8135612fae848260208601612ea4565b91505092915050565b600081359050612fc6816145e9565b92915050565b600081519050612fdb816145e9565b92915050565b600081359050612ff081614600565b92915050565b60008135905061300581614617565b92915050565b60008151905061301a81614617565b92915050565b600082601f83011261303157600080fd5b8135613041848260208601612f10565b91505092915050565b6000813590506130598161462e565b92915050565b60008151905061306e8161462e565b92915050565b60006020828403121561308657600080fd5b600061309484828501612f4e565b91505092915050565b600080604083850312156130b057600080fd5b60006130be85828601612f4e565b92505060206130cf85828601612f4e565b9150509250929050565b600080600080600060a086880312156130f157600080fd5b60006130ff88828901612f4e565b955050602061311088828901612f4e565b945050604086013567ffffffffffffffff81111561312d57600080fd5b61313988828901612f8d565b935050606086013567ffffffffffffffff81111561315657600080fd5b61316288828901612f8d565b925050608086013567ffffffffffffffff81111561317f57600080fd5b61318b88828901613020565b9150509295509295909350565b600080600080600060a086880312156131b057600080fd5b60006131be88828901612f4e565b95505060206131cf88828901612f4e565b94505060406131e08882890161304a565b93505060606131f18882890161304a565b925050608086013567ffffffffffffffff81111561320e57600080fd5b61321a88828901613020565b9150509295509295909350565b6000806040838503121561323a57600080fd5b600061324885828601612f4e565b925050602061325985828601612fb7565b9150509250929050565b6000806040838503121561327657600080fd5b600061328485828601612f4e565b92505060206132958582860161304a565b9150509250929050565b600080604083850312156132b257600080fd5b600083013567ffffffffffffffff8111156132cc57600080fd5b6132d885828601612f63565b925050602083013567ffffffffffffffff8111156132f557600080fd5b61330185828601612f8d565b9150509250929050565b60006020828403121561331d57600080fd5b600061332b84828501612fcc565b91505092915050565b6000806040838503121561334757600080fd5b600061335585828601612fe1565b92505060206133668582860161304a565b9150509250929050565b60006020828403121561338257600080fd5b600061339084828501612ff6565b91505092915050565b6000602082840312156133ab57600080fd5b60006133b98482850161300b565b91505092915050565b6000602082840312156133d457600080fd5b60006133e28482850161304a565b91505092915050565b6000602082840312156133fd57600080fd5b600061340b8482850161305f565b91505092915050565b60006134208383613590565b905092915050565b60006134348383613bbe565b60208301905092915050565b613449816142c2565b82525050565b600061345a8261419d565b61346481856141e3565b9350836020820285016134768561417d565b8060005b858110156134b257848403895281516134938582613414565b945061349e836141c9565b925060208a0199505060018101905061347a565b50829750879550505050505092915050565b60006134cf826141a8565b6134d981856141f4565b93506134e48361418d565b8060005b838110156135155781516134fc8882613428565b9750613507836141d6565b9250506001810190506134e8565b5085935050505092915050565b61352b816142d4565b82525050565b61353a816142e0565b82525050565b61355161354c826142e0565b6143fd565b82525050565b6000613562826141b3565b61356c8185614205565b935061357c81856020860161434f565b613585816144fe565b840191505092915050565b600061359b826141be565b6135a58185614216565b93506135b581856020860161434f565b6135be816144fe565b840191505092915050565b60006135d4826141be565b6135de8185614227565b93506135ee81856020860161434f565b6135f7816144fe565b840191505092915050565b600061360f603483614227565b91507f455243313135353a207472616e7366657220746f206e6f6e204552433131353560008301527f526563656976657220696d706c656d656e7465720000000000000000000000006020830152604082019050919050565b6000613675602883614227565b91507f455243313135353a204552433131353552656365697665722072656a6563746560008301527f6420746f6b656e730000000000000000000000000000000000000000000000006020830152604082019050919050565b60006136db601683614227565b91507f4d7573742062652070726f706f736564206f776e6572000000000000000000006000830152602082019050919050565b600061371b602b83614227565b91507f455243313135353a2062616c616e636520717565727920666f7220746865207a60008301527f65726f20616464726573730000000000000000000000000000000000000000006020830152604082019050919050565b6000613781602983614227565b91507f455243313135353a2063616c6c6572206973206e6f74206f776e6572206e6f7260008301527f20617070726f76656400000000000000000000000000000000000000000000006020830152604082019050919050565b60006137e7601683614227565b91507f4f6e6c792063616c6c61626c65206279206f776e6572000000000000000000006000830152602082019050919050565b6000613827601083614227565b91507f526f6c6c20696e2070726f6772657373000000000000000000000000000000006000830152602082019050919050565b6000613867600f83614227565b91507f44696365206e6f7420726f6c6c656400000000000000000000000000000000006000830152602082019050919050565b60006138a7602583614227565b91507f455243313135353a207472616e7366657220746f20746865207a65726f20616460008301527f64726573730000000000000000000000000000000000000000000000000000006020830152604082019050919050565b600061390d603283614227565b91507f455243313135353a207472616e736665722063616c6c6572206973206e6f742060008301527f6f776e6572206e6f7220617070726f76656400000000000000000000000000006020830152604082019050919050565b6000613973602a83614227565b91507f455243313135353a20696e73756666696369656e742062616c616e636520666f60008301527f72207472616e73666572000000000000000000000000000000000000000000006020830152604082019050919050565b60006139d9601f83614227565b91507f4f6e6c7920565246436f6f7264696e61746f722063616e2066756c66696c6c006000830152602082019050919050565b6000613a19601a83614227565b91507f4e6f7420656e6f756768204c494e4b20746f20706179206665650000000000006000830152602082019050919050565b6000613a59601783614227565b91507f43616e6e6f74207472616e7366657220746f2073656c660000000000000000006000830152602082019050919050565b6000613a99602983614227565b91507f455243313135353a2073657474696e6720617070726f76616c2073746174757360008301527f20666f722073656c6600000000000000000000000000000000000000000000006020830152604082019050919050565b6000613aff602983614227565b91507f455243313135353a206163636f756e747320616e6420696473206c656e67746860008301527f206d69736d6174636800000000000000000000000000000000000000000000006020830152604082019050919050565b6000613b65602883614227565b91507f455243313135353a2069647320616e6420616d6f756e7473206c656e6774682060008301527f6d69736d617463680000000000000000000000000000000000000000000000006020830152604082019050919050565b613bc781614336565b82525050565b613bd681614336565b82525050565b613bed613be882614336565b614407565b82525050565b6000613bff8285613540565b602082019150613c0f8284613bdc565b6020820191508190509392505050565b6000602082019050613c346000830184613440565b92915050565b600060a082019050613c4f6000830188613440565b613c5c6020830187613440565b8181036040830152613c6e81866134c4565b90508181036060830152613c8281856134c4565b90508181036080830152613c968184613557565b90509695505050505050565b600060a082019050613cb76000830188613440565b613cc46020830187613440565b613cd16040830186613bcd565b613cde6060830185613bcd565b8181036080830152613cf08184613557565b90509695505050505050565b6000606082019050613d116000830186613440565b613d1e6020830185613bcd565b8181036040830152613d308184613557565b9050949350505050565b60006020820190508181036000830152613d54818461344f565b905092915050565b60006020820190508181036000830152613d7681846134c4565b905092915050565b60006040820190508181036000830152613d9881856134c4565b90508181036020830152613dac81846134c4565b90509392505050565b6000602082019050613dca6000830184613522565b92915050565b6000604082019050613de56000830185613531565b613df26020830184613bcd565b9392505050565b6000608082019050613e0e6000830187613531565b613e1b6020830186613bcd565b613e286040830185613440565b613e356060830184613bcd565b95945050505050565b60006020820190508181036000830152613e5881846135c9565b905092915050565b60006020820190508181036000830152613e7981613602565b9050919050565b60006020820190508181036000830152613e9981613668565b9050919050565b60006020820190508181036000830152613eb9816136ce565b9050919050565b60006020820190508181036000830152613ed98161370e565b9050919050565b60006020820190508181036000830152613ef981613774565b9050919050565b60006020820190508181036000830152613f19816137da565b9050919050565b60006020820190508181036000830152613f398161381a565b9050919050565b60006020820190508181036000830152613f598161385a565b9050919050565b60006020820190508181036000830152613f798161389a565b9050919050565b60006020820190508181036000830152613f9981613900565b9050919050565b60006020820190508181036000830152613fb981613966565b9050919050565b60006020820190508181036000830152613fd9816139cc565b9050919050565b60006020820190508181036000830152613ff981613a0c565b9050919050565b6000602082019050818103600083015261401981613a4c565b9050919050565b6000602082019050818103600083015261403981613a8c565b9050919050565b6000602082019050818103600083015261405981613af2565b9050919050565b6000602082019050818103600083015261407981613b58565b9050919050565b60006020820190506140956000830184613bcd565b92915050565b60006040820190506140b06000830185613bcd565b6140bd6020830184613bcd565b9392505050565b6000604051905081810181811067ffffffffffffffff821117156140eb576140ea6144cf565b5b8060405250919050565b600067ffffffffffffffff8211156141105761410f6144cf565b5b602082029050602081019050919050565b600067ffffffffffffffff82111561413c5761413b6144cf565b5b602082029050602081019050919050565b600067ffffffffffffffff821115614168576141676144cf565b5b601f19601f8301169050602081019050919050565b6000819050602082019050919050565b6000819050602082019050919050565b600081519050919050565b600081519050919050565b600081519050919050565b600081519050919050565b6000602082019050919050565b6000602082019050919050565b600082825260208201905092915050565b600082825260208201905092915050565b600082825260208201905092915050565b600082825260208201905092915050565b600082825260208201905092915050565b600061424382614336565b915061424e83614336565b9250827fffffffffffffffffffffffffffffffffffffffffffffffffffffffffffffffff0382111561428357614282614442565b5b828201905092915050565b600061429982614336565b91506142a483614336565b9250828210156142b7576142b6614442565b5b828203905092915050565b60006142cd82614316565b9050919050565b60008115159050919050565b6000819050919050565b60007fffffffff0000000000000000000000000000000000000000000000000000000082169050919050565b600073ffffffffffffffffffffffffffffffffffffffff82169050919050565b6000819050919050565b82818337600083830152505050565b60005b8381101561436d578082015181840152602081019050614352565b8381111561437c576000848401525b50505050565b6000600282049050600182168061439a57607f821691505b602082108114156143ae576143ad6144a0565b5b50919050565b60006143bf82614336565b91507fffffffffffffffffffffffffffffffffffffffffffffffffffffffffffffffff8214156143f2576143f1614442565b5b600182019050919050565b6000819050919050565b6000819050919050565b600061441c82614336565b915061442783614336565b92508261443757614436614471565b5b828206905092915050565b7f4e487b7100000000000000000000000000000000000000000000000000000000600052601160045260246000fd5b7f4e487b7100000000000000000000000000000000000000000000000000000000600052601260045260246000fd5b7f4e487b7100000000000000000000000000000000000000000000000000000000600052602260045260246000fd5b7f4e487b7100000000000000000000000000000000000000000000000000000000600052604160045260246000fd5b6000601f19601f8301169050919050565b60008160e01c9050919050565b600060443d101561452c576145cf565b60046000803e61453d60005161450f565b6308c379a0811461454e57506145cf565b60405160043d036004823e80513d602482011167ffffffffffffffff8211171561457a575050506145cf565b808201805167ffffffffffffffff8111156145995750505050506145cf565b8060208301013d85018111156145b4575050505050506145cf565b6145bd826144fe565b60208401016040528296505050505050505b90565b6145db816142c2565b81146145e657600080fd5b50565b6145f2816142d4565b81146145fd57600080fd5b50565b614609816142e0565b811461461457600080fd5b50565b614620816142ea565b811461462b57600080fd5b50565b61463781614336565b811461464257600080fd5b5056fea26469706673582212208cd4918ebcaaaf5c9bd75cd2d39ece8fb7bd00a72e41d13ab19b01c751c298da64736f6c6343000800003368747470733a2f2f67616d652e6578616d706c652f6170692f6974656d2f7b69647d2e6a736f6e",
	"linkReferences": {},
	"deployedLinkReferences": {}
}