{
	"_format": "hh-sol-artifact-1",
	"contractName": "packPlayers",
	"sourceName": "contracts/PackPlayers.sol",
	"abi": [
		{
			"inputs": [],
			"stateMutability": "nonpayable",
			"type": "constructor"
		},
		{
			"anonymous": false,
			"inputs": [
				{
					"indexed": true,
					"internalType": "bytes32",
					"name": "requestId",
					"type": "bytes32"
				},
				{
					"indexed": true,
					"internalType": "uint256",
					"name": "result",
					"type": "uint256"
				}
			],
			"name": "DiceLanded",
			"type": "event"
		},
		{
			"anonymous": false,
			"inputs": [
				{
					"indexed": true,
					"internalType": "bytes32",
					"name": "requestId",
					"type": "bytes32"
				},
				{
					"indexed": true,
					"internalType": "address",
					"name": "roller",
					"type": "address"
				}
			],
			"name": "DiceRolled",
			"type": "event"
		},
		{
			"anonymous": false,
			"inputs": [
				{
					"indexed": true,
					"internalType": "address",
					"name": "from",
					"type": "address"
				},
				{
					"indexed": true,
					"internalType": "address",
					"name": "to",
					"type": "address"
				}
			],
			"name": "OwnershipTransferRequested",
			"type": "event"
		},
		{
			"anonymous": false,
			"inputs": [
				{
					"indexed": true,
					"internalType": "address",
					"name": "from",
					"type": "address"
				},
				{
					"indexed": true,
					"internalType": "address",
					"name": "to",
					"type": "address"
				}
			],
			"name": "OwnershipTransferred",
			"type": "event"
		},
		{
			"inputs": [],
			"name": "acceptOwnership",
			"outputs": [],
			"stateMutability": "nonpayable",
			"type": "function"
		},
		{
			"inputs": [
				{
					"internalType": "address",
					"name": "roller",
					"type": "address"
				}
			],
			"name": "buy",
			"outputs": [],
			"stateMutability": "payable",
			"type": "function"
		},
		{
			"inputs": [
				{
					"internalType": "address",
					"name": "owner",
					"type": "address"
				}
			],
			"name": "clearPackedPlayers",
			"outputs": [],
			"stateMutability": "nonpayable",
			"type": "function"
		},
		{
			"inputs": [
				{
					"internalType": "address",
					"name": "owner",
					"type": "address"
				}
			],
			"name": "getPlayers",
			"outputs": [
				{
					"internalType": "string[]",
					"name": "",
					"type": "string[]"
				}
			],
			"stateMutability": "view",
			"type": "function"
		},
		{
			"inputs": [
				{
					"internalType": "address",
					"name": "",
					"type": "address"
				},
				{
					"internalType": "uint256",
					"name": "",
					"type": "uint256"
				}
			],
			"name": "holdings",
			"outputs": [
				{
					"internalType": "string",
					"name": "",
					"type": "string"
				}
			],
			"stateMutability": "view",
			"type": "function"
		},
		{
			"inputs": [],
			"name": "owner",
			"outputs": [
				{
					"internalType": "address",
					"name": "",
					"type": "address"
				}
			],
			"stateMutability": "view",
			"type": "function"
		},
		{
			"inputs": [
				{
					"internalType": "address",
					"name": "owner",
					"type": "address"
				}
			],
			"name": "player",
			"outputs": [
				{
					"internalType": "string[]",
					"name": "",
					"type": "string[]"
				}
			],
			"stateMutability": "nonpayable",
			"type": "function"
		},
		{
			"inputs": [
				{
					"internalType": "bytes32",
					"name": "requestId",
					"type": "bytes32"
				},
				{
					"internalType": "uint256",
					"name": "randomness",
					"type": "uint256"
				}
			],
			"name": "rawFulfillRandomness",
			"outputs": [],
			"stateMutability": "nonpayable",
			"type": "function"
		},
		{
			"inputs": [
				{
					"internalType": "address",
					"name": "to",
					"type": "address"
				}
			],
			"name": "transferOwnership",
			"outputs": [],
			"stateMutability": "nonpayable",
			"type": "function"
		}
	],
	"bytecode": "0x60c06040523480156200001157600080fd5b503380600073dd3782915140c8f3b190b5d67eac6dc5760c46e973a36085f69e2889c224210f603d836748e7dc00888173ffffffffffffffffffffffffffffffffffffffff1660a08173ffffffffffffffffffffffffffffffffffffffff1660601b815250508073ffffffffffffffffffffffffffffffffffffffff1660808173ffffffffffffffffffffffffffffffffffffffff1660601b815250505050600073ffffffffffffffffffffffffffffffffffffffff168273ffffffffffffffffffffffffffffffffffffffff16141562000123576040517f08c379a00000000000000000000000000000000000000000000000000000000081526004016200011a90620003a3565b60405180910390fd5b81600160006101000a81548173ffffffffffffffffffffffffffffffffffffffff021916908373ffffffffffffffffffffffffffffffffffffffff160217905550600073ffffffffffffffffffffffffffffffffffffffff168173ffffffffffffffffffffffffffffffffffffffff1614620001ab57620001aa81620001ed60201b60201c565b5b5050507f6c3699283bda56ad74f6b855546325b68d482e983852a7a82979cc4807b641f460001b60038190555067016345785d8a0000600481905550620003f8565b3373ffffffffffffffffffffffffffffffffffffffff168173ffffffffffffffffffffffffffffffffffffffff1614156200025f576040517f08c379a00000000000000000000000000000000000000000000000000000000081526004016200025690620003c5565b60405180910390fd5b80600260006101000a81548173ffffffffffffffffffffffffffffffffffffffff021916908373ffffffffffffffffffffffffffffffffffffffff1602179055508073ffffffffffffffffffffffffffffffffffffffff16600160009054906101000a900473ffffffffffffffffffffffffffffffffffffffff1673ffffffffffffffffffffffffffffffffffffffff167fed8889f560326eb138920d842192f0eb3dd22b4f139c87a2c57538e05bae127860405160405180910390a350565b60006200032e601883620003e7565b91507f43616e6e6f7420736574206f776e657220746f207a65726f00000000000000006000830152602082019050919050565b600062000370601783620003e7565b91507f43616e6e6f74207472616e7366657220746f2073656c660000000000000000006000830152602082019050919050565b60006020820190508181036000830152620003be816200031f565b9050919050565b60006020820190508181036000830152620003e08162000361565b9050919050565b600082825260208201905092915050565b60805160601c60a05160601c61228e620004326000396000818161075501526114a8015260008181610fe3015261146c015261228e6000f3fe6080604052600436106100865760003560e01c80638da5cb5b116100595780638da5cb5b1461014557806391b46a911461017057806394985ddd146101ad578063f088d547146101d6578063f2fde38b146101f257610086565b80634c54e1b51461008b57806356dbf7ae146100c857806379ba5097146100f15780637a80b6b414610108575b600080fd5b34801561009757600080fd5b506100b260048036038101906100ad919061188b565b61021b565b6040516100bf9190611d52565b60405180910390f35b3480156100d457600080fd5b506100ef60048036038101906100ea919061188b565b610373565b005b3480156100fd57600080fd5b506101066103c1565b005b34801561011457600080fd5b5061012f600480360381019061012a919061188b565b610558565b60405161013c9190611d52565b60405180910390f35b34801561015157600080fd5b5061015a610670565b6040516101679190611cf9565b60405180910390f35b34801561017c57600080fd5b50610197600480360381019061019291906118b4565b61069a565b6040516101a49190611de2565b60405180910390f35b3480156101b957600080fd5b506101d460048036038101906101cf9190611919565b610753565b005b6101f060048036038101906101eb919061188b565b6107ef565b005b3480156101fe57600080fd5b506102196004803603810190610214919061188b565b610803565b005b60606000600660008473ffffffffffffffffffffffffffffffffffffffff1673ffffffffffffffffffffffffffffffffffffffff1681526020019081526020016000205414156102a0576040517f08c379a000000000000000000000000000000000000000000000000000000000815260040161029790611e64565b60405180910390fd5b602a600660008473ffffffffffffffffffffffffffffffffffffffff1673ffffffffffffffffffffffffffffffffffffffff168152602001908152602001600020541415610323576040517f08c379a000000000000000000000000000000000000000000000000000000000815260040161031a90611e44565b60405180910390fd5b61036c600660008473ffffffffffffffffffffffffffffffffffffffff1673ffffffffffffffffffffffffffffffffffffffff1681526020019081526020016000205483610817565b9050919050565b600760008273ffffffffffffffffffffffffffffffffffffffff1673ffffffffffffffffffffffffffffffffffffffff16815260200190815260200160002060006103be91906116fa565b50565b600260009054906101000a900473ffffffffffffffffffffffffffffffffffffffff1673ffffffffffffffffffffffffffffffffffffffff163373ffffffffffffffffffffffffffffffffffffffff1614610451576040517f08c379a000000000000000000000000000000000000000000000000000000000815260040161044890611e04565b60405180910390fd5b6000600160009054906101000a900473ffffffffffffffffffffffffffffffffffffffff16905033600160006101000a81548173ffffffffffffffffffffffffffffffffffffffff021916908373ffffffffffffffffffffffffffffffffffffffff1602179055506000600260006101000a81548173ffffffffffffffffffffffffffffffffffffffff021916908373ffffffffffffffffffffffffffffffffffffffff1602179055503373ffffffffffffffffffffffffffffffffffffffff168173ffffffffffffffffffffffffffffffffffffffff167f8be0079c531659141344cd1fd0a4f28419497f9722a3daafe3b4186f6b6457e060405160405180910390a350565b6060600760008373ffffffffffffffffffffffffffffffffffffffff1673ffffffffffffffffffffffffffffffffffffffff168152602001908152602001600020805480602002602001604051908101604052809291908181526020016000905b828210156106655783829060005260206000200180546105d89061209e565b80601f01602080910402602001604051908101604052809291908181526020018280546106049061209e565b80156106515780601f1061062657610100808354040283529160200191610651565b820191906000526020600020905b81548152906001019060200180831161063457829003601f168201915b5050505050815260200190600101906105b9565b505050509050919050565b6000600160009054906101000a900473ffffffffffffffffffffffffffffffffffffffff16905090565b600760205281600052604060002081815481106106b657600080fd5b906000526020600020016000915091505080546106d29061209e565b80601f01602080910402602001604051908101604052809291908181526020018280546106fe9061209e565b801561074b5780601f106107205761010080835404028352916020019161074b565b820191906000526020600020905b81548152906001019060200180831161072e57829003601f168201915b505050505081565b7f000000000000000000000000000000000000000000000000000000000000000073ffffffffffffffffffffffffffffffffffffffff163373ffffffffffffffffffffffffffffffffffffffff16146107e1576040517f08c379a00000000000000000000000000000000000000000000000000000000081526004016107d890611e84565b60405180910390fd5b6107eb8282610f0d565b5050565b346008819055506107ff81610fd4565b5050565b61080b6111bb565b6108148161124d565b50565b606060006040518061028001604052806040518060400160405280600c81526020017f4c6542726f6e204a616d6573000000000000000000000000000000000000000081525081526020016040518060400160405280600c81526020017f4b6576696e20447572616e74000000000000000000000000000000000000000081525081526020016040518060400160405280600d81526020017f4b61776869204c656f6e6172640000000000000000000000000000000000000081525081526020016040518060400160405280600b81526020017f42656e2053696d6d6f6e7300000000000000000000000000000000000000000081525081526020016040518060400160405280600e81526020017f416c706572656e2053656e67756e00000000000000000000000000000000000081525081526020016040518060400160405280600b81526020017f4a6f656c20456d6269696400000000000000000000000000000000000000000081525081526020016040518060400160405280600c81526020017f547972657365204d61786579000000000000000000000000000000000000000081525081526020016040518060400160405280600a81526020017f4c6f6e7a6f2042616c6c0000000000000000000000000000000000000000000081525081526020016040518060400160405280600b81526020017f4c616d656c6f2042616c6c00000000000000000000000000000000000000000081525081526020016040518060400160405280600a81526020017f4c615661722042616c6c0000000000000000000000000000000000000000000081525081526020016040518060400160405280601181526020017f5479726573652048616c69627572746f6e00000000000000000000000000000081525081526020016040518060400160405280601381526020017f526f626572742057696c6c69616d73204949490000000000000000000000000081525081526020016040518060400160405280601081526020017f4b6576696e20506f72746572204a722e0000000000000000000000000000000081525081526020016040518060400160405280601181526020017f4a6172656e204a61636b736f6e204a722e00000000000000000000000000000081525081526020016040518060400160405280600b81526020017f4576616e204d6f626c657900000000000000000000000000000000000000000081525081526020016040518060400160405280600f81526020017f436164652043756e6e696e6768616d000000000000000000000000000000000081525081526020016040518060400160405280600b81526020017f4a616c656e20477265656e00000000000000000000000000000000000000000081525081526020016040518060400160405280600e81526020017f53636f74746965204261726e657300000000000000000000000000000000000081525081526020016040518060400160405280600f81526020017f416e74686f6e792045647761726473000000000000000000000000000000000081525081526020016040518060400160405280600b81526020017f4a616c656e20537567677300000000000000000000000000000000000000000081525081525090506000610cd085600561137c565b905060005b8151811015610df357600760008673ffffffffffffffffffffffffffffffffffffffff1673ffffffffffffffffffffffffffffffffffffffff168152602001908152602001600020836001848481518110610d59577f4e487b7100000000000000000000000000000000000000000000000000000000600052603260045260246000fd5b6020026020010151610d6b9190611fe5565b60148110610da2577f4e487b7100000000000000000000000000000000000000000000000000000000600052603260045260246000fd5b6020020151908060018154018082558091505060019003906000526020600020016000909190919091509080519060200190610ddf92919061171b565b508080610deb906120d0565b915050610cd5565b50600760008573ffffffffffffffffffffffffffffffffffffffff1673ffffffffffffffffffffffffffffffffffffffff168152602001908152602001600020805480602002602001604051908101604052809291908181526020016000905b82821015610eff578382906000526020600020018054610e729061209e565b80601f0160208091040260200160405190810160405280929190818152602001828054610e9e9061209e565b8015610eeb5780601f10610ec057610100808354040283529160200191610eeb565b820191906000526020600020905b815481529060010190602001808311610ece57829003601f168201915b505050505081526020019060010190610e53565b505050509250505092915050565b60006001601483610f1e919061212d565b610f289190611f8f565b905080600660006005600087815260200190815260200160002060009054906101000a900473ffffffffffffffffffffffffffffffffffffffff1673ffffffffffffffffffffffffffffffffffffffff1673ffffffffffffffffffffffffffffffffffffffff1681526020019081526020016000208190555080837f909dd726737b7ffa4ae9d137e9edebe8a74a9c2910a4b60e8112f93ab217083760405160405180910390a3505050565b6000610fde6111bb565b6004547f000000000000000000000000000000000000000000000000000000000000000073ffffffffffffffffffffffffffffffffffffffff166370a08231306040518263ffffffff1660e01b815260040161103a9190611cf9565b60206040518083038186803b15801561105257600080fd5b505afa158015611066573d6000803e3d6000fd5b505050506040513d601f19601f8201168201806040525081019061108a9190611955565b10156110cb576040517f08c379a00000000000000000000000000000000000000000000000000000000081526004016110c290611ea4565b60405180910390fd5b6110d9600354600454611468565b9050816005600083815260200190815260200160002060006101000a81548173ffffffffffffffffffffffffffffffffffffffff021916908373ffffffffffffffffffffffffffffffffffffffff160217905550602a600660008473ffffffffffffffffffffffffffffffffffffffff1673ffffffffffffffffffffffffffffffffffffffff168152602001908152602001600020819055508173ffffffffffffffffffffffffffffffffffffffff16817f923de4fc4aece24a78a9e4ca3009c571a742f81ac2c004a229224b0fd1883bdd60405160405180910390a3919050565b600160009054906101000a900473ffffffffffffffffffffffffffffffffffffffff1673ffffffffffffffffffffffffffffffffffffffff163373ffffffffffffffffffffffffffffffffffffffff161461124b576040517f08c379a000000000000000000000000000000000000000000000000000000000815260040161124290611e24565b60405180910390fd5b565b3373ffffffffffffffffffffffffffffffffffffffff168173ffffffffffffffffffffffffffffffffffffffff1614156112bc576040517f08c379a00000000000000000000000000000000000000000000000000000000081526004016112b390611ec4565b60405180910390fd5b80600260006101000a81548173ffffffffffffffffffffffffffffffffffffffff021916908373ffffffffffffffffffffffffffffffffffffffff1602179055508073ffffffffffffffffffffffffffffffffffffffff16600160009054906101000a900473ffffffffffffffffffffffffffffffffffffffff1673ffffffffffffffffffffffffffffffffffffffff167fed8889f560326eb138920d842192f0eb3dd22b4f139c87a2c57538e05bae127860405160405180910390a350565b60608167ffffffffffffffff8111156113be577f4e487b7100000000000000000000000000000000000000000000000000000000600052604160045260246000fd5b6040519080825280602002602001820160405280156113ec5781602001602082028036833780820191505090505b50905060005b82811015611461576000600160148684604051602001611413929190611ee4565b6040516020818303038152906040528051906020012060001c611436919061212d565b6114409190611f8f565b905061144d8184846115c7565b508080611459906120d0565b9150506113f2565b5092915050565b60007f000000000000000000000000000000000000000000000000000000000000000073ffffffffffffffffffffffffffffffffffffffff16634000aea07f0000000000000000000000000000000000000000000000000000000000000000848660006040516020016114dc929190611d74565b6040516020818303038152906040526040518463ffffffff1660e01b815260040161150993929190611d14565b602060405180830381600087803b15801561152357600080fd5b505af1158015611537573d6000803e3d6000fd5b505050506040513d601f19601f8201168201806040525081019061155b91906118f0565b50600061157d846000306000808981526020019081526020016000205461168b565b905060016000808681526020019081526020016000205461159e9190611f8f565b600080868152602001908152602001600020819055506115be84826116c7565b91505092915050565b600015156009600085815260200190815260200160002060009054906101000a900460ff161515141561166b578282828151811061162e577f4e487b7100000000000000000000000000000000000000000000000000000000600052603260045260246000fd5b60200260200101818152505060016009600085815260200190815260200160002060006101000a81548160ff021916908315150217905550611686565b6001836116789190611f8f565b92506116858383836115c7565b5b505050565b6000848484846040516020016116a49493929190611d9d565b6040516020818303038152906040528051906020012060001c9050949350505050565b600082826040516020016116dc929190611ccd565b60405160208183030381529060405280519060200120905092915050565b508054600082559060005260206000209081019061171891906117a1565b50565b8280546117279061209e565b90600052602060002090601f0160209004810192826117495760008555611790565b82601f1061176257805160ff1916838001178555611790565b82800160010185558215611790579182015b8281111561178f578251825591602001919060010190611774565b5b50905061179d91906117c5565b5090565b5b808211156117c157600081816117b891906117e2565b506001016117a2565b5090565b5b808211156117de5760008160009055506001016117c6565b5090565b5080546117ee9061209e565b6000825580601f10611800575061181f565b601f01602090049060005260206000209081019061181e91906117c5565b5b50565b600081359050611831816121fc565b92915050565b60008151905061184681612213565b92915050565b60008135905061185b8161222a565b92915050565b60008135905061187081612241565b92915050565b60008151905061188581612241565b92915050565b60006020828403121561189d57600080fd5b60006118ab84828501611822565b91505092915050565b600080604083850312156118c757600080fd5b60006118d585828601611822565b92505060206118e685828601611861565b9150509250929050565b60006020828403121561190257600080fd5b600061191084828501611837565b91505092915050565b6000806040838503121561192c57600080fd5b600061193a8582860161184c565b925050602061194b85828601611861565b9150509250929050565b60006020828403121561196757600080fd5b600061197584828501611876565b91505092915050565b600061198a8383611a75565b905092915050565b61199b81612019565b82525050565b60006119ac82611f1d565b6119b68185611f4b565b9350836020820285016119c885611f0d565b8060005b85811015611a0457848403895281516119e5858261197e565b94506119f083611f3e565b925060208a019950506001810190506119cc565b50829750879550505050505092915050565b611a1f81612037565b82525050565b611a36611a3182612037565b612119565b82525050565b6000611a4782611f28565b611a518185611f5c565b9350611a6181856020860161206b565b611a6a816121eb565b840191505092915050565b6000611a8082611f33565b611a8a8185611f6d565b9350611a9a81856020860161206b565b611aa3816121eb565b840191505092915050565b6000611ab982611f33565b611ac38185611f7e565b9350611ad381856020860161206b565b611adc816121eb565b840191505092915050565b6000611af4601683611f7e565b91507f4d7573742062652070726f706f736564206f776e6572000000000000000000006000830152602082019050919050565b6000611b34601683611f7e565b91507f4f6e6c792063616c6c61626c65206279206f776e6572000000000000000000006000830152602082019050919050565b6000611b74601083611f7e565b91507f526f6c6c20696e2070726f6772657373000000000000000000000000000000006000830152602082019050919050565b6000611bb4600f83611f7e565b91507f44696365206e6f7420726f6c6c656400000000000000000000000000000000006000830152602082019050919050565b6000611bf4601f83611f7e565b91507f4f6e6c7920565246436f6f7264696e61746f722063616e2066756c66696c6c006000830152602082019050919050565b6000611c34601a83611f7e565b91507f4e6f7420656e6f756768204c494e4b20746f20706179206665650000000000006000830152602082019050919050565b6000611c74601783611f7e565b91507f43616e6e6f74207472616e7366657220746f2073656c660000000000000000006000830152602082019050919050565b611cb081612061565b82525050565b611cc7611cc282612061565b612123565b82525050565b6000611cd98285611a25565b602082019150611ce98284611cb6565b6020820191508190509392505050565b6000602082019050611d0e6000830184611992565b92915050565b6000606082019050611d296000830186611992565b611d366020830185611ca7565b8181036040830152611d488184611a3c565b9050949350505050565b60006020820190508181036000830152611d6c81846119a1565b905092915050565b6000604082019050611d896000830185611a16565b611d966020830184611ca7565b9392505050565b6000608082019050611db26000830187611a16565b611dbf6020830186611ca7565b611dcc6040830185611992565b611dd96060830184611ca7565b95945050505050565b60006020820190508181036000830152611dfc8184611aae565b905092915050565b60006020820190508181036000830152611e1d81611ae7565b9050919050565b60006020820190508181036000830152611e3d81611b27565b9050919050565b60006020820190508181036000830152611e5d81611b67565b9050919050565b60006020820190508181036000830152611e7d81611ba7565b9050919050565b60006020820190508181036000830152611e9d81611be7565b9050919050565b60006020820190508181036000830152611ebd81611c27565b9050919050565b60006020820190508181036000830152611edd81611c67565b9050919050565b6000604082019050611ef96000830185611ca7565b611f066020830184611ca7565b9392505050565b6000819050602082019050919050565b600081519050919050565b600081519050919050565b600081519050919050565b6000602082019050919050565b600082825260208201905092915050565b600082825260208201905092915050565b600082825260208201905092915050565b600082825260208201905092915050565b6000611f9a82612061565b9150611fa583612061565b9250827fffffffffffffffffffffffffffffffffffffffffffffffffffffffffffffffff03821115611fda57611fd961215e565b5b828201905092915050565b6000611ff082612061565b9150611ffb83612061565b92508282101561200e5761200d61215e565b5b828203905092915050565b600061202482612041565b9050919050565b60008115159050919050565b6000819050919050565b600073ffffffffffffffffffffffffffffffffffffffff82169050919050565b6000819050919050565b60005b8381101561208957808201518184015260208101905061206e565b83811115612098576000848401525b50505050565b600060028204905060018216806120b657607f821691505b602082108114156120ca576120c96121bc565b5b50919050565b60006120db82612061565b91507fffffffffffffffffffffffffffffffffffffffffffffffffffffffffffffffff82141561210e5761210d61215e565b5b600182019050919050565b6000819050919050565b6000819050919050565b600061213882612061565b915061214383612061565b9250826121535761215261218d565b5b828206905092915050565b7f4e487b7100000000000000000000000000000000000000000000000000000000600052601160045260246000fd5b7f4e487b7100000000000000000000000000000000000000000000000000000000600052601260045260246000fd5b7f4e487b7100000000000000000000000000000000000000000000000000000000600052602260045260246000fd5b6000601f19601f8301169050919050565b61220581612019565b811461221057600080fd5b50565b61221c8161202b565b811461222757600080fd5b50565b61223381612037565b811461223e57600080fd5b50565b61224a81612061565b811461225557600080fd5b5056fea2646970667358221220ddb13e887200a6ba3e9011c8f3820f3910fdf1f9d7bad615b9eb133e352c973064736f6c63430008000033",
	"linkReferences": {},
	"deployedLinkReferences": {}
}